:4000000000800020110000009D0300009D03000008B5044B1A6803F53F5302331A6000F0DDF900BFFA46004010B5054C237833B9044B13B10448AFF300800123237010BD61
:40004000D087FF1F00000000243B0000084B10B51BB108480849AFF300800848036803B910BD074B002BFBD0BDE81040184700BF00000000243B0000D487FF1F0881FF1FE7
:40008000000000000122014B1A707047EC87FF1F0122014B5A707047EC87FF1F08B502F05DFE014B588008BDEC87FF1F10B582B04DF6AD63ADF80630002410E084F4004009
:4000C0000DF10601012202F0ABFEBDF806302344ADF806300A2000F057FD0234A4B2B4F5FF7FEBD9002411E0A4F5F84080B20DF10601012202F094FEBDF806302344ADF870
:4001000006300A2000F040FD0234A4B2FE2CEBD902B010BD70B594B062B602F0CDF900F0F5FB00F02DFC62B60020012100F0D4FE02F060FA00F096FD02F0DCFA00F084FBE5
:4001400000F0C2FD02F022FA02F0C6FA02F0F6FDFFF7ACFF814802F001FB814802F026FB804802F04BFB012002F05AF97E4802F045F90120002102F0ADF97C4802F03EF9D4
:4001800000257B4C608880B2211D012202F0ECFDA07108B10022A2800120022102F09AF9734CA08802F0C4F900200B2102F092F9638803F47E43B3F5004F05D0638803F476
:4001C0007F43B3F5044F03D16A4802F017F92EE0674B5B8803F47F43B3F5084F16D0644B5B889BB223F07F03B3F5204F0ED0604B5B8803F47F43B3F5224F07D05C4B5B884F
:400200009BB223F07F03B3F5244F0DD1584B5B889BB2B3F5204F03D1574802F0EFF806E0564802F0EBF802E0554802F0E7F800F091FE20B100F088FE08B100F0B5FF00F0F1
:4002400083FE00285BD001F06FF8002845D004A801F082F8044600283FD001F071F80028FBD09DF81030612B09D1464801F00EF8042001214FF4004202F0C2F923E0712B59
:4002800009D1414801F002F80420012148F2012202F0B6F917E0772B12D13C4800F0F6FF334E0420012106F1080202F0C1F901A83749328903F02CF801A800F0E7FF02E0F7
:4002C000344800F0E3FF402C07D101F039F80028FBD00020014600F0B3FF01F055F870B110F0020F0BD001F06BF810F0010F05D02DB9294800F0CAFF012500E000251C4B28
:400300001B7813F0FF0F14D0194B00221A705B889BB2B3F5224F0CD1154C608880B2211D012202F021FDA0714FF42040A18802F0D3FD0F4B5B7813F0FF0F05D000220C4BE8
:400340005A70FA2000F00AFC0020022102F0C2F8074B588880B202F0EBF812E7850000009D00000091000000283B0000383B0000EC87FF1F403B0000483B0000503B0000DF
:40038000583B0000603B00007C3B0000983B0000A43B0000B03B0000DC3B000008B502F077FF03680C2B00D1FEE7FEE708B5094B1A681044084BC31A802B02DC054B1860DA
:4003C00005E002F065FF0C2303604FF0FF32104608BD00BF0C81FF1F7891FF1F08B5104E104D16E029686B68AC68002204E051F8040B43F8040B0432A242F8D1E868002231
:4004000003E0002143F8041B04328242F9D11035013E002EE6D102F041FFFFF77BFEFEE7010000003C50000008B5134A134B1A60134A136843F40073136000230AE0032BFC
:4004400003D8104A52F8231000E00F490F4A42F8231001332F2BF2D90D4B1A780D4B1A700A4A0D4B1A6000F0F1F800F097FA00220A4B1A6008BD00BF0004FA050CED00E0D6
:4004800014ED00E0000000009D0300000080FF1FBC7600400481FF1F08ED00E00081FF1FFEE700BFF0B40022174611E050F82760F3B226F0FF0608E001EB420511F81240D7
:4004C0006D78A5550132013BDBB2002BF4D10137252FEBD9F0BC7047104B1B78DBB203F007010F4A11701B090132137081220D4B1A70052290331A70202203F6CB031A70C8
:400500009023094A13704FF4817146321180123213706622054B1A70704700BFCF0100496E5800403D510040005B00407658004008B50A46002102F0E2FE08BD38B50022EB
:40054000374B1A80582202331A70022202331A801823344A137040F21F3102321180023213700622304B1A7043F21332EE3B1A80023B05221A701B7843F2C82404E04FF4C6
:40058000F07002F049FE013C24B1284B1B7813F0800FF4D114B90120FFF782FF4FF40072234B1A804FF4E16203F21E231A8001224FF040231A7041F2512203F508731A80B9
:4005C000002419250CE01B4B1B7803F0010343EA440404F003044FF4F07002F01DFE013D0DB1032CEFD141224FF040231A70702203F500731A700E4A0723137000230E491D
:400600000B7048200231087013700532137002220A4B1A700A4A137843F00703137038BD80400040864000400043004010420040044000402542004006400040014000400B
:40064000A243004008B502F04FFE08BD38B572B6564A137843F00403137000240CE0544963001A1952000A4423445B00C8589188FFF75EFF0134E4B2052CF0D900240FE08E
:400680004B49A3001A1952000A4452F8240F23445B000B4451689A8DFFF7D4FF0134E4B2012CEDD94FF090404249FFF7FBFE42480421FFF73DFF414841490422FFF7C2FFE1
:4006C00040480421FFF734FF3F480421FFF730FF3E483F490422FFF7B5FF3E483E490422FFF7B0FF3D483E490422FFF7ABFF3D480421FFF71DFF3C480421FFF719FF3B48D5
:400700003B490422FFF79EFF3A4A137843F0020313701032137843F002031370364C237843F040032370A2F58632513A137843F010031370314832490822FFF783FF3148C7
:4007400031490A22FFF77EFF304831490522FFF779FF304830490A22FFF774FF2F4830490822FFF76FFF2F482F490822FFF76AFF2E482F490822FFF765FF2E482E490822D4
:40078000FFF760FF2D4A137843F0080313702C4D01232B70FFF7D2FE81232B70FFF79CFE284821460E22FFF74DFF38BDE8460040F43B000098000048007600400876004025
:4007C000EC0E0048107600401876004020760040F00E004828760040F40E004830760040F80E0048387600404076004048760040FC0E004803500140A0430040025100402D
:40080000A40E0048C0510040AC0E0048CB510040B80E0048F0510040C00E004812510040CC0E004822510040D40E004832510040DC0E004862510040E40E00482243004001
:4008400000480040B0430040054A137843F0010313701032137843F001031370704700BFA2430040054A137843F0080313701032137843F008031370704700BFA84300403D
:40088000054B1A7802F0FD021A701A7800F0020010431870704700BF2C580040014B1870704700BF835B0040064B1B78C3F3810303F19243063393F83831DBB2024A13706A
:4008C000704700BF2C5800400B46004008B5064B1A7802F0F3021A701A7800F00C0010431870FFF7E1FF08BD2C58004010B50024054B1C7001331C700420FFF7E7FF204669
:40090000FFF7BEFF10BD00BF2C58004008B5074B1B7823B9FFF7EAFF0122044B1A70FFF7A1FF4B20FFF7BAFF08BD00BFF887FF1F084A137843F060031370A2F5A652133AB8
:40094000137843F0080313701032137843F008031370704777580040054B1A7802F0FC021A701A7800F0030010431870704700BF5E58004008B50320FFF7EEFF08BD00BF68
:4009800008B5054B1B7823B90122034B1A70FFF7F1FFFFF7CDFF08BDF987FF1F0B4A7F2313708021517007E0DA0002F1804202F5F042013BDBB21370002BF5D1DB0003F12E
:4009C000804303F5F04300221A7070471081FF1F172815D831B103010A495A5C42F020025A5405E0030107495A5C02F0DF025A540001044A835C43F0010383540020704757
:400A0000012070471070004017280BD80001064A835C03F0F10301F0070143EA4101815400207047012070471070004041F6FF73994201D14FF4005141F6FF739A4201D1F8
:400A40004FF40052172808D8C00000F1804000F5EC408180C280002070470120704700BF172805D8034B03EB00104172002070470120704710700040172809D8054B03EB97
:400A80000010037901F007011943017100207047012070471070004017281BD810B4C00000F1804404F5EC44D201D2B201F07F01114321709DF804201201D2B203F00F03DE
:400AC000134363709DF8083003F00F03A3700020E07001E0012070475DF8044B704700BF10B502F0A1FB0A4B5B78182B0BD9084A1478013B5370E30003F1804303F5F04361
:400B00001B78137000E0FF2402F092FB204610BD1081FF1F10F0800F0CD111F4704F0BD1C00000F1804000F5F04001808270C37000207047012070470120704710F0800FDD
:400B400008D1C00000F1804000F5F0408180C280002070470120704701BE704710B5044605E0084B186802F057FBA4F50044B4F5004FF6D8034B586800FB04F002F04CFBBA
:400B800010BD00BF1881FF1F08B5034B1B7A03FB00F002F041FB08BD1881FF1F70B504460E46074B1D681F2802D90020FFF7D4FF04F01F04103455F8240045F8246070BD5B
:400BC00008ED00E038B504460D46072902D90020FFF7C2FF1F2C02D90020FFF7BDFF04F01F0000F1604000F564406D01EDB2057038BD00BF134B1B78DBB20360124A127882
:400C000043EA02230360114A127843EA024303600F4A127843EA026303600E4B1B78DBB243600D4A127843EA022343600B4A127843EA024343600A4A127843EA0263436074
:400C4000704700BF0301004904010049EC4600400201004901010049000100490501004906010049054A137843F0040313701032137843F004031370704700BFA2430040B5
:400C8000014B1870704700BF0B640040014B1870704700BF4B640040014B1870704700BF2B64004008B5074A137843F001031370FF20FFF7E5FFFF20FFF7E8FF7F20FFF70C
:400CC000EBFF08BD9B64004008B5044B1B7823B9FFF7E8FF0122014B1A7008BDFA87FF1FF8B502F0A1FA0546404A137843F0010313701032137843F00103137001273C4BC7
:400D00001F700226943B1E7002F5E2521B32137803F07F0313700020FFF736FF354C237803F0F9032370344A137803F0DF03137023783B4323703846FFF726FF2820FFF7D7
:400D400023FF2E4B1A7802F07F021A701A7802F0BF021A702378334323703046FFF714FF237843F0040323700023254A137001321370284602F05CFA17200721FFF722FFF8
:400D800017202049FFF70AFF18200721FFF71AFF18201D49FFF702FF15200721FFF712FF15201A49FFF7FAFE04200721FFF70AFF04201749FFF7F2FE05200721FFF702FFAD
:400DC00005201449FFF7EAFE06200721FFF7FAFE06201149FFF7E2FE0C200721FFF7F2FE0C200E49FFF7DAFEF8BD00BFA54300409D6000409443004012600040F85100404B
:400E000084600040351900001D1700003119000091180000C1180000F51800003D19000008B5214B18700023204A1370204A1370204A1370204A1370204A1370204A13707B
:400E4000204A1370204B4FF400021A604FF080721A604FF400121A6010221A6020221A6040221A6011B1012906D00BE0174A137803F0FE0313700AE0144A137843F0010383
:400E8000137004E0114A137803F0FE03137003220F4B1A708022203B1A70012002F0BCF904220C4B1A7008BD4789FF1F4689FF1FB888FF1FB988FF1FBA88FF1F4A89FF1F61
:400EC000BB88FF1FB788FF1F00E100E009600040286000401260004038B505460C46064B1B7823B9FFF7FCFE0122034B1A7028462146FFF795FF38BDFB87FF1F00230A4AB0
:400F000013700A4A13700A4A13700A4A13700A4A13700A4A13700A4A13700322094B1A708022203B1A7070474689FF1FB888FF1FB988FF1FBA88FF1F4A89FF1FBB88FF1F87
:400F4000B788FF1F28600040014B1878704700BFB988FF1F064B1B7813F0FF0F05D0044B1878C0B200221A7070470020704700BFB888FF1F00EB40008000024B184440781D
:400F8000704700BFD888FF1F431EDBB2072B0BD8064B00011A18185C00F00F00537843EA0020023880B2704700207047FC5F0040431EDBB2072B3BD8F0B4074600EB400344
:400FC0009B001C4C2344DB889BB2C3F500739A4207D900EB40039B002344DA88C2F5007292B200EB40039B00124C2344DB7843EA1223114D04012E192B55D3B2737039B92A
:4010000009E0CE5C3D010D4C665501339BB200E000239342F5D3430003449B00054A134400225A705A79D2B20001054B1A54F0BC704700BFD888FF1FFC5F0040786000400A
:40104000FE5F0040431EDBB2072B0BD8430003449B00054A134400225A705A79D2B20001024B1A54704700BFD888FF1FFE5F004070B5D9B1054614460E46C8B1082819D833
:40108000FFF782FFA04203D22846FFF77DFF0446002305E02901094A525CF25401339BB2A342F7D32846FFF7CDFF04E0002402E0002400E00024204670BD00BF7860004083
:4010C0000246002001E0013080B2135C002BFAD1704700BF10B4FF2400220EE00A4B9B5C03EB43039B0009490B449B78DBB2834201D1144602220132D2B2012AEED92046F2
:401100005DF8044B704700BFA488FF1FE088FF1F10B5204C2079FFF7DDFF237813F0800F0ED06378DBB2212B2FD11B4B07221A80C0EBC000194A1044586000F05DFB10BD52
:40114000144B5B78DBB2202B02D0222B10D01EE0114A07231380C0EBC00310490B4453600F4A135C43F00103135400F06DFB10BD084B9B780B4A22F81030094A135C43F0F2
:401180000203135400F0F8F910BD002010BD002010BD00BF00600040C888FF1F2881FF1FAC88FF1FB088FF1F10B500241F4B1C701F4B1C705C700AE01E4B185DC0B2431EC3
:4011C000DBB2072B01D8FFF73DFF0134E4B2012CF2D9194B1B7813F0FF0F1AD0154B1B7813F0FF0F17D0154B1B7813F0FF0F14D0114B1B78DBB2082B11D80E4B1B78DBB28C
:40120000082B0ED80D4B1B78DBB2082B0BD8002010BD012010BD012010BD012010BD012010BD012010BD012010BD00BFFC87FF1FAC88FF1FA088FF1F9C88FF1FA488FF1F02
:4012400070B506460D460E4B1B780E4AD45CE4B204EB44039B000C4A13441B899BB28B4208D204EB44039B0013441D89ADB20020FFF772FC204631462A46FFF799FE70BDD2
:40128000FC87FF1F9C88FF1FD888FF1F2DE9F8438046224B1B78224AD65CF6B2FFF710FF05460027344606EB46039B001D4A13441B899BB2AB4208D206EB46039B00134408
:4012C000B3F808901FFA89F900E0A946304608EB07014A46FFF76CFEC9EB0505ADB245B906EB46039B000F4A13441B899BB2994510D14F44BFB204EB44039B00094A134411
:401300005B7813F0FF0FF6D025B9304600210A46FFF74EFE002DC5D1BDE8F883FC87FF1F9C88FF1FD888FF1F08B5034B1B78034AD05CFFF71FFE08BDFC87FF1FA088FF1FE2
:4013400008B5034B1B78034AD05CFFF713FE08BDFC87FF1F9C88FF1F08B50146074B1B78074AD05CC0B200EB40039B00054A13441A8992B2FFF77CFE08BD00BFFC87FF1FE4
:40138000A088FF1FD888FF1F0A4B1B7813F0FF0F0CD1094B1B78094AD25C12F0FF0F07D0064AD05CC0B20021D154704700207047002070474689FF1FFC87FF1FAC88FF1FCB
:4013C000034B1A78034B33F8120080B2704700BFFC87FF1FB088FF1FC37803F0030390F9020000280FDA032B06D002F001030B48C15442F001020EE0C2F380030848C154F1
:4014000042F0040207E0032B05D0C2F340030548C15442F002021046704700BF9C88FF1FA488FF1FA088FF1F1C4B19781C4A13880B449BB2138000230EE01A4A5168097885
:40144000C9B21948C1545168013151600133DBB21188013989B21180124A128892B20AB1072BEAD90D4A1278D2B2082A00D05BB10E490A7882F080020A700F210C4A1170D4
:4014800002210C4A117004E0022209490A7009490A70094A1370014A13707047B788FF1F4489FF1FC888FF1F00600040BC88FF1FB688FF1F4689FF1FD488FF1F0222074B46
:4014C0001A708022064B1A700F22064B1A700023054A1370054A1370012070474689FF1FBC88FF1FB688FF1FB788FF1FD488FF1F08B5FFF799FF08BD10B4184B197801F0FF
:401500000F010239C9B2164A13880B449BB21380002010E0134B5C68134A125CD2B222705A6801325A600130C0B20139C9B21A88013A92B21A800B4B1B889BB20BB10029BB
:40154000E8D10A4B19700A4A137883F0800313700B22084B1A705DF8044B7047296000404489FF1FC888FF1F00600040D488FF1FBC88FF1FB688FF1F0623064A1370064AD1
:4015800013708022054B1A700022054B1A700120704700BF4689FF1FB688FF1FBC88FF1FD488FF1F064B9B6843B1054B9A6810709A6804490988518000229A60704700BF17
:4015C000C888FF1F4489FF1F08B5134B1A78D2B21A701B78DBB213F0800F02D00F4A137008BD0220FFF7DEFF0D4B1B7803F06003202B05D0402B06D043B900F089FC06E0C4
:4016000001F01AFE03E000F02BFE00E0002010B90322024B1A7008BD28600040B688FF1F0060004008B5084B1978084A13880B449BB213800022064B1A700120FFF7B2FFD5
:401640000322044B1A7008BDB788FF1F4489FF1F4689FF1FB688FF1F08B50B4B1B78DBB2042B06D0062B07D0022B0BD1FFF7DAFF08BDFFF741FF08BD0320FFF793FF03226E
:40168000024B1A7008BD00BF4689FF1FB688FF1F08B50022044B1A700120FFF783FF0322024B1A7008BD00BF4689FF1FB688FF1F08B50B4B1B7813F0FF0F07D0084A137801
:4016C00043F0800307490B70002313700022064B1A700120FFF766FF0322044B1A7008BD4A89FF1F086000404689FF1FB688FF1F08B5094B1B78DBB2042B06D0062B07D067
:40170000022B07D1FFF7F4FE08BDFFF7C1FF08BDFFF7CEFF08BD00BF4689FF1F08B5284B1B78DBB213F0100F48D013F0800F0CD003F00F03012B16D1FFF746FF214B1B78FE
:4017400013F0800F11D1012312E013F0400F03D0FFF7CEFF01230BE013F0200F07D0FFF77BFF012304E0002302E0002300E0002323B3134B1B7813F0800F1FD1124B1B7803
:40178000124A12781343124A13701278D2B29A4214D10C4B1B78DBB2094A127812F0800F07D1084B1B78DBB2054A1370137803F00F03044A1278D2B29342EAD108BD00BF3D
:4017C00028600040B688FF1FBC88FF1FD488FF1F296000400022064B1A80064B9B682BB1044A916800230B7092685380704700BF4489FF1FC888FF1F08B50F4B1B889BB25B
:4018000013B9FFF75BFE15E002220C4B1A7000220B4B1A70FFF7DEFF0A4AD179937943EA0123054A128892B29A4201D9024A1380FFF7FAFD012008BDC888FF1F4689FF1FD3
:40184000BC88FF1F0060004008B504220B4B1A7080220B4B1A70FFF7BDFF0A4AD179937943EA0123084A128892B29A4201D9064A13800B22054B1A70012008BD4689FF1FD1
:40188000BC88FF1F00600040C888FF1FB688FF1F0122094B1A700F3B9B7C084B1B7B03F00303934204D0054AD37B83F08003D3730122024B5A7370470B600040D888FF1F79
:4018C00002220A4B1A700F3B93F82230084B1B7E03F00303012B04D0054AD37E83F08003D3760122024B5A76704700BF0B600040D888FF1F04220C4B1A700F3B93F83230DD
:401900000A4B93F8243003F00303012B06D0074A92F8273083F0800382F827300122034B83F82520704700BF0B600040D888FF1F704700BF08B5FFF7E1FA08BD08B500F039
:401940009BFC08BD70B588B0054603AC174E0FCE0FC43368237035B322232B7003236B7001A8FFF747F9002402231AE008AA224412F81C2C08A901EB121111F8141CE954E6
:40198000581C00212954981C02F00F0208AE324412F8142C2A54DA1CA9540134E4B20433DBB2212BE2D908B070BD00BF2C3C000010B401223DE0114613010C242148C454B5
:4019C00002EB42039B00204803445B7913F0FF0F12D002EB42039B0003441B7913F0800F04D01001194B03449C700AE01001174B03440820987004E01001144B03448020BF
:401A000098704B000B449B000F480344DC88E4B208010C4901448C71D888C0F30720C871D888C0B20871DB88C3F307234B710132D2B2082ABFD9FF22054B1A705DF8044B54
:401A4000704700BF70600040D888FF1FFC5F00400A600040074B1B78074A02EBC30253681A7C824203D903EBC003586970470020704700BF4789FF1F804E0000F8B5404B91
:401A80001B7813F0FF0F79D03D4B18780138C0B2FFF7E0FF047AC2683A4B1878C0B200236AE01178814264D13749095CC9B25578A9425ED1917801F07F01D67806F0030676
:401AC000DFF8C8E04D000D44AD000EEB05074FF0000C87F803C092F802C087F804C092F803C00EF805C095883D8192F90250002D0DDA012E01D1072700E00D274D000D4436
:401B0000AD00224E35446F7101266E700CE0012E01D1052700E009274D000D44AD001B4E35446F7100266E70DFF868E00F010EEB07060125B57001FA05F529448900134D25
:401B400029440D89C5F307250EF807500D89EDB27570CE88F6B20E4D3D44AE71CE88C6F30726EE71CE88F6B22E71C988C1F30721697108320133DBB2A34292D3F8BD00BF16
:401B8000B988FF1FBA88FF1FC488FF1FD888FF1F70600040FC5F0040034B1A78034B03EBC2035868704700BF4789FF1F804E000008B5074B18780138C0B2FFF74BFF28B19D
:401BC0004268127900EBC203586908BD002008BDB988FF1F2DE9F84300220EE06F4E53009D18AD00741900217155A170E1702181A172617061710132D2B2082AEED940B98C
:401C00000AE000226649CA546649CA540133DBB200E00023012BF4D9634B1B7813F0FF0F00F0B980604B18780138C0B2FFF712FF80464368DB7913F0400F05D05B4A1378BD
:401C400043F00103137004E0584A137803F0FE03137098F808704FF0000901266CE0D8F80C50002464E0AB7803F07F039E425CD1314606EB46039B00484803441B899BB212
:401C8000A888834205D206EB46039B00434A134418812B784248C35CDBB26878834244D195F802C03D484B000B449B0000EB030E8EF804C095F803E000F803E0EB7803F083
:401CC000030395F90200002811DA012B02D14FF0070C01E04FF00D0CDFF8C0E04B0058188000704480F805C00123437012E0012B02D14FF0050C01E04FF0090C27484FEA19
:401D0000410E0EEB01039B00034483F805C0194600234B70AB790A2B01D0022B05D1284631464A46FFF758FB814608350134E4B2BC4298D30136F6B2082E90D9D8F80C007B
:401D400000220CE0837803F07F0310F8084B03EB43039B0016490B449C700132D2B2BA42F0D3FFF725FF134B1860002301210EE00A4C4A00501880002044C3800289134457
:401D80009BB203F0010213449BB20131C9B20829EED9FFF70DFEBDE8F88300BFD888FF1FC488FF1FB488FF1FB988FF1FBB88FF1FE088FF1FC088FF1F08B5154B1A7902F027
:401DC0007F02531EDBB2072B20D8530013449B0010490B44997841F0010199700021D970597841F0020159701B7913F0800F05D01201094B13448D229A7004E01201064B0E
:401E0000134489229A70FFF7B7FB08BD002008BD00600040D888FF1FFC5F0040264B1B7903F07F035A1ED2B2072A43D810B55A001A44920021490A44917801F0FE01917008
:401E40000021D17019017F241D484454517801F0FD015170127912F0800F14D003EB4302920016490A445278D2B2012A05D11B0102461A440C23937019E01B01104A1A444B
:401E80000D23937013E003EB430292000B490A445278D2B2012A05D11B01094A1A440823937004E01B01064A1A4409239370FFF763FB10BD0020704700600040D888FF1F58
:401EC000FC5F004010B50E4B1C79E4B20D4B18780138C0B2FFF7BEFD43681B799C4201D9022C0AD8084A135DDBB208490B55044B9B78DBB21355012010BD002010BD00BFC2
:401F000000600040B988FF1FC488FF1FB488FF1F10B59B4B1B78DBB200219A4A118013F0800F00F0AD80964A5278D2B20A2A00F27281DFE812F06900700170017001700191
:401F400070010B007001920070019A008C4BDB78DBB2012B09D1FFF71FFE4268894B5A6012221A80FFF748FC10BD854BDB78DBB2022B13D1824B9878FFF76CFD002800F0E5
:401F80004C8142687F4B5A605A68D1785A68927842EA01221A80FFF72FFC10BD784BDB78DBB2032B05D02CE00A7811440133DBB201E000237449724A9278D2B29A4203D96B
:401FC0000A7812F0FF0FEFD16D4B9B7813F0FF0F0BD06B4B9B78DBB26C4A127C934204D16B4C2046FFF7AEFC21460B7813F0FF0F00F015810B78634A13805160FFF7FCFBF5
:4020000010BD01F019F910BD13F0030317D0022B40F007815B490B80594B1B7903F07F0303EB43039B005B4A13449A78D2B25A4B1A7000225A704B60FFF7DEFB10BD5149F5
:4020400002230B80554B1A78D2B2534B1A7000225A704B60FFF7D0FB10BD4A4B01221A804F4A5A60FFF7C8FB10BD464A01231380434B1B794B490B445360FFF7BDFB10BD08
:402080003F4A5278013A0A2A00F2CD80DFE812F04B00CB009600CB000B00CB00CB00CB001300CB003000364B9B78DBB23E4A1370FFF762FA10BD324B9B7803F0FF041BB1C8
:4020C000601EC0B2FFF7C6FC04B110B9002C40F0AC80334B1B78DBB29C4206D0304B1C700120324B1870FFF775FDFFF745FA10BDFFF7E8FE002800F09A80214A1379DBB2B7
:402100001279D2B22A490A702A4AD25C2549C95CD3B28B4204D00122244B1A70FFF7AEFCFFF72AFA10BD03F00303012B17D04BB1022B7ED1124B9B7813F0FF0F7BD1FFF75E
:402140006DFE10BD0E4B9B78DBB2012B75D1134A137803F0FD031370FFF70EFA10BD084B1B79DBB2012B6AD8054B98781B79DBB21149CA5C22EA0002CA54FFF7FDF910BDCB
:4021800000600040C888FF1FE84E0000CC4F00004C91FF1FD888FF1F0088FF1FBB88FF1FB988FF1FC488FF1F4A89FF1FB888FF1FBA88FF1FB488FF1F4889FF1F03F0030386
:4021C000012B17D04BB1022B3BD1224B9B7813F0FF0F38D1FFF7F0FD10BD1E4B9B78DBB2012B32D11C4A137843F002031370FFF7C3F910BD174B1B79DBB2012B27D8154BDC
:4022000098781B79DBB21549CA5C22EA0002CA54FFF7B2F910BD002010BD002010BD002010BD002010BD002010BD002010BD002010BD002010BD002010BD002010BD0020ED
:4022400010BD002010BD002010BD002010BD002010BD00BF00600040BB88FF1F4889FF1F044B1B7813F0800F01D0024B5B780020704700BF00600040024B1878C0F3801073
:40228000704700BF8F45004010B50B4C237803F09F032370237803F0F00323702378184340F0100020700120FEF76EFC237803F0EF03237010BD00BF2051004038B50546D3
:4022C0000E4C237843F020032370237803F0BF0323700020FEF758FC237803F0F003237023781D4345F0100525700120FEF74CFC237803F0EF03237038BD00BF20510040F0
:4023000070B5354B1A7802F08002D2B21A7033490A7802F0F00242F00F020A7001310A7802F0F0020A7001310A7802F0F0020A701A7802F0DF021A701A7842F040021A70A2
:402340004FF4CA760020FEF71FFC234D2B7843F010032B700120FEF717FC214B1C78E4B22B7803F0EF032B700020FEF70DFC04F00804E4B22B7843F010032B700120FEF786
:4023800003FC2B7803F0EF032B7014B90A20FEF7FBFB013E0CB1002ED4D10F4A137803F0BF031370137803F08003DBB213700232137803F0F00313700132137803F0F00351
:4023C00043F00F0313700132137803F0F00343F00F03137070BD00BF20510040225100402151004010B50446FFF78AFF2009FFF765FF04F00F00FFF761FF10BD38B5054638
:402400000078012404E0FFF7EDFF285D0134E4B20028F8D138BD00BF08B5FFF7E3FF08BD10B50446FFF76CFF2009FFF72DFF04F00F00FFF729FF10BD08B52820FEF78EFBBE
:402440000320FFF721FF0520FEF788FB0320FFF71BFF0F20FEF782FB0320FFF715FF0120FEF77CFB0220FFF70FFF0520FEF776FB0620FFF7D5FF0E20FFF7D2FF2C20FFF720
:40248000CFFF0820FFF7CCFF0120FFF7C9FF0C20FFF7C6FF0320FFF7C3FF0520FEF75EFB08BD00BF08B50C20FFF7BAFF0122014B1A7008BD0488FF1F08B5054B5B7823B911
:4024C000FFF7BAFF0122024B5A70FFF7EBFF08BD0488FF1F08B5032819D8DFE800F002070D1381F08000FFF79BFF08BDA1F14000C0B2FFF795FF08BDA1F16C00C0B2FFF7AC
:402500008FFF08BDA1F12C00C0B2FFF789FF08BD38B504460309054DE85CFFF77DFF04F00F04285DFFF778FF38BD00BF403C000010B50446000AFFF7EBFFE0B2FFF7E8FFF9
:4025400010BD00BF014B1870704700BF06640040014B1870704700BF46640040014B1870704700BF2664004008B5074A137843F001031370FA20FFF7E5FFFA20FFF7E8FF55
:402580007820FFF7EBFF08BD9664004008B5044B1B7823B9FFF7E8FF0122014B1A7008BD0688FF1F044A137843F0200313703D22024B1A70704700BF926400407264004038
:4025C0000B4A13889BB243F4807343F00103138013889BB223F4807323F001039BB2138013889BB243F4007343F00203138070479665004008B5FFF7D5FFFFF7E1FF08BD50
:4026000010B40024094B1C70890001EBC010811C89B2D13319801A8021331B7813F0FF0F0CBF012020465DF8044B70477564004010B514460122134B1A70890001EBC01051
:4026400000F54050023080B2D13318804FF6FF721A8000220C4B1A700B4B1B7813F0FF0FFAD0012000F054F8084B1B882380002000F04EF8064B1B7813F0FF0F0CBF012091
:40268000002010BD756400400888FF1F0665004067650040024A137843F00103137070470888FF1F014B1B68D864704708ED00E04001C0B2014B1870704700BF03E400E05E
:4026C0000822014B1A60704700E100E00822014B1A60704780E100E008B5FFF7F7FF0448FFF7E0FF0720FFF7E3FFFFF7E9FF08BD95260000054A137843F00203137010328C
:40270000137843F002031370704700BFA2430040044A137803F0FB03800000F0040018431070704760510040014B1B689864704708ED00E04001C0B2014B1870704700BFA3
:4027400002E400E00422014B1A60704700E100E00422014B1A60704780E100E010B50446FFF7F6FF2046FFF7DFFF0720FFF7E2FFFFF7E8FF10BD00BF014B1B6818647047AE
:4027800008ED00E04001C0B2014B1870704700BF00E400E00122014B1A60704700E100E00122014B1A60704780E100E010B50446FFF7F6FF2046FFF7DFFF0720FFF7E2FF0F
:4027C000FFF7E8FF10BD00BF014B1B685864704708ED00E04001C0B2014B1870704700BF01E400E00222014B1A60704700E100E00222014B1A60704780E100E010B5044644
:40280000FFF7F6FF2046FFF7DFFF0720FFF7E2FFFFF7E8FF10BD00BF10B51E4C60782178FEF71EF960792179FEF71AF9607A217AFEF716F9E07C217BFEF712F9607D217DF9
:40284000FEF70EF9607E217EFEF70AF9607F217FFEF706F994F8220094F82010FEF700F994F8250094F82410FEF7FAF894F8290094F82810FEF7F4F8002408E0054B2344A7
:4028800093F82C000121FEF7A3F80134E4B2092CF4D910BD0C88FF1F38B500232CE01846D54A52F82320D54901EB83018A63D4498A4206D992B2D14901EB830142F00052A8
:4028C0008A635908CD4A02EB8000806B02EB81018866581CC84951F8201002EB80029163C74A914206D989B2C44A02EB800041F0005181630233DBB20B2BD0D90220012199
:4029000041F6FF724FF4804300F08CFBBB4C60700220012141F6FF724FF4804300F0A0FB6071637884F82C3084F82D00FEF7D8F82070FEF7D5F82071227810460C21012308
:40294000FEF7E8F8227910460C210123FEF7E2F8AC4D2078A9B246F68802FEF7EFF805F10C01207989B246F6A802FEF7E7F80220002141F6FF724FF4804300F033FB607271
:4029800084F82E00FEF7ACF80246207208210523FEF7C0F8207A002146F69202FEF7CEF80220012100224FF4804300F097FB607584F82F00FEF794F8024620750221812323
:4029C000FEF7A8F8207D002146F69422FEF7B6F8022001214FF4804241F6FF7300F05EFB607684F83000FEF77BF80246207602218623FEF78FF8207E46F6B4210022FEF7DE
:402A00009DF8042000210A4641F6FF7300F084FB60770120002141F6FF724FF4804300F09BFB84F82200637F84F8313084F83200FEF756F82077FEF753F884F82000FEF751
:402A40004FF884F82100227F104604210723FEF761F894F82000022194F821202323FEF759F894F82100012194F820200023FEF751F804F18005ADB2207F00212A46FEF7BC
:402A80005DF894F82000294646F23A52FEF756F8A91C94F8210089B246F27B52FEF74EF8022001214FF48042134600F07DFAE07484F83300002406E0FEF712F84F4B23449C
:402AC00018730134E4B2062CF6D94C4C207B0221627B2023FEF71EF8607B0221A27B0423FEF718F8A07B0221E27B2023FEF712F8E07B0221227C0423FEF70CF8207C0221DF
:402B0000627C0423FEF706F8607C0221A27C0423FEF700F8A07C0221227B0423FDF7FAFF227AD200207B46F6120102F5F0420432FEF704F8607B46F6080146F63202FDF750
:402B4000FDFF227DD200A07B46F6120102F5F0420432FDF7F3FF227ED200E07B46F6120102F5F0420632FDF7E9FF627DD200207C46F6120102F5EC420432FDF7DFFF227F76
:402B8000D200607C46F6120102F5F0420432FDF7D5FF627FD200A07C46F6120102F5EC420432FDF7CBFF0220002141F6FF72134600F0F2FA84F82500FDF792FF84F82400D4
:402BC000022000214FF4804241F6FF7300F004FB84F82900FDF784FF84F828000221FF228523FDF797FF94F8253084F8343094F8293084F8353038BD503C00000C88FF1F05
:402C0000FFFFFE1F4481FF1F38B50546FF2404E0013CE4B20120FDF7B7FF054B1B782B4201D1002CF4D10CB1002038BD102038BD67640040024A137843F00203137070475B
:402C40007964004008B500F0EFFA084A137843F02003137000F0ECFAFFF7DEFDFFF7EAFF034A137843F00103137008BD9B64004079640040054A92F8843040EA431343F46E
:402C8000404303490B8082F8850070470C88FF1F546A004000F01F00054A92F8853043EA401343F4404303490B8082F8840070470C88FF1F546A004008B50420FFF7EAFF81
:402CC00008BD00BF08B50120FFF7D4FFFFF7F4FF00F0AAFA144A137843F0010313700132137843F00103137000F0A2FA1E220F4B1A70082203F2E7331A800D4A02F1380309
:402D00009BB20C490B803F210B4B197038210733197092F886302BB9FFF7BEFD0122044B83F8862008BD00BF9A6500408B6400400C88FF1F526800407164004008B5064BE2
:402D400093F887302BB9FFF7BDFF0122024B83F88720FFF777FF08BD0C88FF1F014B188880B27047286800402DE9F8430646884617460024012046E02146264B33F81430E7
:402D8000B3423ED8234A02EB44029289B24238D33825E54015F0010501D17F00BFB2921B013297422DD8F31A9BB21DB15B009BB27F00BFB2DFF8649009EB81018D6E1D44E4
:402DC000022000212A0C41F6FF7300F0E5F989F8250099F824003946FF228723FDF79AFE99F82400A9B21FFA88F2FDF7A7FE0A4B1B7899F825000121FDF73EFE0120FFF76F
:402E000003FF0134E4B2052C01D80028B4D1BDE8F88300BF4481FF1F676400400C88FF1F2DE9F8430646884617460024012046E02146264B33F81430B3423ED8234A02EBB0
:402E400044029289B24238D33825E54015F0010501D17F00BFB2921B013297422DD8F31A9BB21DB15B009BB27F00BFB2DFF8649009EB81018D6E1D440220002141F6FF729D
:402E80002B0C00F089F989F8250099F824003946FF228723FDF73EFE99F824001FFA88F1AAB2FDF74BFE0A4B1B7899F825000121FDF7E2FD0120FFF7A7FE0134E4B2052C69
:402EC00001D80028B4D1BDE8F88300BF4481FF1F676400400C88FF1F2DE9F843064688460127002438464FE021462A4B33F81430B34247D8274A02EB44029289B24241D343
:402F00003825E54015F0010500D10227921B0132974237D8F31A9BB20DB15B009BB2DFF8849009EB81018D6E1D441B4BA3F800800220002141F6FF724FF4804300F02CF93E
:402F400089F82500ADB299F82400294646F60E02FDF7F4FD99F8280046F60E012A46FDF7EDFD99F824000221FF228523FDF7D2FD0A4B1B780A4A137883F00403137002205B
:402F8000FFF742FE0134E4B2052C01D80028ABD1BDE8F8834481FF1F2E68004067640040796400400C88FF1FF0B583B086460F4616461D460A4C0023237000930193184666
:402FC00071463A46FDF768FD207831462A46FDF72DFD20780221FDF717FD207803B0F0BD5C87FF1FF0B583B086460F4616461D460B4C0623237000220092019218467146C1
:403000003A46FDF749FD207831462A46FDF70EFD20780221FDF7F8FC207803B0F0BD00BF5D87FF1FF0B583B086460F4616461D460A4C0820207000230093019371463A46B5
:40304000FDF72AFD207831462A46FDF7EFFC20780221FDF7D9FC207803B0F0BD5E87FF1FF0B583B086460F4616461D460A4C0320207000230093019371463A46FDF70CFD19
:40308000207831462A46FDF7D1FC20780221FDF7BBFC207803B0F0BD5F87FF1FF0B583B086460F4616461D460B4C09232370002200920192184671463A46FDF7EDFC20784F
:4030C00031462A46FDF7B2FC20780221FDF79CFC207803B0F0BD00BF6087FF1FF0B583B086460F4616461D460A4C0720207000230093019371463A46FDF7CEFC2078314631
:403100002A46FDF793FC20780221FDF77DFC207803B0F0BD6187FF1FF0B583B086460F4616461D460B4C01232370002200920192184671463A46FDF7AFFC207831462A46B6
:40314000FDF774FC20780221FDF75EFC207803B0F0BD00BF6287FF1FF0B583B084468E4617461E460B4C02252570002300930193284661467246FDF78FFC207839463246B5
:40318000FDF754FC20782946FDF73EFC207803B0F0BD00BF6387FF1FF0B583B086460F4616461D460B4C04232370002200920192184671463A46FDF76FFC207831462A4654
:4031C000FDF734FC20780221FDF71EFC207803B0F0BD00BF6487FF1FF0B583B086460F4616461D460B4C05232370002200920192184671463A46FDF74FFC207831462A46BE
:40320000FDF714FC20780221FDF7FEFB207803B0F0BD00BF6587FF1F0230800803D000BF01380046FCD17047EFF3108072B6704780F31088704700BF08B5124B1B7803F060
:403240000303012B02D0022B04D00FE00D4B1B79DBB20CE00B4B1B7903F07F0303EB43039B00094A13449B78DBB200E00023074A1268D35C022B02D1FDF74AFF08BD00205E
:4032800008BD00BF00600040E088FF1FC088FF1F014B1868704700BFC887FF1F0E4B70B51E460E4C0025E41AA410A54204D056F8253098470135F8E701F0AEFE084B094CA5
:4032C0001E46E41AA4100025A54204D056F8253098470135F8E770BD2450000024500000245000002C50000010B5431E0A44914204D011F8014B03F8014FF8E710BD03468C
:403300000244934202D003F8011BFAE7704700000EB400B54FF402719CB0ADF814106FF00041049107914FF6FF711DABADF81610084953F8042B02900690086802A90193F8
:4033400000F064F8029B00221A701CB05DF804EB03B07047C887FF1F2DE9F0478E688246B3420C469046994640D38A8912F4906F3AD02568096902236F1A656905EB4505E0
:4033800095FBF3F57B1C4B449D4238BF1D4653050FD5294600F030FB064698B121693A46FFF7A2FFA38923F4906343F08003A38113E02A4600F076FB064670B950462169D1
:4033C00000F0D6FA0C23CAF80030A3894FF0FF3043F04003A381BDE8F08726613E4426604E466561ED1BA560B14500D24E4632462068414600F0A0FAA36800209B1BA36055
:4034000023681E442660BDE8F08700002DE9F0439DB003938B8906461C060D4690460CD50B6953B9402100F0E7FA2860286110B90C233360CCE040236B610023099320231A
:403440008DF8293030238DF82A3043461C4613F8012B1AB9B4EB08090FD002E0252AF5D1F8E73046294642464B46FFF775FF013000F0A980099B4B4409932378002B00F0AB
:40348000A28000234FF0FF3204930793059206938DF853301A9304F101084446DFF8489121784846052200F039FA08F10108049B30B1C9EB00000122824013430493ECE7BD
:4034C000D80644BF20228DF85320190744BF2B228DF8532022782A2A02D0079923460EE0039A0134111D12680391002ABBBF524243F0020307920792B8BF04930AE01C4688
:4035000022780133303A092A03D80A2000FB0121F5E7079123782E2B1AD163782A2B0AD1039B02341A1D1B680392002BB8BF4FF0FF3305930CE0611C00220C462378013128
:40354000303B092B03D80A2000FB0232F5E70592DFF8988021784046032200F0DFF938B1049AC8EB00004023834013430493013421781A48062204F101088DF8281000F0BA
:40358000CDF988B1164B33B9039B073323F007030833039313E003AB0093304604A92A46104BAFF3008007E003AB0093304604A92A460C4B00F092F8421C074603D0099B07
:4035C0003B44099341E7AB895B0601D4099801E04FF0FF301DB0BDE8F08300BFEC4F00000000000059330000E24F0000E84F00002DE9F84391461F468A680B690646934247
:40360000B8BF1346C9F8003091F843200C46DDF8208012B10133C9F800302368990642BFD9F800300233C9F80030256815F006051CD094F843302268003318BF0123920604
:403640001FD5E118302081F843005A1C94F845102244023382F8431013E03046394604F119020123C047013007D00135E368D9F800209B1A9D42F0DBDBE74FF0FF30BDE8C1
:40368000F8833046394604F14302C0470130F4D02268D9F80050E36802F00602042A08BF5D1B2269A3680CBF25EAE57500259342C4BF9B1AED184FF00009A9450ADA304676
:4036C000394604F11A020123C0470130D5D009F10109F2E70020BDE8F88300002DE9FF410C461746227E98466E2A06460A9B01F1430100F0B08012D8632A23D00AD8002A44
:4037000000F0BD80582A40F0CC8084F84520DFF804E257E0642A1ED0692A1CD0C1E0732A00F0B18009D86F2A2ED0702A40F0B980226842F0200222603FE0752A24D0782A00
:403740003BD0AEE01A6804F14205111D1960136884F84230A9E020681A6810F0800F02D0101D186008E010F0400F02F10400186002D0B2F9003000E01368002B3EDA2D2209
:403780005B4284F8432039E020681A6810F0800F02D0101D186007E010F0400F02F10400186001D0138800E01368227EDFF864E16F2A0CBF08220A221CE07822DFF858E1DC
:4037C00084F845202268186812F0800F00F104051D6003D1550601D5038800E00368D00744BF42F0200222601BB9226822F0200222601022002084F8430002E0DFF814E178
:403800000A226568002DA8BF2068A560A4BF20F00400206003B965B10D46B3FBF2F002FB10331EF8033005F8013D03460028F4D100E00D46082A0BD12368DA0708D52369B2
:4038400062689A42DEBF302305F8013C05F1FF35491B21612EE025681A6815F0800F606903D0151D1D60136808E015F0400F02F104051D60136801D0188000E018600023DD
:4038800023610D4616E01A68111D1960156800212846626800F042F808B1401B6060636804E004F1420584F8422001232361002384F84330CDF800803046214603AA3B466B
:4038C000FFF796FE013002D14FF0FF301FE0304639462A462369C0470130F5D023689B0705D4E068039B9842B8BF18460FE00025E368039A9B1A9D42F3DA3046394604F1FD
:4039000019020123C0470130DED00135F0E704B0BDE8F081F34F00000450000010B5C9B202449042034605D01C7801308C42F8D1184610BD002010BD814210B501EB020392
:4039400001D3421E0BE09842FBD28118D21AD34204D013F8014D01F8014DF8E710BD994204D011F8014B02F8014FF8E710BD000030B500293CD051F8042C0B1F1D49002A80
:40398000B8BF9B180A680C4612B95A600B6030BD93420DD219685818904201BF5A5852181A60426823605A6030BD994203D80A4651680029F9D1146815199D420AD11B6802
:4039C0002344D0188842136012D10868034413604B680CE002D90C23036030BD1C681819884201BF08684968001918605960536030BD00BF9888FF1F70B5CC1C24F00304C6
:403A000008340C2C38BF0C24002C064603DA0C233360002070BD8C42F9D3204A136810461946A1B10A68121B0ED40B2A03D90A608B188C501FE08B420BBF5A684A6802601A
:403A40005A6018BF0B4616E00B464968E9E7144D2B681BB9304600F04BF828603046214600F046F8421C0346D1D0C51C25F0030585420AD11C6003F10B001A1D20F00700E7
:403A8000821A0AD05142995070BD3046E91A00F02FF80130BBD02B46ECE770BD9888FF1F9488FF1FF8B5074615460E4621B91146BDE8F840FFF7A0BF1AB9FFF759FF284617
:403AC000F8BD00F025F8A8420ED238462946FFF793FF044650B131462A46FFF705FC38463146FFF745FF01E03046F8BD2046F8BD38B5064C0023054608462360FCF756FC83
:403B0000431C02D1236803B12B6038BD7091FF1F51F8040C0028BEBF091851F8043CC0180438704700000000413A303030302020543A284E2F412900523A3030303000009E
:403B4000524F292000000000434F522900000000522F5729000000004E2F412900000000534554204D44494F20616464726573733A203078383030300A0D0000534554203E
:403B80004D44494F20616464726573733A203078383230310A0D000052656164204D44494F3A00003078253034580A0D00000000756E6B6E6F776E206461746120286F6E64
:403BC0006C79202771272C2027772720696D706C656D656E746564290A0D00000D0A48656C6C6F2066726F6D2043797072657373210D0A004051004020000000014000109A
:403C000000140140000800400140000A004C0140000200500140200010510140940E00480600605200409C0E0048060030313233343536373839414243444546000000003E
:403C4000303132333435363738394142434445464C8FFF1F804600004C8EFF1F804200004C8DFF1F803E00004C89FF1F803C00004C8AFF1F5C83FF1F4C8CFF1F5C81FF1FE3
:403C800000000800FF000200FF000200FF000200FF000200FF000200FF000200FF000200FF000200FF000200FF000200FF000200FF000200FF000200FF000200FF000200ED
:403CC000FF000200FF000200FF000200FF000200FF000200FF000200FF000200FF000200FF000200FF000200FF000200FF000200FF000200FF000200FF000200FF000200B4
:403D0000FF000200FF000200FF000200FF000200FF000200FF000200FF000200FF000200FF000200FF000200FF000200FF000200FF000200FF000200FF000200FF00020073
:403D4000FF000200FF000200FF000200FF000200FF000200FF000200FF000200FF000200FF000200FF000200FF000200FF000200FF000200FF000200FF000200FF00020033
:403D8000FF000200FF000200FF000200FF000200FF000200FF000200FF000200FF000200FF000200FF000200FF000200FF000200FF000200FF000200FF000200FF000200F3
:403DC000FF000200FF000200FF000200FF000200FF000200FF000200FF000200FF000200FF000200FF000200FF000200FF000200FF000200FF000200FF000200FF000200B3
:403E0000FF000200FF000200FF000200FF000200FF000200FF000200FF000200FF000200FF000200FF000200FF000200FF000200FF000200FF000200FF000200FF00020072
:403E4000FF000200FF000200FF000200FF000200FF000200FF000200FF000200FF000200FF000200FF000200FF000200FF000200FF000200FF000200FF000200FF00020032
:403E8000FFFF0200FFFF0200FFFF0200FFFF0200FFFF0200FFFF0200FFFF0200FFFF0200FFFF0200FFFF0200FFFF0200FFFF0200FFFF0200FFFF0200FFFF0200FFFF020002
:403EC000FFFF0200FFFF0200FFFF0200FFFF0200FFFF0200FFFF0200FFFF0200FFFF0200FFFF0200FFFF0200FFFF0200FFFF0200FFFF0200FFFF0200FFFF0200FFFF0200C2
:403F0000FFFF0200FFFF0200FFFF0200FFFF0200FFFF0200FFFF0200FFFF0200FFFF0200FFFF0200FFFF0200FFFF0200FFFF0200FFFF0200FFFF0200FFFF0200FFFF020081
:403F4000FFFF0200FFFF0200FFFF0200FFFF0200FFFF0200FFFF0200FFFF0200FFFF0200FFFF0200FFFF0200FFFF0200FFFF0200FFFF0200FFFF0200FFFF0200FFFF020041
:403F8000FFFF0200FFFF0200FFFF0200FFFF0200FFFF0200FFFF0200FFFF0200FFFF0200FFFF0200FFFF0200FFFF0200FFFF0200FFFF0200FFFF0200FFFF0200FFFF020001
:403FC000FFFF0200FFFF0200FFFF0200FFFF0200FFFF0200FFFF0200FFFF0200FFFF0200FFFF0200FFFF0200FFFF0200FFFF0200FFFF0200FFFF0200FFFF0200FFFF0200C1
:40400000FFFF0200FFFF0200FFFF0200FFFF0200FFFF0200FFFF0200FFFF0200FFFF0200FFFF0200FFFF0200FFFF0200FFFF0200FFFF0200FFFF0200FFFF0200FFFF020080
:40404000FFFF0200FFFF0200FFFF0200FFFF0200FFFF0200FFFF0200FFFF0200FFFF0200FFFF0200FFFF0200FFFF0200FFFF0200FFFF0200FFFF0200FFFF0200FFFF020040
:40408000FFFF0200FFFF0200FFFF0200FFFF0200FFFF0200FFFF0200FFFF0200FFFF0200FFFF0200FFFF0200FFFF0200FFFF0200FFFF0200FFFF0200FFFF0200FFFF020000
:4040C000FFFF0200FFFF0200FFFF0200FFFF0200FFFF0200FFFF0200FFFF0200FFFF0200FFFF0200FFFF0200FFFF0200FFFF0200FFFF0200FFFF0200FFFF0200FFFF0200C0
:40410000FFFF0200FFFF0200FFFF0200FFFF0200FFFF0200FFFF0200FFFF0200FFFF0200FFFF0200FFFF0200FFFF0200FFFF0200FFFF0200FFFF0200FFFF0200FFFF02007F
:40414000FFFF0200FFFF0200FFFF0200FFFF0200FFFF0200FFFF0200FFFF0200FFFF0200FFFF0200FFFF0200FFFF0200FFFF0200FFFF0200FFFF0200FFFF0200FFFF02003F
:40418000FFFF0200FFFF0200FFFF0200FFFF0200FFFF0200FFFF0200FFFF0200FFFF0200FFFF0200FFFF0200FFFF0200FFFF0200FFFF0200FFFF0200FFFF0200FFFF0200FF
:4041C000FFFF0200FFFF0200FFFF0200FFFF0200FFFF0200FFFF0200FFFF0200FFFF0200FFFF0200FFFF0200FFFF0200FFFF0200FFFF0200FFFF0200FFFF0200FFFF0200BF
:40420000FFFF0200FFFF0200FFFF0200FFFF0200FFFF0200FFFF0200FFFF0200FFFF0200FFFF0200FFFF0200FFFF0200FFFF0200FFFF0200FFFF0200FFFF0200FFFF02007E
:40424000FFFF0200FFFF0200FFFF0200FFFF0200FFFF0200FFFF0200FFFF0200FFFF0200FFFF0200FFFF0200FFFF0200FFFF0200FFFF0200FFFF0200FFFF020000FF02003D
:4042800000000000000000000000000000000000000000000000000000000000000000000000000000000000000000000000000000000000000000000000000000000000FE
:4042C00000000000000000000000000000000000000000000000000000000000000000000000000000000000000000000000000000000000000000000000000000000000BE
:40430000000000000000000000000000000000000000000000000000000000000000000000000000000000000000000000000000000000000000000000000000000000007D
:40434000000000000000000000000000000000000000000000000000000000000000000000000000000000000000000000000000000000000000000000000000000000003D
:404E800001000000884E000001000000CC4F0000000000000000000001000000A04E000001000000884F000003000000CC4E0000000000000000000000000000000000001B
:404EC00000000000C84E0000020A000000008103080002000100820240000A000100030240000A0002030000040309042C034300790070007200650073007300200053003F
:404F000065006D00690063006F006E0064007500630074006F007200100355005300420055004100520054003803430044004300200043006F006D006D0075006E0069002F
:404F400063006100740069006F006E00200049006E007400650072006600610063006500260343004400430020004400610074006100200049006E007400650072006600ED
:404F80006100630065000000090243000201018032090400000102020103052400100104240202052406000105240100010705810308000A09040100020A0000040705829F
:404FC0000240000007050302400000001201000202000008B40432F201000102800100004300232D302B2000686C4C00656667454647003031323334353637383941424399
:40500000444546003031323334353637383961626364656600000000F8B500BFF8BC08BC9E4670474D00000029040000F8B500BFF8BC08BC9E4670472900000050500000FE
:405040000881FF1FC8060000A809000000000000000000007891FF1F7F800000FF0300000000E02EC05D00001800000000366E0100C2010000000800C20100000008000064
:40508000A1200000000002000000000000800084008800A000A200A4FF81FF84FF887FA0FFA27FA4FFFF0200FFFF0200FFFF0200FFFF0200FFFF0200FFFF0200FFFF02004E
:4050C000FFFF0200FFFF0200FFFF0200FFFF0200FFFF0200FFFF0200FFFF0200FFFF0200FFFF0200FFFF0200FFFF0200FFFF0200FFFF0200FFFF0200FFFF0200FFFF0200B0
:40510000FFFF0200FFFF0200FFFF0200FFFF0200FFFF0200FFFF0200FFFF0200FFFF0200FFFF0200FFFF0200FFFF0200FFFF0200FFFF0200FFFF0200FFFF0200FFFF02006F
:40514000FFFF0200FFFF0200FFFF0200FFFF0200FFFF0200FFFF0200FFFF0200FFFF0200FFFF0200FFFF0200FFFF0200FFFF0200FFFF0200FFFF0200FFFF0200FFFF02002F
:40518000FFFF0200FFFF0200FFFF0200FFFF0200FFFF0200FFFF0200FFFF0200FFFF0200FFFF0200FFFF0200FFFF0200FFFF0200FFFF0200FFFF0200FFFF0200FFFF0200EF
:4051C000FFFF0200FFFF0200FFFF0200FFFF0200FFFF0200FFFF0200FFFF0200FFFF0200FFFF0200FFFF0200FFFF0200FFFF0200FFFF0200FFFF0200FFFF0200FFFF0200AF
:40520000FFFF0200FFFF0200FFFF0200FFFF0200FFFF0200FFFF0200FFFF0200FFFF0200FFFF0200FFFF0200FFFF0200FFFF0200FFFF0200FFFF0200FFFF0200FFFF02006E
:40524000FFFF0200FFFF0200FFFF0200FFFF0200FFFF0200FFFF0200FFFF0200FFFF0200FFFF0200FFFF0200FFFF0200FFFF0200FFFF0200FFFF0200FFFF0200FFFF02002E
:40528000FFFF0200FFFF0200FFFF0200FFFF0200FFFF0200FFFF0200FFFF0200FFFF0200FFFF0200FFFF0200FFFF0200FFFF0200FFFF0200FFFF0200FFFF0200FFFF0200EE
:4052C000FFFF0200FFFF0200FFFF0200FFFF0200FFFF0200FFFF0200FFFF0200FFFF0200FFFF0200FFFF0200FFFF0200FFFF0200FFFF0200FFFF0200FFFF0200FFFF0200AE
:40530000FFFF0200FFFF0200FFFF0200FFFF0200FFFF0200FFFF0200FFFF0200FFFF0200FFFF0200FFFF0200FFFF0200FFFF0200FFFF0200FFFF0200FFFF0200FFFF02006D
:40534000FFFF0200FFFF0200FFFF0200FFFF0200FFFF0200FFFF0200FFFF0200FFFF0200FFFF0200FFFF0200FFFF0200FFFF0200FFFF0200FFFF0200FFFF0200FFFF02002D
:40538000FFFF0200FFFF0200FFFF0200FFFF0200FFFF0200FFFF0200FFFF0200FFFF0200FFFF0200FFFF0200FFFF0200FFFF0200FFFF0200FFFF0200FFFF0200FFFF0200ED
:4053C000FFFF0200FFFF0200FFFF0200FFFF0200FFFF0200FFFF0200FFFF0200FFFF0200FFFF0200FFFF0200FFFF0200FFFF0200FFFF0200FFFF0200FFFF0200FFFF0200AD
:40540000FFFF0200FFFF0200FFFF0200FFFF0200FFFF0200FFFF0200FFFF0200FFFF0200FFFF0200FFFF0200FFFF0200FFFF0200FFFF0200FFFF0200FFFF0200FFFF02006C
:40544000FFFF0200FFFF0200FFFF0200FFFF0200FFFF0200FFFF0200FFFF0200FFFF0200FFFF0200FFFF0200FFFF0200FFFF0200FFFF0200FFFF0200FFFF0200FFFF02002C
:40548000FFFF0200FFFF0200FFFF0200FFFF0200FFFF0200FFFF0200FFFF0200FFFF0200FFFF0200FFFF0200FFFF0200FFFF0200FFFF0200FFFF0200FFFF0200FFFF0200EC
:4054C000FFFF0200FFFF0200FFFF0200FFFF0200FFFF0200FFFF0200FFFF0200FFFF0200FFFF0200FFFF0200FFFF0200FFFF0200FFFF0200FFFF0200FFFF0200FFFF0200AC
:40550000FFFF0200FFFF0200FFFF0200FFFF0200FFFF0200FFFF0200FFFF0200FFFF0200FFFF0200FFFF0200FFFF0200FFFF0200FFFF0200FFFF0200FFFF0200FFFF02006B
:40554000FFFF0200FFFF0200FFFF0200FFFF0200FFFF0200FFFF0200FFFF0200FFFF0200FFFF0200FFFF0200FFFF0200FFFF0200FFFF0200FFFF0200FFFF0200FFFF02002B
:40558000FFFF0200FFFF0200FFFF0200FFFF0200FFFF0200FFFF0200FFFF0200FFFF0200FFFF0200FFFF0200FFFF0200FFFF0200FFFF0200FFFF0200FFFF0200FFFF0200EB
:4055C000FFFF0200FFFF0200FFFF0200FFFF0200FFFF0200FFFF0200FFFF0200FFFF0200FFFF0200FFFF0200FFFF0200FFFF0200FFFF0200FFFF0200FFFF0200FFFF0200AB
:40560000FFFF0200FFFF0200FFFF0200FFFF0200FFFF0200FFFF0200FFFF0200FFFF0200FFFF0200FFFF0200FFFF0200FFFF0200FFFF0200FFFF0200FFFF0200FFFF02006A
:40564000FFFF0200FFFF0200FFFF0200FFFF0200FFFF0200FFFF0200FFFF0200FFFF0200FFFF0200FFFF0200FFFF0200FFFF0200FFFF0200FFFF0200FFFF0200FFFF02002A
:40568000FFFF0200FFFF0200FFFF0200FFFF0200FFFF0200FFFF0200FFFF0200FFFF0200FFFF0200FFFFFFFFFFFFFFFFFFFF000000000000000000000000000000000000F4
:4056C00000000000000000000000000000000000E04F000000000000000000000000000000000000000000000000000000000000000000000000000000000000000000007B
:40570000000000000000000000000000000000006887FF1F00000000000000000000000000000000000000000000000000000000000000000000000000000000000000005C
:405740000000000000000000000000000000000000000000000000000000000000000000000000000000000000000000000000000000000000000000000000000000000029
:4057800000000000000000000000000000000000000000000000000000000000000000000000000000000000000000000000000000000000000000000000000000000000E9
:4057C00000000000000000000000000000000000000000000000000000000000000000000000000000000000000000000000000000000000000000000000000000000000A9
:405800000000000000000000000000000000000000000000000000000000000000000000000000000000000000000000000000000000000000000000000000000000000068
:020000040003F7
:0200000480007A
:400000000145004004520040026400404200014033010140440201404F03014064040140560501405C0601405A070140500801404F090140590A01404F0B0140090D01409A
:40004000010F01404814014054150140651601405D170140491801404F190140621A01404A1B01401840014020410140164201400F430140024401400245014003460140C9
:40008000054701400948014010490140014C014007500140025101407E02008101C130087C40823F8B1E017F02C0041205290609075209080B100C410E8E0F01102412C98A
:4000C0001520188019401A401B051C091D061E302506263F2B102D063007317F34C036383A203B03580459045F0184CC8633890C8A048B018E108F03910B9201930494AAE6
:400100009655970899049A209B0B9E08A0F0A20FA640AA02AE80AF02B107B2FFB308D2FFD804D904DB04DC10DF010040010802400340048406080A050B400C820E181220E3
:40014000144015401724184419401A051B011F0421012202260929082B092F023160320436093710392A3A403D203E806C406D406E086F047482760877208301841085044A
:400180008710C0EDC2FBC4F4CA1ECCEECE3FE2010704080109100A020B0811101308140115011602170219101B08270429022B013003310833033510370439A03E013F15B4
:4001C0005602573A580459045B045D105F0180108160840286018760880489608C088D609001916092029560981099039B049C039D08A104A301A41CA508A752A810A96034
:40020000AC10AD08AF35B003B17FB61CBE40BF01D804D904DC01DF0100200101020103100510070808020A060C040D0811501210140116011AC01B401C80220124102541A8
:40024000261028022A102B502C042F2030293240340236013718382039413A043C043D203F205C205E2864206C186D516E047412769581018A208C1090049104920193383D
:40028000952896189742981099809C409D089E809F50A104A20BA530A620A70AA984AF10B404C04FC22BC407CA6FCCEFCE6FD640D840E219EC02010D020F03F00408060432
:4002C000070609200B010D0411381385140215401601180119061A021C041D151E081F682104251427C92B062D082E0F31023203340C350137FC3A284036410243554404F8
:4003000045EC460D47F0482749FF4AFF4BFF4C024D205004580459045A045F0162406301645065306642670168106E406F908301850289039601A903B001B103B902C032C2
:40034000C106C355C404C5B5C640C710C83BC9FFCAFFCBFFCC03CD23CE03D004D201D804D904DA04DB04DC08DD10DF31E240E301E450E530E640E701E810EE40EF9003602E
:4003800008200A110E20134019041A101B201E802141228023492740284A2A082F08312232803304380239083BA03C203F06400C411442A0452046A048444A224C844E028E
:4003C0004F0452405301541057096F037D02814083408442884089018A108B408C208D099020915592419338952896189742981199809A149D189F50A002A144A20BA42048
:40040000A538A604A722AC40AF28B040B740C00CC227C401CA2FCC0FCEEFD0E7D23CDE80E091E401E62AE802EE420112020203A507400B100DA10F18120313011601174087
:4004400019011B8E1D221F1C25042B40320133C03402353F373F38024040410146104720482849FF4AFF4BFF4DA04F045018580459045A045C025D025F01604062C064401F
:40048000654066C068C06AC06CC06EC0800883018507860F8718880F89018B1E8C088D01911F94019504980799099B069C029E049F02A004A101A202A408A501AB01AF10C5
:4004C000B201B408B51FB606BA80C031C9FFCAFFCBFFD403D804D904DA04DB04DF01E240E3EC00240242040C050109200A220D420E020F20108012201508162019041A0AA2
:400500001B201D1A1F022008212023082412261028622B082E202F10312032063340348236103708392A3B803C843F11421145024602560257105810598080808208842069
:40054000850189108A808B0A8D069020915592C093B9940E95089608985199809A559B419D109E889F14A082A144A26BA424A538A604A902AA41AF08B020B320B504C01FDB
:40058000C237C40CCA6FCCFFCEFFD09AD60CE234E60AEA05EE2101020201030106020A040CCC0E330F031280130314F0160F17031A201E0820AA22552303250329012A4098
:4005C0002B022E102F03310334FF3B02402649FF4AFF4BFF52FF580459045A045B045F01664067EC810385038704890B8B049520970299049B08A303AB0FAD01AE01AF3075
:40060000B310B401B50FB720BF40C063C102C9FFCAFFCBFFD207D804D904DA04DB04DF01E090E1BCE410E511E660E76CE840E96CEAC0EE40EF20051006A109100A080C80D1
:400640000EA8100214801510174019201B101F1020082214230925012601280229202B802C242D012F023214370638153D023E4040084108460848084F10680269246D10DC
:400680006E886F407480751076A07B038402860489818E1090A39103924093409725988299039A419B079C4D9DA4A029A140A210A508A60BA701A880A988B210B480C0F0EA
:4006C000C2F0C4D1CAFDCCC6CE97D026D224E264E480E89001040302150121032B032F01310333043F0440634102479049FF4AFF4BFF4C034D03560859045A045B045F0188
:40070000609061BC641065116660676C6840696C6AC06E406F20821983048619870189018A068F019106970198029A049B049C189E019F02A301A404A602A906AC09AE1042
:40074000AF01B008B210B406B501B601B706C050C101C501C720C821C9FFCAFFCBFFCDA0CF04D018D602D731D804D904DA04DB04DD02DF01E040E2C0E440E540E6C0E8C012
:40078000EAC0ECC0EEC0052609400A010E0A140115041C011D011E091F06201021012590268029222B012C402E802F043004350136A839023D023E203F44400841084220E2
:4007C000460248084C104D80500156025B405C106002624067016C606D016E406F047480750277028008810182808401871489048A208B028E048F40934097209A019B01CB
:400800009D20A510A602AF11C070C2C0C4A0CABDCCF2CEF1D016D214D628D818E030E240E680EC208202892093409A01A510AF40B601E228EC40811002040320051C060356
:400840000A030B200E040F2010011103120415121603172919121A041B251E031F202003212D2312252029202E062F20300333203404351C3703380239803F04580459046C
:400880005C105F01800C81E783088401880C8C0C900C9124950996029792980C99099B769E0CA00CA41BA604A819A911AA06AC17AD40AE08AF0CB20FB3E8B410B51FBE1068
:4008C000D804D904DC11DF01012202220420058006A00AA20B080D090F09108011801581160317181A041B021D181E082002220423042510271C280129802A152B042C0205
:400900002E202F083102328033143715382039413A803B043E0279027A80820483418401860489108A028C80902091C192A29308951096089704980199229A149B019D10B6
:400940009F10A002A142A2A0A308A518A604A742A808A920AC40AE01B504C0FFC2FFC4F9CA3FCCEFCE8FE002E208E604EA0BEE010160038F0503073C09200DC20F31158432
:40098000174019C11B1E1F0125082702333F35C03B2040434106440549FF4AFF4BFF4C024D204E70500C560859045A045B045D015F01610862C063086440650967096908B3
:4009C0006B086D086F088408856E8610879089258A028BCA8D208E048F0191DB92029304960899359BC29C109E089F42A320A508A610A740A807AE01AF80B218B3E4B407C5
:400A0000B51FBA08C043C106C405C5F0C60EC7BCC836C9FFCAFFCBFFCC03CD20CE70D00CD40FD804D904DA04DB04DD11DF01E108E2C0E308E440E509E70901180302090488
:400A40000A810C200F04100811041201190C1A101B1020242114272C28422B202F103120320233403610374839283B803C803E083F114080410842404480450846084720B6
:400A800049014A084B404E084FC051025240530859515A085E806140624065806680822089808B208E108F18902091C592C293B9940495289631984399029A159B419E88EE
:400AC0009F14A002A164A2DAA320A470A510A604A810A901AC02B210C007C20DC407CA4BCC7DCEFED0C3D23CD61FD810E210E601EA4EEE02001801010559061007240A0843
:400B00000C090E060F4010071101120815521618172418091A061B201E06211F220F240F2702280229242A042B4A2C042E0230063218337F36013A02580459045F018009FC
:400B40008302841F8560871089108A028B209202934094049508970498229A089B019D049E029F08A001A222A40BA901AA10AB02AC09B020B10CB360B41FB503B710BA3034
:400B8000D804D904DF010004038804A00506080909100A010C200E400F2211821240132814051706180C1B011C011D441E011F0922A223102508260429202C492F1132663F
:400BC0003501362438023A083B103C023F4478087A107B10831088048B068E088F01908291269240936094149714984099039A409B0F9C059D049E08A02DA150A310A4108C
:400C0000A508A68AA781A810AC10AF10B048B680C0FEC2FFC4FFCAE4CCEFCED7E240E4E0E880EA4201020304070214011E011F0528013301340137064032410642504404B7
:400C400049FF4AFF4BFF4CC24E704F045008580459045A045F016240630164C066D0681069AC6A106BD46C406DAC6E406FA881038304851F8605872089048B188C028E014D
:400C80008F099340953F98019B3F9F04A202A312A51FA602A720AA02AB04AE01AF44B202B33FB404B601B740C026C103C250C404C5F0C7B0C823C9FFCAF3CBFFCC43CE7310
:400CC000CF04D008D20ED804D904DA04DB04DF01E240E301E4C0E6D0E810E9ACEA10EBD4EC40EDACEE40EFA80584084009080E0810081520174519201C201E081F802244A2
:400D00002410268827202D802FA9324035403618370139063C083DA24014410243224502472848044A024C944E0256026D086F448280848086028A028B208D04900C912693
:400D4000930294309688984099449B099D209F20A00CA159A210A30AA410A780A801AB08AD08AF10B608C0A0C245C4F2CAF0CCF8CEF3D0E7D23CE280E660E81012201504AD
:400D80001A011B021E803002324035143A043B103D043F20420282068641C430C670CCF0CEF0D010E010E280E440E6201701331037203B023D013E104208550160106501C3
:400DC00080108104821087108D01968097109D14A402A710AB02AE20C420CC30CEE0D010D620D8C0E290E680E820EC400102074045084A085008890A8F40950196809702F1
:400E00009D109E089F30A402A710AF01B501C030D080D210D420E84083108A088E40968097029D109E089F30A402A608A710AD01B008E220EA105408D4028740A4089780A2
:400E4000B008EC040B840F8083409780C20E8F409D10A608AB10AC02AF20B701EA50EE80108077407B0180808110860887019B409D10A608C410DC80DE20E020E210E6306A
:400E8000AF04000708030A070C0510031A031C0100FF012A6AAA090000000000040200000A00000000C1C100C10000000F0000020F00070000000000000A000F0A0000001A
:400EC0004000000000000000C0000000000B0B0000000000007F7F00000000000000000000000100000C0C00080000000001000000040000000500000006000000090000A4
:400F000000000000000000000000000000000000000000000000000000000000000000000000000000000000000000000000000000000000000000000000000000000000B1
:400F40000000000000000000000000000000000000000000000000000000000000000000000000000000000000000000000000000000000000000000000000000000000071
:400F80000000000000000000000000000000000000000000000000000000000000000000000000000000000000000000000000000000000000000000000000000000000031
:400FC00000000000000000000000000000000000000000000000000000000000000000000000000000000000000000000000000000000000000000000000000000000000F1
:0200000490006A
:0400000000004005B7
:0200000490105A
:04000000BC90ACAF55
:0200000490303A
:0200000030CFFF
:0200000490402A
:4000000000000000000000000000000000000000000000000000000000000000000000000000000000000000000000000000000000000000000000000000000000000000C0
:400040000000000000000000000000000000000000000000000000000000000000000000000000000000000000000000000000000000000000000000000000000000000080
:400080000000000000000000000000000000000000000000000000000000000000000000000000000000000000000000000000000000000000000000000000000000000040
:4000C0000000000000000000000000000000000000000000000000000000000000000000000000000000000000000000000000000000000000000000000000000000000000
:0200000490501A
:0C00000000012E12306900012E3461381E
:00000001FF