:400000000080002011000000650200006502000008B5044B1A6803F53F5302331A6000F041F900BFFA46004010B5054C237833B9044B13B10448AFF300800123237010BD6F
:40004000D087FF1F000000007C370000084B10B51BB108480849AFF300800848036803B910BD074B002BFBD0BDE81040184700BF000000007C370000D487FF1F0881FF1F3F
:400080000000000010B582B04DF6AD63ADF80630002410E084F400400DF10601012202F053FDBDF806302344ADF806300A2000F0CFFC0234A4B2B4F5FF7FEBD9002411E047
:4000C000A4F5F84080B20DF10601012202F03CFDBDF806302344ADF806300A2000F0B8FC0234A4B2FE2CEBD902B010BD70B594B062B602F045F900F06DFB00F0A5FB62B605
:400100000020012100F04CFE02F0D8F900F00EFD02F00EFA00F0FCFA00F03AFD02F09AF9464802F0CFF80120002102F037F9444802F0C8F802F09CFCFFF7A4FF002500E0E8
:400140000025404C214631F8020B80B2012202F09FFC207108B10022628000F05FFE20B100F056FE08B100F083FF00F051FE0028E7D001F03DF800284DD004A801F050F806
:400180000446002847D001F03FF80028FBD09DF81030712B14D12C4800F0DCFF042001214FF4004202F090F90020014602F0F6F8264802F087F84FF4004002F01DF920E00F
:4001C000772B1BD1224800F0C5FF1E4E04200121B21D02F091F90120002102F0DFF81D4802F070F8F08802F007F901A81A49F28802F0BAFE01A800F0ADFF02E0174800F07C
:40020000A9FF402C07D100F0FFFF0028FBD00020014600F079FF01F01BF8002891D010F0020F8ED001F030F810F0010F88D0002D87D10B4800F08EFF012582E7803700000A
:4002400088370000EC87FF1F94370000B0370000B8370000C4370000C8370000D43700000038000008B502F03FFE03680C2B00D1FEE7FEE708B5094B1A681044084BC31A10
:40028000802B02DC054B186005E002F02DFE0C2303604FF0FF32104608BD00BF0C81FF1F7091FF1F08B5104E104D16E029686B68AC68002204E051F8040B43F8040B043281
:4002C000A242F8D1E868002203E0002143F8041B04328242F9D11035013E002EE6D102F009FEFFF703FFFEE701000000744C000008B5134A134B1A60134A136843F4007349
:40030000136000230AE0032B03D8104A52F8231000E00F490F4A42F8231001332F2BF2D90D4B1A780D4B1A700A4A0D4B1A6000F0F1F800F097FA00220A4B1A6008BD00BF45
:400340000004FA050CED00E014ED00E000000000650200000080FF1FBC7600400481FF1F08ED00E00081FF1FFEE700BFF0B40022174611E050F82760F3B226F0FF0608E003
:4003800001EB420511F812406D78A5550132013BDBB2002BF4D10137252FEBD9F0BC7047104B1B78DBB203F007010F4A11701B090132137081220D4B1A70052290331A700E
:4003C000202203F6CB031A709023094A13704FF4817146321180123213706622054B1A70704700BFCF0100496E5800403D510040005B00407658004008B50A46002102F04E
:40040000AAFD08BD38B51722374B1A801823374A13702F21023211800232137040F21F3102321180023213700622314B1A7043F21332EE3B1A80023B05221A701B7843F2E4
:40044000C82404E04FF4F07002F012FD013C24B1284B1B7813F0800FF4D114B90120FFF783FF4FF40072244B1A804FF4E16203F21E231A8001224FF040231A7041F251222A
:4004800003F508731A80002419250CE01B4B1B7803F0010343EA440404F003044FF4F07002F0E6FC013D0DB1032CEFD141224FF040231A70702203F500731A700E4A072387
:4004C000137000230E490B7048200231087013700532137002220B4B1A700B4A137843F00703137038BD00BF8040004082400040004300401042004004400040254200409A
:400500000640004001400040A243004008B502F017FD08BD38B572B6564A137843F00403137000240CE0544963001A1952000A4423445B00C8589188FFF75EFF0134E4B20E
:40054000062CF0D900240FE04B49A3001A1952000A4452F82C0F23445B000B4451689A8EFFF7D4FF0134E4B2022CEDD94FF090404249FFF7FBFE42480421FFF73DFF414871
:4005800041490422FFF7C2FF40480421FFF734FF3F480421FFF730FF3E483F490422FFF7B5FF3E483E490422FFF7B0FF3D483E490422FFF7ABFF3D480421FFF71DFF3C4865
:4005C0000421FFF719FF3B483B490422FFF79EFF3A4A137843F0020313701032137843F002031370364C237843F040032370A2F58632513A137843F010031370314832496E
:400600000822FFF783FF314831490A22FFF77EFF304831490522FFF779FF304830490A22FFF774FF2F4830490822FFF76FFF2F482F490822FFF76AFF2E482F490822FFF775
:4006400065FF2E482E490822FFF760FF2D4A137843F0080313702C4D01232B70FFF7D2FE81232B70FFF79CFE284821460E22FFF74DFF38BDE846004018380000980000483E
:400680000076004008760040140F0048107600401876004020760040180F0048287600401C0F004830760040200F0048387600404076004048760040240F004803500140E3
:4006C000A043004002510040CC0E0048C0510040D40E0048CB510040E00E0048F0510040E80E004812510040F40E004822510040FC0E004832510040040F00486251004053
:400700000C0F00482243004000480040B0430040054A137843F0020313701032137843F002031370704700BFA2430040054A137843F0080313701032137843F00803137015
:40074000704700BFA8430040054B1A7802F0FD021A701A7800F0020010431870704700BF2C580040014B1870704700BF835B0040064B1B78C3F3810303F19243063393F8CF
:400780003831DBB2024A1370704700BF2C5800400B46004008B5064B1A7802F0F3021A701A7800F00C0010431870FFF7E1FF08BD2C58004010B50024054B1C7001331C704B
:4007C0000420FFF7E7FF2046FFF7BEFF10BD00BF2C58004008B5074B1B7823B9FFF7EAFF0122044B1A70FFF7A1FF4B20FFF7BAFF08BD00BFF887FF1F084A137843F06003F3
:400800001370A2F5A652133A137843F0080313701032137843F008031370704777580040054B1A7802F0FC021A701A7800F0030010431870704700BF5E58004008B50320B1
:40084000FFF7EEFF08BD00BF08B5054B1B7823B90122034B1A70FFF7F1FFFFF7CDFF08BDF987FF1F0B4A7F2313708021517007E0DA0002F1804202F5F042013BDBB21370C8
:40088000002BF5D1DB0003F1804303F5F04300221A7070471081FF1F172815D831B103010A495A5C42F020025A5405E0030107495A5C02F0DF025A540001044A835C43F08A
:4008C0000103835400207047012070471070004017280BD80001064A835C03F0F10301F0070143EA4101815400207047012070471070004041F6FF73994201D14FF40051DF
:4009000041F6FF739A4201D14FF40052172808D8C00000F1804000F5EC408180C280002070470120704700BF172805D8034B03EB00104172002070470120704710700040DF
:40094000172809D8054B03EB0010037901F007011943017100207047012070471070004017281BD810B4C00000F1804404F5EC44D201D2B201F07F01114321709DF804205D
:400980001201D2B203F00F03134363709DF8083003F00F03A3700020E07001E0012070475DF8044B704700BF10B502F069FA0A4B5B78182B0BD9084A1478013B5370E30021
:4009C00003F1804303F5F0431B78137000E0FF2402F05AFA204610BD1081FF1F10F0800F0CD111F4704F0BD1C00000F1804000F5F04001808270C3700020704701207047DD
:400A00000120704710F0800F08D1C00000F1804000F5F0408180C280002070470120704701BE704710B5044605E0084B186802F01FFAA4F50044B4F5004FF6D8034B5868F5
:400A400000FB04F002F014FA10BD00BF1881FF1F08B5034B1B7A03FB00F002F009FA08BD1881FF1F70B504460E46074B1D681F2802D90020FFF7D4FF04F01F04103455F8F8
:400A8000240045F8246070BD08ED00E038B504460D46072902D90020FFF7C2FF1F2C02D90020FFF7BDFF04F01F0000F1604000F564406D01EDB2057038BD00BF134B1B7887
:400AC000DBB20360124A127843EA02230360114A127843EA024303600F4A127843EA026303600E4B1B78DBB243600D4A127843EA022343600B4A127843EA024343600A4A9F
:400B0000127843EA02634360704700BF0301004904010049EC4600400201004901010049000100490501004906010049054A137843F0040313701032137843F004031370D2
:400B4000704700BFA2430040014B1870704700BF01640040014B1870704700BF41640040014B1870704700BF2164004008B5074A137843F001031370FF20FFF7E5FFFF2042
:400B8000FFF7E8FF7F20FFF7EBFF08BD9164004008B5044B1B7823B9FFF7E8FF0122014B1A7008BDFA87FF1FF8B502F069F90546404A137843F0010313701032137843F00F
:400BC0000103137001273C4B1F700226943B1E7002F5E2521B32137803F07F0313700020FFF736FF354C237803F0F9032370344A137803F0DF03137023783B43237038463C
:400C0000FFF726FF2820FFF723FF2E4B1A7802F07F021A701A7802F0BF021A702378334323703046FFF714FF237843F0040323700023254A137001321370284602F024F98F
:400C400017200721FFF722FF17202049FFF70AFF18200721FFF71AFF18201D49FFF702FF15200721FFF712FF15201A49FFF7FAFE03200721FFF70AFF03201749FFF7F2FEBE
:400C800004200721FFF702FF04201449FFF7EAFE05200721FFF7FAFE05201149FFF7E2FE0C200721FFF7F2FE0C200E49FFF7DAFEF8BD00BFA54300409D6000409443004087
:400CC00012600040F851004084600040FD170000E5150000F91700005917000089170000BD1700000518000008B5214B18700023204A1370204A1370204A1370204A1370EE
:400D0000204A1370204A1370204A1370204B4FF400021A604FF080721A604FF400121A6008221A6010221A6020221A6011B1012906D00BE0174A137803F0FE0313700AE042
:400D4000144A137843F00103137004E0114A137803F0FE03137003220F4B1A708022203B1A70012002F084F804220C4B1A7008BD4389FF1F4289FF1FB488FF1FB588FF1F1C
:400D8000B688FF1F4689FF1FB788FF1FB388FF1F00E100E009600040286000401260004038B505460C46064B1B7823B9FFF7FCFE0122034B1A7028462146FFF795FF38BDC7
:400DC000FB87FF1F00230A4A13700A4A13700A4A13700A4A13700A4A13700A4A13700A4A13700322094B1A708022203B1A7070474289FF1FB488FF1FB588FF1FB688FF1F14
:400E00004689FF1FB788FF1FB388FF1F28600040014B1878704700BFB588FF1F064B1B7813F0FF0F05D0044B1878C0B200221A7070470020704700BFB488FF1F00EB400001
:400E40008000024B18444078704700BFD488FF1F431EDBB2072B0BD8064B00011A18185C00F00F00537843EA0020023880B2704700207047FC5F0040431EDBB2072B3BD8C7
:400E8000F0B4074600EB40039B001C4C2344DB889BB2C3F500739A4207D900EB40039B002344DA88C2F5007292B200EB40039B00124C2344DB7843EA1223114D04012E1926
:400EC0002B55D3B2737039B909E0CE5C3D010D4C665501339BB200E000239342F5D3430003449B00054A134400225A705A79D2B20001054B1A54F0BC704700BFD488FF1F29
:400F0000FC5F004078600040FE5F0040431EDBB2072B0BD8430003449B00054A134400225A705A79D2B20001024B1A54704700BFD488FF1FFE5F004070B5D9B105461446B3
:400F40000E46C8B1082819D8FFF782FFA04203D22846FFF77DFF0446002305E02901094A525CF25401339BB2A342F7D32846FFF7CDFF04E0002402E0002400E000242046DA
:400F800070BD00BF786000400246002001E0013080B2135C002BFAD1704700BF10B4FF2400220EE00A4B9B5C03EB43039B0009490B449B78DBB2834201D11446022201320B
:400FC000D2B2012AEED920465DF8044B704700BFA088FF1FDC88FF1F10B5204C2079FFF7DDFF237813F0800F0ED06378DBB2212B2FD11B4B07221A80C0EBC000194A10448D
:40100000586000F05DFB10BD144B5B78DBB2202B02D0222B10D01EE0114A07231380C0EBC00310490B4453600F4A135C43F00103135400F06DFB10BD084B9B780B4A22F89B
:401040001030094A135C43F00203135400F0F8F910BD002010BD002010BD00BF00600040C488FF1F2881FF1FA888FF1FAC88FF1F10B500241F4B1C701F4B1C705C700AE08C
:401080001E4B185DC0B2431EDBB2072B01D8FFF73DFF0134E4B2012CF2D9194B1B7813F0FF0F1AD0154B1B7813F0FF0F17D0154B1B7813F0FF0F14D0114B1B78DBB2082B7E
:4010C00011D80E4B1B78DBB2082B0ED80D4B1B78DBB2082B0BD8002010BD012010BD012010BD012010BD012010BD012010BD012010BD00BFFC87FF1FA888FF1F9C88FF1F76
:401100009888FF1FA088FF1F70B506460D460E4B1B780E4AD45CE4B204EB44039B000C4A13441B899BB28B4208D204EB44039B0013441D89ADB20020FFF772FC20463146B9
:401140002A46FFF799FE70BDFC87FF1F9888FF1FD488FF1F2DE9F8438046224B1B78224AD65CF6B2FFF710FF05460027344606EB46039B001D4A13441B899BB2AB4208D253
:4011800006EB46039B001344B3F808901FFA89F900E0A946304608EB07014A46FFF76CFEC9EB0505ADB245B906EB46039B000F4A13441B899BB2994510D14F44BFB204EBB2
:4011C00044039B00094A13445B7813F0FF0FF6D025B9304600210A46FFF74EFE002DC5D1BDE8F883FC87FF1F9888FF1FD488FF1F08B5034B1B78034AD05CFFF71FFE08BD87
:40120000FC87FF1F9C88FF1F08B5034B1B78034AD05CFFF713FE08BDFC87FF1F9888FF1F08B50146074B1B78074AD05CC0B200EB40039B00054A13441A8992B2FFF77CFE6B
:4012400008BD00BFFC87FF1F9C88FF1FD488FF1F0A4B1B7813F0FF0F0CD1094B1B78094AD25C12F0FF0F07D0064AD05CC0B20021D154704700207047002070474289FF1FE6
:40128000FC87FF1FA888FF1F034B1A78034B33F8120080B2704700BFFC87FF1FAC88FF1FC37803F0030390F9020000280FDA032B06D002F001030B48C15442F001020EE0E4
:4012C000C2F380030848C15442F0040207E0032B05D0C2F340030548C15442F002021046704700BF9888FF1FA088FF1F9C88FF1F1C4B19781C4A13880B449BB213800023C2
:401300000EE01A4A51680978C9B21948C1545168013151600133DBB21188013989B21180124A128892B20AB1072BEAD90D4A1278D2B2082A00D05BB10E490A7882F080020A
:401340000A700F210C4A117002210C4A117004E0022209490A7009490A70094A1370014A13707047B388FF1F4089FF1FC488FF1F00600040B888FF1FB288FF1F4289FF1F0E
:40138000D088FF1F0222074B1A708022064B1A700F22064B1A700023054A1370054A1370012070474289FF1FB888FF1FB288FF1FB388FF1FD088FF1F08B5FFF799FF08BD11
:4013C00010B4184B197801F00F010239C9B2164A13880B449BB21380002010E0134B5C68134A125CD2B222705A6801325A600130C0B20139C9B21A88013A92B21A800B4B29
:401400001B889BB20BB10029E8D10A4B19700A4A137883F0800313700B22084B1A705DF8044B7047296000404089FF1FC488FF1F00600040D088FF1FB888FF1FB288FF1F9D
:401440000623064A1370064A13708022054B1A700022054B1A700120704700BF4289FF1FB288FF1FB888FF1FD088FF1F064B9B6843B1054B9A6810709A68044909885180AE
:4014800000229A60704700BFC488FF1F4089FF1F08B5134B1A78D2B21A701B78DBB213F0800F02D00F4A137008BD0220FFF7DEFF0D4B1B7803F06003202B05D0402B06D0D2
:4014C00043B900F089FC06E001F0E2FC03E000F02BFE00E0002010B90322024B1A7008BD28600040B288FF1F0060004008B5084B1978084A13880B449BB213800022064B50
:401500001A700120FFF7B2FF0322044B1A7008BDB388FF1F4089FF1F4289FF1FB288FF1F08B50B4B1B78DBB2042B06D0062B07D0022B0BD1FFF7DAFF08BDFFF741FF08BD3D
:401540000320FFF793FF0322024B1A7008BD00BF4289FF1FB288FF1F08B50022044B1A700120FFF783FF0322024B1A7008BD00BF4289FF1FB288FF1F08B50B4B1B7813F044
:40158000FF0F07D0084A137843F0800307490B70002313700022064B1A700120FFF766FF0322044B1A7008BD4689FF1F086000404289FF1FB288FF1F08B5094B1B78DBB2FF
:4015C000042B06D0062B07D0022B07D1FFF7F4FE08BDFFF7C1FF08BDFFF7CEFF08BD00BF4289FF1F08B5284B1B78DBB213F0100F48D013F0800F0CD003F00F03012B16D171
:40160000FFF746FF214B1B7813F0800F11D1012312E013F0400F03D0FFF7CEFF01230BE013F0200F07D0FFF77BFF012304E0002302E0002300E0002323B3134B1B7813F079
:40164000800F1FD1124B1B78124A12781343124A13701278D2B29A4214D10C4B1B78DBB2094A127812F0800F07D1084B1B78DBB2054A1370137803F00F03044A1278D2B223
:401680009342EAD108BD00BF28600040B288FF1FB888FF1FD088FF1F296000400022064B1A80064B9B682BB1044A916800230B7092685380704700BF4089FF1FC488FF1FA3
:4016C00008B50F4B1B889BB213B9FFF75BFE15E002220C4B1A7000220B4B1A70FFF7DEFF0A4AD179937943EA0123054A128892B29A4201D9024A1380FFF7FAFD012008BD69
:40170000C488FF1F4289FF1FB888FF1F0060004008B504220B4B1A7080220B4B1A70FFF7BDFF0A4AD179937943EA0123084A128892B29A4201D9064A13800B22054B1A7096
:40174000012008BD4289FF1FB888FF1F00600040C488FF1FB288FF1F0122094B1A700F3B9B7C084B1B7B03F00303934204D0054AD37B83F08003D3730122024B5A73704720
:401780000B600040D488FF1F02220A4B1A700F3B93F82230084B1B7E03F00303012B04D0054AD37E83F08003D3760122024B5A76704700BF0B600040D488FF1F04220C4BBE
:4017C0001A700F3B93F832300A4B93F8243003F00303012B06D0074A92F8273083F0800382F827300122034B83F82520704700BF0B600040D488FF1F704700BF08B5FFF70B
:40180000E1FA08BD08B500F09BFC08BD70B588B0054603AC174E0FCE0FC43368237035B322232B7003236B7001A8FFF747F9002402231AE008AA224412F81C2C08A901EB73
:40184000121111F8141CE954581C00212954981C02F00F0208AE324412F8142C2A54DA1CA9540134E4B20433DBB2212BE2D908B070BD00BF6438000010B401223DE01146EE
:4018800013010C242148C45402EB42039B00204803445B7913F0FF0F12D002EB42039B0003441B7913F0800F04D01001194B03449C700AE01001174B03440820987004E092
:4018C0001001144B0344802098704B000B449B000F480344DC88E4B208010C4901448C71D888C0F30720C871D888C0B20871DB88C3F307234B710132D2B2082ABFD9FF22BD
:40190000054B1A705DF8044B704700BF70600040D488FF1FFC5F00400A600040074B1B78074A02EBC30253681A7C824203D903EBC003586970470020704700BF4389FF1F62
:40194000B84A0000F8B5404B1B7813F0FF0F79D03D4B18780138C0B2FFF7E0FF047AC2683A4B1878C0B200236AE01178814264D13749095CC9B25578A9425ED1917801F04A
:401980007F01D67806F00306DFF8C8E04D000D44AD000EEB05074FF0000C87F803C092F802C087F804C092F803C00EF805C095883D8192F90250002D0DDA012E01D107275C
:4019C00000E00D274D000D44AD00224E35446F7101266E700CE0012E01D1052700E009274D000D44AD001B4E35446F7100266E70DFF868E00F010EEB07060125B57001FA05
:401A000005F529448900134D29440D89C5F307250EF807500D89EDB27570CE88F6B20E4D3D44AE71CE88C6F30726EE71CE88F6B22E71C988C1F30721697108320133DBB2C5
:401A4000A34292D3F8BD00BFB588FF1FB688FF1FC088FF1FD488FF1F70600040FC5F0040034B1A78034B03EBC2035868704700BF4389FF1FB84A000008B5074B187801388B
:401A8000C0B2FFF74BFF28B14268127900EBC203586908BD002008BDB588FF1F2DE9F84300220EE06F4E53009D18AD00741900217155A170E1702181A172617061710132BC
:401AC000D2B2082AEED940B90AE000226649CA546649CA540133DBB200E00023012BF4D9634B1B7813F0FF0F00F0B980604B18780138C0B2FFF712FF80464368DB7913F0DD
:401B0000400F05D05B4A137843F00103137004E0584A137803F0FE03137098F808704FF0000901266CE0D8F80C50002464E0AB7803F07F039E425CD1314606EB46039B00C7
:401B4000484803441B899BB2A888834205D206EB46039B00434A134418812B784248C35CDBB26878834244D195F802C03D484B000B449B0000EB030E8EF804C095F803E02D
:401B800000F803E0EB7803F0030395F90200002811DA012B02D14FF0070C01E04FF00D0CDFF8C0E04B0058188000704480F805C00123437012E0012B02D14FF0050C01E025
:401BC0004FF0090C27484FEA410E0EEB01039B00034483F805C0194600234B70AB790A2B01D0022B05D1284631464A46FFF758FB814608350134E4B2BC4298D30136F6B23C
:401C0000082E90D9D8F80C0000220CE0837803F07F0310F8084B03EB43039B0016490B449C700132D2B2BA42F0D3FFF725FF134B1860002301210EE00A4C4A0050188000A6
:401C40002044C380028913449BB203F0010213449BB20131C9B20829EED9FFF70DFEBDE8F88300BFD488FF1FC088FF1FB088FF1FB588FF1FB788FF1FDC88FF1FBC88FF1F9D
:401C800008B5154B1A7902F07F02531EDBB2072B20D8530013449B0010490B44997841F0010199700021D970597841F0020159701B7913F0800F05D01201094B13448D22FF
:401CC0009A7004E01201064B134489229A70FFF7B7FB08BD002008BD00600040D488FF1FFC5F0040264B1B7903F07F035A1ED2B2072A43D810B55A001A44920021490A44F6
:401D0000917801F0FE0191700021D17019017F241D484454517801F0FD015170127912F0800F14D003EB4302920016490A445278D2B2012A05D11B0102461A440C2393705F
:401D400019E01B01104A1A440D23937013E003EB430292000B490A445278D2B2012A05D11B01094A1A440823937004E01B01064A1A4409239370FFF763FB10BD00207047EA
:401D800000600040D488FF1FFC5F004010B50E4B1C79E4B20D4B18780138C0B2FFF7BEFD43681B799C4201D9022C0AD8084A135DDBB208490B55044B9B78DBB21355012062
:401DC00010BD002010BD00BF00600040B588FF1FC088FF1FB088FF1F10B59B4B1B78DBB200219A4A118013F0800F00F0AD80964A5278D2B20A2A00F27281DFE812F069002A
:401E0000700170017001700170010B007001920070019A008C4BDB78DBB2012B09D1FFF71FFE4268894B5A6012221A80FFF748FC10BD854BDB78DBB2022B13D1824B9878D9
:401E4000FFF76CFD002800F04C8142687F4B5A605A68D1785A68927842EA01221A80FFF72FFC10BD784BDB78DBB2032B05D02CE00A7811440133DBB201E000237449724A7B
:401E80009278D2B29A4203D90A7812F0FF0FEFD16D4B9B7813F0FF0F0BD06B4B9B78DBB26C4A127C934204D16B4C2046FFF7AEFC21460B7813F0FF0F00F015810B78634A21
:401EC00013805160FFF7FCFB10BD00F0E1FF10BD13F0030317D0022B40F007815B490B80594B1B7903F07F0303EB43039B005B4A13449A78D2B25A4B1A7000225A704B606F
:401F0000FFF7DEFB10BD514902230B80554B1A78D2B2534B1A7000225A704B60FFF7D0FB10BD4A4B01221A804F4A5A60FFF7C8FB10BD464A01231380434B1B794B490B4441
:401F40005360FFF7BDFB10BD3F4A5278013A0A2A00F2CD80DFE812F04B00CB009600CB000B00CB00CB00CB001300CB003000364B9B78DBB23E4A1370FFF762FA10BD324BB0
:401F80009B7803F0FF041BB1601EC0B2FFF7C6FC04B110B9002C40F0AC80334B1B78DBB29C4206D0304B1C700120324B1870FFF775FDFFF745FA10BDFFF7E8FE002800F0C1
:401FC0009A80214A1379DBB21279D2B22A490A702A4AD25C2549C95CD3B28B4204D00122244B1A70FFF7AEFCFFF72AFA10BD03F00303012B17D04BB1022B7ED1124B9B7855
:4020000013F0FF0F7BD1FFF76DFE10BD0E4B9B78DBB2012B75D1134A137803F0FD031370FFF70EFA10BD084B1B79DBB2012B6AD8054B98781B79DBB21149CA5C22EA000290
:40204000CA54FFF7FDF910BD00600040C488FF1F204B0000044C00004891FF1FD488FF1F0088FF1FB788FF1FB588FF1FC088FF1F4689FF1FB488FF1FB688FF1FB088FF1F96
:402080004489FF1F03F00303012B17D04BB1022B3BD1224B9B7813F0FF0F38D1FFF7F0FD10BD1E4B9B78DBB2012B32D11C4A137843F002031370FFF7C3F910BD174B1B7951
:4020C000DBB2012B27D8154B98781B79DBB21549CA5C22EA0002CA54FFF7B2F910BD002010BD002010BD002010BD002010BD002010BD002010BD002010BD002010BD0020F1
:4021000010BD002010BD002010BD002010BD002010BD002010BD002010BD00BF00600040B788FF1F4489FF1F044B1B7813F0800F01D0024B5B780020704700BF0060004002
:40214000024B1878C0F38010704700BF8F45004010B50B4C237803F09F032370237803F0F00323702378184340F0100020700120FEF76EFC237803F0EF03237010BD00BFDD
:402180002051004038B505460E4C237843F020032370237803F0BF0323700020FEF758FC237803F0F003237023781D4345F0100525700120FEF74CFC237803F0EF032370AD
:4021C00038BD00BF2051004070B5354B1A7802F08002D2B21A7033490A7802F0F00242F00F020A7001310A7802F0F0020A7001310A7802F0F0020A701A7802F0DF021A700F
:402200001A7842F040021A704FF4CA760020FEF71FFC234D2B7843F010032B700120FEF717FC214B1C78E4B22B7803F0EF032B700020FEF70DFC04F00804E4B22B7843F0FB
:4022400010032B700120FEF703FC2B7803F0EF032B7014B90A20FEF7FBFB013E0CB1002ED4D10F4A137803F0BF031370137803F08003DBB213700232137803F0F003137072
:402280000132137803F0F00343F00F0313700132137803F0F00343F00F03137070BD00BF20510040225100402151004010B50446FFF78AFF2009FFF765FF04F00F00FFF73A
:4022C00061FF10BD38B505460078012404E0FFF7EDFF285D0134E4B20028F8D138BD00BF08B5FFF7E3FF08BD10B50446FFF76CFF2009FFF72DFF04F00F00FFF729FF10BD1E
:4023000008B52820FEF78EFB0320FFF721FF0520FEF788FB0320FFF71BFF0F20FEF782FB0320FFF715FF0120FEF77CFB0220FFF70FFF0520FEF776FB0620FFF7D5FF0E20E7
:40234000FFF7D2FF2C20FFF7CFFF0820FFF7CCFF0120FFF7C9FF0C20FFF7C6FF0320FFF7C3FF0520FEF75EFB08BD00BF08B50C20FFF7BAFF0122014B1A7008BD0488FF1F05
:4023800008B5054B5B7823B9FFF7BAFF0122024B5A70FFF7EBFF08BD0488FF1F08B5032819D8DFE800F002070D1381F08000FFF79BFF08BDA1F14000C0B2FFF795FF08BD97
:4023C000A1F16C00C0B2FFF78FFF08BDA1F12C00C0B2FFF789FF08BD38B504460309054DE85CFFF77DFF04F00F04285DFFF778FF38BD00BF7838000010B50446000AFFF7FA
:40240000EBFFE0B2FFF7E8FF10BD00BF014B1870704700BF06650040014B1870704700BF46650040014B1870704700BF2665004008B5074A137843F001031370FA20FFF715
:40244000E5FFFA20FFF7E8FF7820FFF7EBFF08BD9665004008B5044B1B7823B9FFF7E8FF0122014B1A7008BD0688FF1F044A137843F0200313703D22024B1A70704700BFE9
:4024800092640040726400400B4A13889BB243F4807343F00103138013889BB223F4807323F001039BB2138013889BB243F4007343F00203138070479664004008B5FFF7B5
:4024C000D5FFFFF7E1FF08BD10B40024094B1C70890001EBC010811C89B22F3B19801A8021331B7813F0FF0F0CBF012020465DF8044B704775640040890001EBC01000F5F3
:402500004050023080B2084B18804FF6FF71198010331B881380054B1B7813F0FF0F0CBF01200020704700BF4664004067640040054A137843F0010313701032137843F0F6
:4025400001031370704700BFA243004010B51E4C60782178FEF7E8F960792179FEF7E4F9607A217AFEF7E0F9E07C217BFEF7DCF9607D217DFEF7D8F9607E217EFEF7D4F9F9
:40258000607F217FFEF7D0F994F8220094F82010FEF7CAF994F8250094F82410FEF7C4F994F8290094F82810FEF7BEF9002408E0054B234493F82C000121FEF76DF9013448
:4025C000E4B2092CF4D910BD0888FF1F38B500232CE01846D54A52F82320D54901EB83018A63D4498A4206D992B2D14901EB830142F000528A635908CD4A02EB8000806B50
:4026000002EB81018866581CC84951F8201002EB80029163C74A914206D989B2C44A02EB800041F0005181630233DBB20B2BD0D90220012141F6FF724FF4804300F01EFB61
:40264000BB4C60700220012141F6FF724FF4804300F032FB6071637884F82C3084F82D00FEF7A2F92070FEF79FF92071227810460C210123FEF7B2F9227910460C210123E6
:40268000FEF7ACF9AC4D2078A9B246F69002FEF7B9F905F10C01207989B246F6B002FEF7B1F90220002141F6FF724FF4804300F0C5FA607284F82E00FEF776F90246207261
:4026C00008210523FEF78AF9207A002146F68402FEF798F90220012100224FF4804300F029FB607584F82F00FEF75EF90246207502218123FEF772F9207D002146F6902212
:40270000FEF780F9022001214FF4804241F6FF7300F0F0FA607684F83000FEF745F90246207602218623FEF759F9207E46F6B0210022FEF767F9042000210A4641F6FF7359
:4027400000F016FB60770120002141F6FF724FF4804300F02DFB84F82200637F84F8313084F83200FEF720F92077FEF71DF984F82000FEF719F984F82100227F1046042162
:402780000723FEF72BF994F82000022194F821202323FEF723F994F82100012194F820200023FEF71BF904F18005ADB2207F00212A46FEF727F994F82000294646F2385221
:4027C000FEF720F9A91C94F8210089B246F27342FEF718F9022001214FF48042134600F00FFAE07484F83300002406E0FEF7DCF84F4B234418730134E4B2062CF6D94C4CCA
:40280000207B0221627B2023FEF7E8F8607B0221A27B0423FEF7E2F8A07B0221E27B2023FEF7DCF8E07B0221227C0423FEF7D6F8207C0221627C0423FEF7D0F8607C0221A7
:40284000A27C0423FEF7CAF8A07C0221227B0423FEF7C4F8227AD200207B46F6040102F5F0420432FEF7CEF8607B46F6100146F62402FEF7C7F8227DD200A07B46F6040139
:4028800002F5F0420432FEF7BDF8227ED200E07B46F6040102F5F0420632FEF7B3F8627DD200207C46F6040102F5EC420432FEF7A9F8227FD200607C46F6040102F5F042C8
:4028C0000432FEF79FF8627FD200A07C46F6040102F5EC420432FEF795F80220002141F6FF72134600F084FA84F82500FEF75CF884F82400022000214FF4804241F6FF73FC
:4029000000F096FA84F82900FEF74EF884F828000221FF228523FEF761F894F8253084F8343094F8293084F8353038BD883800000888FF1FFFFFFE1F4481FF1F38B5054639
:40294000FF2404E0013CE4B20120FEF781F8054B1B782B4201D1002CF4D10CB1002038BD102038BD66650040024A137843F00203137070477565004008B500F081FA084AFC
:40298000137843F02003137000F07EFAFFF7DEFDFFF7EAFF034A137843F00103137008BD9A65004075650040054A92F8843040EA431343F4404303490B8082F88500704797
:4029C0000888FF1F506A004000F01F00054A92F8853043EA401343F4404303490B8082F8840070470888FF1F506A004008B50420FFF7EAFF08BD00BF08B50120FFF7D4FF39
:402A0000FFF7F4FF00F03CFA144A137843F0010313700132137843F00103137000F034FA1E220F4B1A70082203F2DA231A800D4A02F138039BB20C490B803F210B4B197083
:402A4000382103F58273197092F886302BB9FFF7BDFD0122034B83F8862008BD986500408A6500400888FF1F446800407064004008B5064B93F887302BB9FFF7BDFF012239
:402A8000024B83F88720FFF777FF08BD0888FF1F2DE9F8430646884617460024012046E02146264B33F81430B3423ED8234A02EB44029289B24238D33825E54015F00105FC
:402AC00001D17F00BFB2921B013297422DD8F31A9BB21DB15B009BB27F00BFB2DFF8649009EB81018D6E1D44022000212A0C41F6FF7300F07DF989F8250099F82400394697
:402B0000FF228723FDF76AFF99F82400A9B21FFA88F2FDF777FF0A4B1B7899F825000121FDF70EFF0120FFF709FF0134E4B2052C01D80028B4D1BDE8F88300BF4481FF1F3C
:402B4000666500400888FF1F2DE9F8430646884617460024012046E02146264B33F81430B3423ED8234A02EB44029289B24238D33825E54015F0010501D17F00BFB2921B61
:402B8000013297422DD8F31A9BB21DB15B009BB27F00BFB2DFF8649009EB81018D6E1D440220002141F6FF722B0C00F021F989F8250099F824003946FF228723FDF70EFFD5
:402BC00099F824001FFA88F1AAB2FDF71BFF0A4B1B7899F825000121FDF7B2FE0120FFF7ADFE0134E4B2052C01D80028B4D1BDE8F88300BF4481FF1F666500400888FF1F01
:402C0000F0B583B086460F4616461D460A4C0023237000930193184671463A46FDF7A0FE207831462A46FDF765FE20780221FDF74FFE207803B0F0BD5C87FF1FF0B583B0DF
:402C400086460F4616461D460B4C06232370002200920192184671463A46FDF781FE207831462A46FDF746FE20780221FDF730FE207803B0F0BD00BF5D87FF1FF0B583B0ED
:402C800086460F4616461D460A4C0820207000230093019371463A46FDF762FE207831462A46FDF727FE20780221FDF711FE207803B0F0BD5E87FF1FF0B583B086460F4607
:402CC00016461D460A4C0320207000230093019371463A46FDF744FE207831462A46FDF709FE20780221FDF7F3FD207803B0F0BD5F87FF1FF0B583B086460F4616461D4688
:402D00000B4C09232370002200920192184671463A46FDF725FE207831462A46FDF7EAFD20780221FDF7D4FD207803B0F0BD00BF6087FF1FF0B583B086460F4616461D463C
:402D40000A4C0720207000230093019371463A46FDF706FE207831462A46FDF7CBFD20780221FDF7B5FD207803B0F0BD6187FF1FF0B583B086460F4616461D460B4C012300
:402D80002370002200920192184671463A46FDF7E7FD207831462A46FDF7ACFD20780221FDF796FD207803B0F0BD00BF6287FF1FF0B583B084468E4617461E460B4C0225FB
:402DC0002570002300930193284661467246FDF7C7FD207839463246FDF78CFD20782946FDF776FD207803B0F0BD00BF6387FF1FF0B583B086460F4616461D460B4C042300
:402E00002370002200920192184671463A46FDF7A7FD207831462A46FDF76CFD20780221FDF756FD207803B0F0BD00BF6487FF1FF0B583B086460F4616461D460B4C0523B6
:402E40002370002200920192184671463A46FDF787FD207831462A46FDF74CFD20780221FDF736FD207803B0F0BD00BF6587FF1F0230800803D000BF01380046FCD17047BD
:402E8000EFF3108072B6704780F31088704700BF08B5124B1B7803F00303012B02D0022B04D00FE00D4B1B79DBB20CE00B4B1B7903F07F0303EB43039B00094A13449B785C
:402EC000DBB200E00023074A1268D35C022B02D1FEF782F808BD002008BD00BF00600040DC88FF1FBC88FF1F014B1868704700BFC887FF1F0E4B70B51E460E4C0025E41ADE
:402F0000A410A54204D056F8253098470135F8E701F09EFE084B094C1E46E41AA4100025A54204D056F8253098470135F8E770BD5C4C00005C4C00005C4C0000644C0000F4
:402F400010B5431E0A44914204D011F8014B03F8014FF8E710BD03460244934202D003F8011BFAE7704700000EB400B54FF402719CB0ADF814106FF00041049107914FF6B1
:402F8000FF711DABADF81610084953F8042B02900690086802A9019300F064F8029B00221A701CB05DF804EB03B07047C887FF1F2DE9F0478E688246B3420C4690469946E9
:402FC00040D38A8912F4906F3AD02568096902236F1A656905EB450595FBF3F57B1C4B449D4238BF1D4653050FD5294600F030FB064698B121693A46FFF7A2FFA38923F4D1
:40300000906343F08003A38113E02A4600F076FB064670B95046216900F0D6FA0C23CAF80030A3894FF0FF3043F04003A381BDE8F08726613E4426604E466561ED1BA56043
:40304000B14500D24E4632462068414600F0A0FAA36800209B1BA36023681E442660BDE8F08700002DE9F0439DB003938B8906461C060D4690460CD50B6953B9402100F0E7
:40308000E7FA2860286110B90C233360CCE040236B610023099320238DF8293030238DF82A3043461C4613F8012B1AB9B4EB08090FD002E0252AF5D1F8E7304629464246DF
:4030C0004B46FFF775FF013000F0A980099B4B4409932378002B00F0A28000234FF0FF3204930793059206938DF853301A9304F101084446DFF8489121784846052200F0C5
:4031000039FA08F10108049B30B1C9EB00000122824013430493ECE7D80644BF20228DF85320190744BF2B228DF8532022782A2A02D0079923460EE0039A0134111D1268CD
:403140000391002ABBBF524243F0020307920792B8BF04930AE01C4622780133303A092A03D80A2000FB0121F5E7079123782E2B1AD163782A2B0AD1039B02341A1D1B6846
:403180000392002BB8BF4FF0FF3305930CE0611C00220C4623780131303B092B03D80A2000FB0232F5E70592DFF8988021784046032200F0DFF938B1049AC8EB0000402347
:4031C000834013430493013421781A48062204F101088DF8281000F0CDF988B1164B33B9039B073323F007030833039313E003AB0093304604A92A46104BAFF3008007E0DF
:4032000003AB0093304604A92A460C4B00F092F8421C074603D0099B3B44099341E7AB895B0601D4099801E04FF0FF301DB0BDE8F08300BF244C000000000000B12F000036
:403240001A4C0000204C00002DE9F84391461F468A680B6906469342B8BF1346C9F8003091F843200C46DDF8208012B10133C9F800302368990642BFD9F800300233C9F8EA
:403280000030256815F006051CD094F843302268003318BF012392061FD5E118302081F843005A1C94F845102244023382F8431013E03046394604F119020123C0470130FA
:4032C00007D00135E368D9F800209B1A9D42F0DBDBE74FF0FF30BDE8F8833046394604F14302C0470130F4D02268D9F80050E36802F00602042A08BF5D1B2269A3680CBFED
:4033000025EAE57500259342C4BF9B1AED184FF00009A9450ADA3046394604F11A020123C0470130D5D009F10109F2E70020BDE8F88300002DE9FF410C461746227E98462C
:403340006E2A06460A9B01F1430100F0B08012D8632A23D00AD8002A00F0BD80582A40F0CC8084F84520DFF804E257E0642A1ED0692A1CD0C1E0732A00F0B18009D86F2A24
:403380002ED0702A40F0B980226842F0200222603FE0752A24D0782A3BD0AEE01A6804F14205111D1960136884F84230A9E020681A6810F0800F02D0101D186008E010F070
:4033C000400F02F10400186002D0B2F9003000E01368002B3EDA2D225B4284F8432039E020681A6810F0800F02D0101D186007E010F0400F02F10400186001D0138800E0DF
:403400001368227EDFF864E16F2A0CBF08220A221CE07822DFF858E184F845202268186812F0800F00F104051D6003D1550601D5038800E00368D00744BF42F02002226077
:403440001BB9226822F0200222601022002084F8430002E0DFF814E10A226568002DA8BF2068A560A4BF20F00400206003B965B10D46B3FBF2F002FB10331EF8033005F82D
:40348000013D03460028F4D100E00D46082A0BD12368DA0708D5236962689A42DEBF302305F8013C05F1FF35491B21612EE025681A6815F0800F606903D0151D1D6013682B
:4034C00008E015F0400F02F104051D60136801D0188000E01860002323610D4616E01A68111D1960156800212846626800F042F808B1401B6060636804E004F1420584F887
:40350000422001232361002384F84330CDF800803046214603AA3B46FFF796FE013002D14FF0FF301FE0304639462A462369C0470130F5D023689B0705D4E068039B984270
:40354000B8BF18460FE00025E368039A9B1A9D42F3DA3046394604F119020123C0470130DED00135F0E704B0BDE8F0812B4C00003C4C000010B5C9B202449042034605D0BE
:403580001C7801308C42F8D1184610BD002010BD814210B501EB020301D3421E0BE09842FBD28118D21AD34204D013F8014D01F8014DF8E710BD994204D011F8014B02F8A0
:4035C000014FF8E710BD000030B500293CD051F8042C0B1F1D49002AB8BF9B180A680C4612B95A600B6030BD93420DD219685818904201BF5A5852181A60426823605A6003
:4036000030BD994203D80A4651680029F9D1146815199D420AD11B682344D0188842136012D10868034413604B680CE002D90C23036030BD1C681819884201BF0868496812
:40364000001918605960536030BD00BF9488FF1F70B5CC1C24F0030408340C2C38BF0C24002C064603DA0C233360002070BD8C42F9D3204A136810461946A1B10A68121B1B
:403680000ED40B2A03D90A608B188C501FE08B420BBF5A684A6802605A6018BF0B4616E00B464968E9E7144D2B681BB9304600F04BF828603046214600F046F8421C03466D
:4036C000D1D0C51C25F0030585420AD11C6003F10B001A1D20F00700821A0AD05142995070BD3046E91A00F02FF80130BBD02B46ECE770BD9488FF1F9088FF1FF8B507467A
:4037000015460E4621B91146BDE8F840FFF7A0BF1AB9FFF759FF2846F8BD00F025F8A8420ED238462946FFF793FF044650B131462A46FFF705FC38463146FFF745FF01E0AE
:403740003046F8BD2046F8BD38B5064C0023054608462360FCF78EFD431C02D1236803B12B6038BD6C91FF1F51F8040C0028BEBF091851F8043CC018043870470000000088
:4037800054455354000000004D44494F20686F7374000000534554204D44494F20616464726573733A203078383030300A0D00004144523A0000000052656164204D44491F
:4037C0004F3A000052443A003078253034580A0D00000000756E6B6E6F776E206461746120286F6E6C79202771272C2027772720696D706C656D656E746564290A0D000018
:403800000D0A48656C6C6F2066726F6D2043797072657373210D0A0040510040200000000140001000140140000480180140800300400140000A004C0140000200500140C6
:4038400020000000105101403C0E0048060060520040440E00480600001801404C0E00488000000030313233343536373839414243444546000000003031323334353637A3
:403880003839414243444546488FFF1FB8420000488EFF1FB83E0000488DFF1FB83A00004889FF1FB8380000488AFF1F5C83FF1F488CFF1F5C81FF1F00000800FF00020082
:4038C000FF000200FF000200FF000200FF000200FF000200FF000200FF000200FF000200FF000200FF000200FF000200FF000200FF000200FF000200FF000200FF000200B8
:40390000FF000200FF000200FF000200FF000200FF000200FF000200FF000200FF000200FF000200FF000200FF000200FF000200FF000200FF000200FF000200FF00020077
:40394000FF000200FF000200FF000200FF000200FF000200FF000200FF000200FF000200FF000200FF000200FF000200FF000200FF000200FF000200FF000200FF00020037
:40398000FF000200FF000200FF000200FF000200FF000200FF000200FF000200FF000200FF000200FF000200FF000200FF000200FF000200FF000200FF000200FF000200F7
:4039C000FF000200FF000200FF000200FF000200FF000200FF000200FF000200FF000200FF000200FF000200FF000200FF000200FF000200FF000200FF000200FF000200B7
:403A0000FF000200FF000200FF000200FF000200FF000200FF000200FF000200FF000200FF000200FF000200FF000200FF000200FF000200FF000200FF000200FF00020076
:403A4000FF000200FF000200FF000200FF000200FF000200FF000200FF000200FF000200FF000200FF000200FF000200FF000200FF000200FF000200FF000200FF00020036
:403A8000FF000200FF000200FF000200FF000200FF000200FF000200FF000200FF000200FF000200FF000200FF000200FF000200FF000200FF000200FFFF0200FFFF0200F8
:403AC000FFFF0200FFFF0200FFFF0200FFFF0200FFFF0200FFFF0200FFFF0200FFFF0200FFFF0200FFFF0200FFFF0200FFFF0200FFFF0200FFFF0200FFFF0200FFFF0200C6
:403B0000FFFF0200FFFF0200FFFF0200FFFF0200FFFF0200FFFF0200FFFF0200FFFF0200FFFF0200FFFF0200FFFF0200FFFF0200FFFF0200FFFF0200FFFF0200FFFF020085
:403B4000FFFF0200FFFF0200FFFF0200FFFF0200FFFF0200FFFF0200FFFF0200FFFF0200FFFF0200FFFF0200FFFF0200FFFF0200FFFF0200FFFF0200FFFF0200FFFF020045
:403B8000FFFF0200FFFF0200FFFF0200FFFF0200FFFF0200FFFF0200FFFF0200FFFF0200FFFF0200FFFF0200FFFF0200FFFF0200FFFF0200FFFF0200FFFF0200FFFF020005
:403BC000FFFF0200FFFF0200FFFF0200FFFF0200FFFF0200FFFF0200FFFF0200FFFF0200FFFF0200FFFF0200FFFF0200FFFF0200FFFF0200FFFF0200FFFF0200FFFF0200C5
:403C0000FFFF0200FFFF0200FFFF0200FFFF0200FFFF0200FFFF0200FFFF0200FFFF0200FFFF0200FFFF0200FFFF0200FFFF0200FFFF0200FFFF0200FFFF0200FFFF020084
:403C4000FFFF0200FFFF0200FFFF0200FFFF0200FFFF0200FFFF0200FFFF0200FFFF0200FFFF0200FFFF0200FFFF0200FFFF0200FFFF0200FFFF0200FFFF0200FFFF020044
:403C8000FFFF0200FFFF0200FFFF0200FFFF0200FFFF0200FFFF0200FFFF0200FFFF0200FFFF0200FFFF0200FFFF0200FFFF0200FFFF0200FFFF0200FFFF0200FFFF020004
:403CC000FFFF0200FFFF0200FFFF0200FFFF0200FFFF0200FFFF0200FFFF0200FFFF0200FFFF0200FFFF0200FFFF0200FFFF0200FFFF0200FFFF0200FFFF0200FFFF0200C4
:403D0000FFFF0200FFFF0200FFFF0200FFFF0200FFFF0200FFFF0200FFFF0200FFFF0200FFFF0200FFFF0200FFFF0200FFFF0200FFFF0200FFFF0200FFFF0200FFFF020083
:403D4000FFFF0200FFFF0200FFFF0200FFFF0200FFFF0200FFFF0200FFFF0200FFFF0200FFFF0200FFFF0200FFFF0200FFFF0200FFFF0200FFFF0200FFFF0200FFFF020043
:403D8000FFFF0200FFFF0200FFFF0200FFFF0200FFFF0200FFFF0200FFFF0200FFFF0200FFFF0200FFFF0200FFFF0200FFFF0200FFFF0200FFFF0200FFFF0200FFFF020003
:403DC000FFFF0200FFFF0200FFFF0200FFFF0200FFFF0200FFFF0200FFFF0200FFFF0200FFFF0200FFFF0200FFFF0200FFFF0200FFFF0200FFFF0200FFFF0200FFFF0200C3
:403E0000FFFF0200FFFF0200FFFF0200FFFF0200FFFF0200FFFF0200FFFF0200FFFF0200FFFF0200FFFF0200FFFF0200FFFF0200FFFF0200FFFF0200FFFF0200FFFF020082
:403E4000FFFF0200FFFF0200FFFF0200FFFF0200FFFF0200FFFF0200FFFF0200FFFF0200FFFF0200FFFF0200FFFF0200FFFF0200FFFF0200FFFF0200FFFF0200FFFF020042
:403E8000FFFF0200FFFF0200FFFF0200FFFF0200FFFF0200FFFF0200FFFF0200FFFF0200FFFF0200FFFF0200FFFF0200FFFF0200FFFF020000FF0200000000000000000001
:403EC00000000000000000000000000000000000000000000000000000000000000000000000000000000000000000000000000000000000000000000000000000000000C2
:403F00000000000000000000000000000000000000000000000000000000000000000000000000000000000000000000000000000000000000000000000000000000000081
:403F40000000000000000000000000000000000000000000000000000000000000000000000000000000000000000000000000000000000000000000000000000000000041
:403F80000000000000000000000000000000000000000000000000000000000000000000000000000000000000000000000000000000000000000000000000000000000001
:404A8000000000000000000000000000000000000000000000000000000000000000000000000000000000000000000000000000000000000000000001000000C04A0000EB
:404AC00001000000044C0000000000000000000001000000D84A000001000000C04B000003000000044B00000000000000000000000000000000000000000000004B000099
:404B0000020A000000008103080002000100820240000A000100030240000A0002030000040309042C0343007900700072006500730073002000530065006D00690063007A
:404B40006F006E0064007500630074006F007200100355005300420055004100520054003803430044004300200043006F006D006D0075006E0069006300610074006900F0
:404B80006F006E00200049006E007400650072006600610063006500260343004400430020004400610074006100200049006E007400650072006600610063006500000029
:404BC000090243000201018032090400000102020103052400100104240202052406000105240100010705810308000A09040100020A000004070582024000000705030239
:404C0000400000001201000202000008B40432F201000102800100004300232D302B2000686C4C00656667454647003031323334353637383941424344454600303132331A
:404C400034353637383961626364656600000000F8B500BFF8BC08BC9E4670474D000000F1020000F8B500BFF8BC08BC9E46704729000000884C00000881FF1FC8060000E8
:404C8000A009000000000000000000007091FF1F7F800000FF0300000000E02EC05D00001800000000366E0100C2010000000800C201000000080000A120000000000200EA
:404CC0000000000000800084008800A000A200A4FF81FF84FF887FA0FFA27FA4FFFF0200FFFF0200FFFF0200FFFF0200FFFF0200FFFF0200FFFF0200FFFF0200FFFF0200D5
:404D0000FFFF0200FFFF0200FFFF0200FFFF0200FFFF0200FFFF0200FFFF0200FFFF0200FFFF0200FFFF0200FFFF0200FFFF0200FFFF0200FFFF0200FFFF0200FFFF020073
:404D4000FFFF0200FFFF0200FFFF0200FFFF0200FFFF0200FFFF0200FFFF0200FFFF0200FFFF0200FFFF0200FFFF0200FFFF0200FFFF0200FFFF0200FFFF0200FFFF020033
:404D8000FFFF0200FFFF0200FFFF0200FFFF0200FFFF0200FFFF0200FFFF0200FFFF0200FFFF0200FFFF0200FFFF0200FFFF0200FFFF0200FFFF0200FFFF0200FFFF0200F3
:404DC000FFFF0200FFFF0200FFFF0200FFFF0200FFFF0200FFFF0200FFFF0200FFFF0200FFFF0200FFFF0200FFFF0200FFFF0200FFFF0200FFFF0200FFFF0200FFFF0200B3
:404E0000FFFF0200FFFF0200FFFF0200FFFF0200FFFF0200FFFF0200FFFF0200FFFF0200FFFF0200FFFF0200FFFF0200FFFF0200FFFF0200FFFF0200FFFF0200FFFF020072
:404E4000FFFF0200FFFF0200FFFF0200FFFF0200FFFF0200FFFF0200FFFF0200FFFF0200FFFF0200FFFF0200FFFF0200FFFF0200FFFF0200FFFF0200FFFF0200FFFF020032
:404E8000FFFF0200FFFF0200FFFF0200FFFF0200FFFF0200FFFF0200FFFF0200FFFF0200FFFF0200FFFF0200FFFF0200FFFF0200FFFF0200FFFF0200FFFF0200FFFF0200F2
:404EC000FFFF0200FFFF0200FFFF0200FFFF0200FFFF0200FFFF0200FFFF0200FFFF0200FFFF0200FFFF0200FFFF0200FFFF0200FFFF0200FFFF0200FFFF0200FFFF0200B2
:404F0000FFFF0200FFFF0200FFFF0200FFFF0200FFFF0200FFFF0200FFFF0200FFFF0200FFFF0200FFFF0200FFFF0200FFFF0200FFFF0200FFFF0200FFFF0200FFFF020071
:404F4000FFFF0200FFFF0200FFFF0200FFFF0200FFFF0200FFFF0200FFFF0200FFFF0200FFFF0200FFFF0200FFFF0200FFFF0200FFFF0200FFFF0200FFFF0200FFFF020031
:404F8000FFFF0200FFFF0200FFFF0200FFFF0200FFFF0200FFFF0200FFFF0200FFFF0200FFFF0200FFFF0200FFFF0200FFFF0200FFFF0200FFFF0200FFFF0200FFFF0200F1
:404FC000FFFF0200FFFF0200FFFF0200FFFF0200FFFF0200FFFF0200FFFF0200FFFF0200FFFF0200FFFF0200FFFF0200FFFF0200FFFF0200FFFF0200FFFF0200FFFF0200B1
:40500000FFFF0200FFFF0200FFFF0200FFFF0200FFFF0200FFFF0200FFFF0200FFFF0200FFFF0200FFFF0200FFFF0200FFFF0200FFFF0200FFFF0200FFFF0200FFFF020070
:40504000FFFF0200FFFF0200FFFF0200FFFF0200FFFF0200FFFF0200FFFF0200FFFF0200FFFF0200FFFF0200FFFF0200FFFF0200FFFF0200FFFF0200FFFF0200FFFF020030
:40508000FFFF0200FFFF0200FFFF0200FFFF0200FFFF0200FFFF0200FFFF0200FFFF0200FFFF0200FFFF0200FFFF0200FFFF0200FFFF0200FFFF0200FFFF0200FFFF0200F0
:4050C000FFFF0200FFFF0200FFFF0200FFFF0200FFFF0200FFFF0200FFFF0200FFFF0200FFFF0200FFFF0200FFFF0200FFFF0200FFFF0200FFFF0200FFFF0200FFFF0200B0
:40510000FFFF0200FFFF0200FFFF0200FFFF0200FFFF0200FFFF0200FFFF0200FFFF0200FFFF0200FFFF0200FFFF0200FFFF0200FFFF0200FFFF0200FFFF0200FFFF02006F
:40514000FFFF0200FFFF0200FFFF0200FFFF0200FFFF0200FFFF0200FFFF0200FFFF0200FFFF0200FFFF0200FFFF0200FFFF0200FFFF0200FFFF0200FFFF0200FFFF02002F
:40518000FFFF0200FFFF0200FFFF0200FFFF0200FFFF0200FFFF0200FFFF0200FFFF0200FFFF0200FFFF0200FFFF0200FFFF0200FFFF0200FFFF0200FFFF0200FFFF0200EF
:4051C000FFFF0200FFFF0200FFFF0200FFFF0200FFFF0200FFFF0200FFFF0200FFFF0200FFFF0200FFFF0200FFFF0200FFFF0200FFFF0200FFFF0200FFFF0200FFFF0200AF
:40520000FFFF0200FFFF0200FFFF0200FFFF0200FFFF0200FFFF0200FFFF0200FFFF0200FFFF0200FFFF0200FFFF0200FFFF0200FFFF0200FFFF0200FFFF0200FFFF02006E
:40524000FFFF0200FFFF0200FFFF0200FFFF0200FFFF0200FFFF0200FFFF0200FFFF0200FFFF0200FFFF0200FFFF0200FFFF0200FFFF0200FFFF0200FFFF0200FFFF02002E
:40528000FFFF0200FFFF0200FFFF0200FFFF0200FFFF0200FFFF0200FFFF0200FFFF0200FFFF0200FFFF0200FFFF0200FFFF0200FFFF0200FFFF0200FFFF0200FFFF0200EE
:4052C000FFFF0200FFFF0200FFFF0200FFFF0200FFFF0200FFFF0200FFFF0200FFFFFFFFFFFFFFFFFFFF0000000000000000000000000000000000000000000000000000B8
:405300000000000000000000184C00000000000000000000000000000000000000000000000000000000000000000000000000000000000000000000000000000000000009
:4053400000000000000000006887FF1F0000000000000000000000000000000000000000000000000000000000000000000000000000000000000000000000000000000020
:4053800000000000000000000000000000000000000000000000000000000000000000000000000000000000000000000000000000000000000000000000000000000000ED
:4053C00000000000000000000000000000000000000000000000000000000000000000000000000000000000000000000000000000000000000000000000000000000000AD
:40540000000000000000000000000000000000000000000000000000000000000000000000000000000000000000000000000000000000000000000000000000000000006C
:40544000000000000000000000000000000000000000000000000000000000000000000000000000000000000000000000000000000000000000000000000000000000002C
:020000040003F7
:0200000480007A
:4000000001450040055200400164004001650040520001402A010140600201404B0301404D04014054050140590601405A0701405E08014056090140490A0140430B01404F
:400040000D0D0140020F014047140140511501405C16014058170140281801405F190140421A0140551B01401C400140184101401D4201401143014002440140014501402B
:400080000246014009470140134801400A49014007500140025101407E0200010180300831087C40823F8A1E000803010410070208050A320B040C050E9A0F08100113803D
:4000C000140316BC1740188E1A211B201E411F102001224025AA26412755280129F02B0F2C022DCC2F3332C035FF363F52FF580459045B045C115D105F01868088228ADC88
:400100008C528EA59441968E98A19A58A004A2C0AA10AE01B080B23FB440C040C106C510C620C80AC9FFCAFFCBFFCDA0CF04D018D804DA04DC01DD02DF01E040E2C0E440F3
:40014000E540E6C0E8C0EAC0ECC0EEC001A8024005A809A80B800D28119A12011601171219801A021B081D0A1E08200429042B052C402F4030AA38AA47014D014F20571058
:4001800068AA70558140820C839886408D02C0EFC26FC4DFCA0ECC0FCE0FD080D220E65008180A030C180E05100E12011C171E08300E3210360138083E444052410349FF99
:4001C0004AFF4BFF5602573758045A045B045D015F01609061BC641065116660676C6840696C6AC06E406F2084848640872088038A3C8D018E0194C1951F961E978098C22A
:4002000099D29A319B249F40A008A202A302A559A724A820A901AC60ADA4AE8FAF4AB180B2C0B43FB57FBA08C052C103C690C9FFCAFFCBFFCC03CD03D20ED608D804D90402
:40024000DA04DB04DC11DD11DF01E090E1BCE410E511E660E76CE840E96CEAC0EE40EF20004001280420054009280E800F0110031208130219281B101E821F06212023405A
:4002800028092B503128324039083B803C803D803F804128452848024C024E0153105A405C085D045E016002670868806A086B046D406F98769581058A048C8291A19282F4
:4002C000938095109B829C409D2C9F01A108A208A565A705AA40AB02AD10B404B580C0C7C296C40BCA0FCC0ECE0AD066D218D688D828E204E601002D0104021204020501C4
:40030000071009040A020C020D200E080F0811821214141115011740180219041C271D0F1E181FF020022104242926122704280229042C022D322FCC341F35FF36203E40BE
:400340003F10580459045F01814483A18544879B880989808A168C098E128F80900491089302941195BB97449B809C079E089F80A20CA380A580AB80AD10AF43B378B5807E
:40038000B61FB707BF10D201D804D904DB04DF0100010140020403100420054009490B090C010D080E800F011080110812011314168018021A011B101C011D401F402004D0
:4003C000242025442680270829402A042BA82C802E802FAC3108328133103409375039403A113B143C013D483F10460147406E8078C08002830185108C808F4091E59360F2
:4004000094209508964197019A959B909C409D449F01A38AA440A705A840AA01AB04AC08AD10C0CFC2BFC41FCAFFCCFFCEFFE202E440E601E805EE0C0510072D0D2B0F1407
:40044000110812011504170219101D202113232C27072F20300133183507372039083B80405641024210440349FF4AFF4BFF4C024D204E704F0C500C580459045A045C08B5
:400480005F2162C0644065016701840186028702880289018A018C208E10941096209A049C0CA23BA40CAE3BAF01B103B203B40CB630B902BA88C056C102C210C403C50F91
:4004C000C60EC7BCC835C9FFCAFFCBFFCC03CD20CE70CF04D00CD40FD804D904DA04DB04DC01DF01E2C0E440E5010148030808400A190F8011041281180819041A081B88EA
:400500001E40220125202640271029402E082F42364A375038243D8840204120434044A0452046484740482049804B104D804E014F305108524A58815A205B087E2081404D
:400540008221838487048D028E80902491B5922093E0950896429702980299409B889C409D149F01A144A352A440A508A601A705A801A901AA10AB10B008B280B302B510CF
:40058000B601C007C217C40DCAD8CCF0CE56D07ED23CD60FDE40E286E404E61AEE82030207010B010D100E010F201308160117041B011E021F0121102320250E2B052E024E
:4005C0003002313033013401370E38203F01402541064333440445CF46ED480F49FF4AFF4BFF4C024D205004580459045A045C115D015F016240630164506530664267018F
:4006000068106E406F9080038302880294039D039E01A101A701AB03B103B203B808C025C106C333C404C515C604C70BC81FC9FFCAFFCBFFCC03CD23CE03D004D804D904CD
:40064000DA04DC11DD01DF01E240E301E450E530E640E701E810EE40EF900020024004400B220D400E20133016011B041C081D012080210125842604274028A82C102F4867
:4006800030803688372139023C083EA24080412042044304448045204704481049204A014B424C044D2A4F40510452405310555060806102804082408340858086808908F1
:4006C0008D508F0490AC94029612971898AA9A2D9B019D019E109F0CA001A120A280A340A484A663A70CB101B310B560C08AC2A5C480CAE7CCF8CEF1D0E7D23CE2C2E40179
:40070000E610E850EE020304041F07120804093F0C090F09102212081304151F16021720180919031B041D041E021F18221023042401251F26622720280B2B3F2E0230404F
:400740003220341F3620373F3A303E40580459045C115F01800881038240842586CA870288DB8A048B0B930F9620970399089A429C359EC29F03A308A680A86EA901AA90B6
:40078000AC20AE01B104B21FB4E4B508B703B980D804D904DC11DF0100040160040A0504070408400A920B280E220F081018128213181610175018041AA11B201D2420029C
:4007C0002280248026102701284829202B202C802F08301832423408366239523B083C083E12400241204201431058205A20824889108A808F409020940898809A279D0152
:40080000A340A520A611A704AA05AB44AE10C077C2EFC4EFCAA7CCFFCEEFE010E202812082018A028C9094089A209D01B404B620E090E440EA10EC408D01E640020F061007
:40084000070208030B040C040E080F08120213801720180B1A041B401F10200121F0230F240325AA2604275529CC2A032B332F01301031FF360F402349FF4AFF4BFF52FF7B
:40088000580459045A045B045C115D115F01624063EC82028404860288018F019402960C9A019E0EA408A602B001B101B20EC023C9FFCAFFCBFFD207D804D904DA04DB0466
:4008C000DC11DD11DF01E640E7EC000801A0034004020508070408020B080D200E1211181240162019801B021E101F01208026012740280829042A802B8030803214330111
:4009000038A83D804120430C4520470468806A286B016C286D8070547280802882018480858089108E019002930896109702980A992C9A609CA09E01A004A124A388A46001
:40094000A601A702A808A908AD40B008B104B208B301C07FC2EAC42ECA0FCC0FCE1ED066E009E204E603EA01EC08EE040301041C062008010A020E081303142016141A209F
:400980001E102402260127023003320C33013430350239803A203E014040410246104702481849FF4AFF4BFF4DA04F0450185403580459045A045B045C215D125F01604003
:4009C00062C06440654066C068C06AC06CC06EC082308402860187018B028D018E488F029020921094019510972098489B109C409E08A207A404A631A904AA48AB28AC114A
:400A0000AD08AE26AF04B030B207B303B408B530B640B70CBA02D608D804D904DB04DC11DD10DF01010A020104240702088009100A900D500E201048114012101704197071
:400A40001AA11B011C041D201E601F082008210423022420260827052B062F2030203108370139083B603C083D013F0846044701560457205B405D105F806240663078406D
:400A80007A01827083408508864088408C018D548E108F0291B59368950896119702980299069A209B809C209D189F05A380A440A621A701AB14AC21B404C0EDC2EFC42F02
:400AC000CA4CCC86CE8ED0A0D638D808E009E292E602E80188028C01900294029E02A002B201B602BE04C052C103C260C404C6F0C70BC819C9FFCAF3CBFFCC43CE73CF045D
:400B0000D008D804DA04DC01DD01DF01E240E301E4C0E6D0E810E9ACEA10EBD4EC40EDACEE40EFA800A00201040A0601070409800AA00C040D010E040F0211011480154026
:400B4000161819081A021E421F0224022510270529102B042D222E042F013488351037013A203B103DA03F05400441024220431045064710480149044A044B404F505208A4
:400B8000531058045B0878807A018301844087188A108B248C048D408E108F0190AC914892049402958096529798982299229A0C9E129F0CA041A146A204A344A480A67B68
:400BC000AA80B010B201B708C0F3C2FDC4F8CAF0CCF0CEF0D0E7D23CE040E280E420E650E810020F0501080C09010A030D031005120A13011403160C1A0F1C081E041F015F
:400C00002101220F270128022A012B032C032E0C2F0231033203360C3A8856025732580459045B045C115D105F0180018202860B87038A048C048D018F0292109418960437
:400C4000980B9E10A00BA402A601AA10AD02AE04AF01B003B103B204B408B610BA02D804D904DC11DF010020010204A80501082009020A220C040D400E140F801044114197
:400C80001481150816041A121D011EA21F2422022440284129242D022E022F02300231803401360239143A803C403E0859086002681269556AA0718072C280808140824186
:400CC000862187108A108D208E0890A8910892049440950196B0971898A2990C9A049E02A102A342A490A580A662A720A848AA02AF01B101B210B340C0FAC2FFC4FBCA1F70
:400D0000CC09CE5ED602D808E010E280E8A0EC8012201308150418801B401D081F043040310434023710380139203D043F2042028040835487088C018F10C430C670CCF043
:400D4000CEF0D010E0B0E6A01708302038023C103F08420455046320930895209C429D049E02A304AA20AD08C420CC10CEE0D010D440D840E840EC8000040408468048049C
:400D8000518054108001851087048C0493089412952096049C429D049E02A420A504AB18C030D080D210D460E240E410E620E820EE80842085808A028E80900894109604ED
:400DC0009C409D049E82A424A584AC02B010E240E640EE405501D604A5018508A5010A040B200D08810186049720A509AF10C20E800481048404860488408C10900894106F
:400E000096049A209C409D04A404A504AA20E260E480E640EA2012807220810482809A209D04C410DC80E420E680000708070A030C0210061A061C0200BF010A6AAA0900E4
:400E400000000000020600000A0000000406000001003E101FFF000000800100012000000006010007003801014000052980060000A910520108009000060200200000003F
:400E8000007F1F800000003000000000520630000400000000FFFFFFC20070040800000000000000040404001101000100004001C000D00010AC10D440AC40A800000000B9
:400EC00000000000000000000000000000C1C100C10000000F0000020F00070000070000000A0005000000004000000000000000C0000000000B0B0000000000007F7F005E
:400F0000000000000000000000000100000C0C0008000000000100000004000000050000000600000009000000000000000000000000000000000000000000000000000077
:400F40000000000000000000000000000000000000000000000000000000000000000000000000000000000000000000000000000000000000000000000000000000000071
:400F80000000000000000000000000000000000000000000000000000000000000000000000000000000000000000000000000000000000000000000000000000000000031
:400FC00000000000000000000000000000000000000000000000000000000000000000000000000000000000000000000000000000000000000000000000000000000000F1
:4010000000000000000000000000000000000000000000000000000000000000000000000000000000000000000000000000000000000000000000000000000000000000B0
:0200000490006A
:0400000000004005B7
:0200000490105A
:04000000BC90ACAF55
:0200000490303A
:02000000916EFF
:0200000490402A
:4000000000000000000000000000000000000000000000000000000000000000000000000000000000000000000000000000000000000000000000000000000000000000C0
:400040000000000000000000000000000000000000000000000000000000000000000000000000000000000000000000000000000000000000000000000000000000000080
:400080000000000000000000000000000000000000000000000000000000000000000000000000000000000000000000000000000000000000000000000000000000000040
:4000C0000000000000000000000000000000000000000000000000000000000000000000000000000000000000000000000000000000000000000000000000000000000000
:0200000490501A
:0C00000000012E12306900012E32C1D721
:00000001FF