:400000000080002011000000610100006101000008B5044B1A6803F53F5302331A6000F0A7F800BFFA46004010B5054C237833B9044B13B10448AFF300800123237010BD14
:40004000A081FF1F0000000030220000084B10B51BB108480849AFF300800848036803B910BD074B002BFBD0BDE81040184700BF0000000030220000A481FF1F0881FF1F6D
:400080000000000030B591B062B601F097FF00F0A1FA00F0D9FA62B60020012100F0A2FC02F010F800F064FB02F036F800F092FB01F0D4FF264801F027FF0120002101F0E3
:4000C0008BFF244801F020FF002500E0002500F0C7FC20B100F0BEFC08B100F0EBFD00F0B9FC0028F3D000F0A5FEE8B1684600F0B9FE0446C0B100F0A9FE0028FBD068460D
:40010000214600F023FE00201F210122124B1B8801F0DEFF402C07D100F098FE0028FBD00020014600F012FE00F0B4FE0028CED010F0020FCBD000F0C9FE10F0010FC5D062
:40014000002DC4D1054800F027FE0125BFE700BF342200003C2200000C81FF1F4822000008B502F025F803680C2B00D1FEE7FEE708B5104E104D16E029686B68AC680022F6
:4001800004E051F8040B43F8040B0432A242F8D1E868002203E0002143F8041B04328242F9D11035013E002EE6D102F007F8FFF769FFFEE7010000002C24000008B5124A3B
:4001C000124B1A60124A136843F40073136000230AE0032B03D80F4A52F8231000E00E490E4A42F8231001332F2BF2D90C4B1A780C4B1A70094A0C4B1A6000F0E7F8002214
:400200000A4B1A6008BD00BF0004FA050CED00E014ED00E000000000610100000080FF1FBC7600400481FF1F08ED00E00081FF1FFEE700BFF0B40022174611E050F827609E
:40024000F3B226F0FF0608E001EB420511F812406D78A5550132013BDBB2002BF4D10137192FEBD9F0BC70470F4B1B78DBB203F007010E4A11701B090132137001220C4B34
:400280001A7002230B4A137002F6BD0213703022094B1A704FF48B72AE331A806622A3F534731A70704700BFCF0100496E5800403D510040CD510040985A004008B50A4641
:4002C000002101F0ACFF08BD38B51722344B1A801823344A137040F21F3102321180023213700622304B1A7043F21332EE3B1A80023B05221A701B7843F2C82404E04FF4D0
:40030000F07001F019FF013C24B1284B1B7813F0800FF4D114B90120FFF78AFF4FF40072234B1A804FF4E16203F21E231A8001224FF040231A7041F2512203F508731A8063
:40034000002419250CE01B4B1B7803F0010343EA440404F003044FF4F07001F0EDFE013D0DB1032CEFD141224FF040231A70702203F500731A700E4A0723137000230E49D0
:400380000B7048200231087013700532137002220A4B1A700A4A137843F00303137038BD804000408240004000430040104200400440004025420040064000400140004096
:4003C000A243004008B501F01FFF08BD38B572B63E4A137843F00403137000240CE03C4963001A1952000A4423445B00C8589188FFF764FF0134E4B2052CF0D900240BE06F
:400400003349A3001A1952000A44506A916A0622FFF7D8FF0134E4B2002CF1D04FF090402C49FFF707FF2C4A137843F0020313701032137843F002031370284C237843F062
:4004400040032370A2F58632513A137843F010031370234823490822FFF7B4FF224823490A22FFF7AFFF224822490522FFF7AAFF214822490A22FFF7A5FF214821490822F6
:40048000FFF7A0FF204821490822FFF79BFF204820490822FFF796FF1F4820490822FFF791FF1F4A137843F0080313701D4D01232B70FFF709FF81232B70FFF7D5FE1A48CF
:4004C00021460E22FFF77EFF38BD00BFE8460040602200006800004803500140A04300400251004070030048C051004078030048CB51004084030048F05100408C03004802
:40050000125100409803004822510040A003004832510040A803004862510040B00300482243004000480040B0430040054A137843F0020313701032137843F00203137076
:40054000704700BFA8430040054B1A7802F0FD021A701A7800F0020010431870704700BF24580040014B1870704700BF815B0040064B1B78C3F3810303F19243063393F8DB
:400580003031DBB2024A1370704700BF245800400946004008B5064B1A7802F0F3021A701A7800F00C0010431870FFF7E1FF08BD2458004010B50024054B1C7001331C7067
:4005C0000420FFF7E7FF2046FFF7BEFF10BD00BF2458004008B5074B1B7823B9FFF7EAFF0122044B1A70FFF7A1FF4B20FFF7BAFF08BD00BFBC81FF1F084A137843F060033F
:400600001370A2F5A652133A137843F0080313701032137843F008031370704777580040054B1A7802F0FC021A701A7800F0030010431870704700BF5E58004008B50320B3
:40064000FFF7EEFF08BD00BF08B5054B1B7823B90122034B1A70FFF7F1FFFFF7CDFF08BDBD81FF1F01BE704710B5044605E0084B186801F061FDA4F50044B4F5004FF6D8A4
:40068000034B586800FB04F001F056FD10BD00BF1081FF1F08B5034B1B7A03FB00F001F04BFD08BD1081FF1F70B504460E46074B1D681F2802D90020FFF7D4FF04F01F04C7
:4006C000103455F8240045F8246070BD08ED00E038B504460D46072902D90020FFF7C2FF1F2C02D90020FFF7BDFF04F01F0000F1604000F564406D01EDB2057038BD00BFAB
:40070000134B1B78DBB20360124A127843EA02230360114A127843EA024303600F4A127843EA026303600E4B1B78DBB243600D4A127843EA022343600B4A127843EA024368
:4007400043600A4A127843EA02634360704700BF0301004904010049EC4600400201004901010049000100490501004906010049054A137843F0020313701032137843F02B
:4007800002031370704700BFA2430040014B1870704700BF07640040014B1870704700BF47640040014B1870704700BF2764004008B5074A137843F001031370FF20FFF76F
:4007C000E5FFFF20FFF7E8FF7F20FFF7EBFF08BD9764004008B5044B1B7823B9FFF7E8FF0122014B1A7008BDBE81FF1FF8B501F0ABFC0746404A137843F001031370103284
:40080000137843F00103137001263C4B1E700225943B1D7002F5E2521B32137803F07F0313700020FFF736FF354C237803F0F9032370344A137803F0DF031370237833435E
:4008400023703046FFF726FF2820FFF723FF2E4B1A7802F07F021A701A7802F0BF021A7023782B4323702846FFF714FF237843F0040323700024254B1C7001331C70384644
:4008800001F066FC17200721FFF722FF17202049FFF70AFF18200721FFF71AFF18201D49FFF702FF15200721FFF712FF15201A49FFF7FAFE20460721FFF70AFF204617498F
:4008C000FFF7F2FE30460721FFF702FF30461449FFF7EAFE28460721FFF7FAFE28461149FFF7E2FE0C200721FFF7F2FE0C200E49FFF7DAFEF8BD00BFA54300409D60004046
:400900009443004012600040F85100408460004041140000291200003D1400009D130000CD130000011400004914000008B5214B18700023204A1370204A1370204A1370C3
:40094000204A1370204A1370204A1370204A1370204B4FF400021A604FF080721A604FF400121A6001221A6002221A6004221A6011B1012906D00BE0174A137803F0FE03B7
:4009800013700AE0144A137843F00103137004E0114A137803F0FE03137003220F4B1A708022203B1A70012001F0C6FB04220C4B1A7008BD7B82FF1F7A82FF1FEC81FF1FF7
:4009C000ED81FF1FEE81FF1F7E82FF1FEF81FF1FEB81FF1F00E100E009600040286000401260004038B505460C46064B1B7823B9FFF7FCFE0122034B1A7028462146FFF7C4
:400A000095FF38BDBF81FF1F00230A4A13700A4A13700A4A13700A4A13700A4A13700A4A13700A4A13700322094B1A708022203B1A7070477A82FF1FEC81FF1FED81FF1F59
:400A4000EE81FF1F7E82FF1FEF81FF1FEB81FF1F28600040014B1878704700BFED81FF1F064B1B7813F0FF0F05D0044B1878C0B200221A7070470020704700BFEC81FF1F6E
:400A800000EB40008000024B18444078704700BF0C82FF1F431EDBB2072B0BD8064B00011A18185C00F00F00537843EA0020023880B2704700207047FC5F0040431EDBB273
:400AC000072B3BD8F0B4074600EB40039B001C4C2344DB889BB2C3F500739A4207D900EB40039B002344DA88C2F5007292B200EB40039B00124C2344DB7843EA1223114DF1
:400B000004012E192B55D3B2737039B909E0CE5C3D010D4C665501339BB200E000239342F5D3430003449B00054A134400225A705A79D2B20001054B1A54F0BC704700BF1A
:400B40000C82FF1FFC5F004078600040FE5F0040431EDBB2072B0BD8430003449B00054A134400225A705A79D2B20001024B1A54704700BF0C82FF1FFE5F004070B5D9B13E
:400B8000054614460E46C8B1082819D8FFF782FFA04203D22846FFF77DFF0446002305E02901094A525CF25401339BB2A342F7D32846FFF7CDFF04E0002402E0002400E083
:400BC0000024204670BD00BF786000400246002001E0013080B2135C002BFAD1704700BF10B4FF2400220EE00A4B9B5C03EB43039B0009490B449B78DBB2834201D114469C
:400C000002220132D2B2012AEED920465DF8044B704700BFD881FF1F1482FF1F10B5204C2079FFF7DDFF237813F0800F0ED06378DBB2212B2FD11B4B07221A80C0EBC0004D
:400C4000194A1044586000F05DFB10BD144B5B78DBB2202B02D0222B10D01EE0114A07231380C0EBC00310490B4453600F4A135C43F00103135400F06DFB10BD084B9B7817
:400C80000B4A22F81030094A135C43F00203135400F0F8F910BD002010BD002010BD00BF00600040FC81FF1F2081FF1FE081FF1FE481FF1F10B500241F4B1C701F4B1C700C
:400CC0005C700AE01E4B185DC0B2431EDBB2072B01D8FFF73DFF0134E4B2012CF2D9194B1B7813F0FF0F1AD0154B1B7813F0FF0F17D0154B1B7813F0FF0F14D0114B1B784C
:400D0000DBB2082B11D80E4B1B78DBB2082B0ED80D4B1B78DBB2082B0BD8002010BD012010BD012010BD012010BD012010BD012010BD012010BD00BFC081FF1FE081FF1FCC
:400D4000D481FF1FD081FF1FD881FF1F70B506460D460E4B1B780E4AD45CE4B204EB44039B000C4A13441B899BB28B4208D204EB44039B0013441D89ADB20020FFF772FC85
:400D8000204631462A46FFF799FE70BDC081FF1FD081FF1F0C82FF1F2DE9F8438046224B1B78224AD65CF6B2FFF710FF05460027344606EB46039B001D4A13441B899BB2E0
:400DC000AB4208D206EB46039B001344B3F808901FFA89F900E0A946304608EB07014A46FFF76CFEC9EB0505ADB245B906EB46039B000F4A13441B899BB2994510D14F440F
:400E0000BFB204EB44039B00094A13445B7813F0FF0FF6D025B9304600210A46FFF74EFE002DC5D1BDE8F883C081FF1FD081FF1F0C82FF1F08B5034B1B78034AD05CFFF7AB
:400E40001FFE08BDC081FF1FD481FF1F08B5034B1B78034AD05CFFF713FE08BDC081FF1FD081FF1F08B50146074B1B78074AD05CC0B200EB40039B00054A13441A8992B2DF
:400E8000FFF77CFE08BD00BFC081FF1FD481FF1F0C82FF1F0A4B1B7813F0FF0F0CD1094B1B78094AD25C12F0FF0F07D0064AD05CC0B20021D1547047002070470020704702
:400EC0007A82FF1FC081FF1FE081FF1F034B1A78034B33F8120080B2704700BFC081FF1FE481FF1FC37803F0030390F9020000280FDA032B06D002F001030B48C15442F0A1
:400F000001020EE0C2F380030848C15442F0040207E0032B05D0C2F340030548C15442F002021046704700BFD081FF1FD881FF1FD481FF1F1C4B19781C4A13880B449BB2B7
:400F4000138000230EE01A4A51680978C9B21948C1545168013151600133DBB21188013989B21180124A128892B20AB1072BEAD90D4A1278D2B2082A00D05BB10E490A780C
:400F800082F080020A700F210C4A117002210C4A117004E0022209490A7009490A70094A1370014A13707047EB81FF1F7882FF1FFC81FF1F00600040F081FF1FEA81FF1FD2
:400FC0007A82FF1F0882FF1F0222074B1A708022064B1A700F22064B1A700023054A1370054A1370012070477A82FF1FF081FF1FEA81FF1FEB81FF1F0882FF1F08B5FFF7F0
:4010000099FF08BD10B4184B197801F00F010239C9B2164A13880B449BB21380002010E0134B5C68134A125CD2B222705A6801325A600130C0B20139C9B21A88013A92B27F
:401040001A800B4B1B889BB20BB10029E8D10A4B19700A4A137883F0800313700B22084B1A705DF8044B7047296000407882FF1FFC81FF1F006000400882FF1FF081FF1F04
:40108000EA81FF1F0623064A1370064A13708022054B1A700022054B1A700120704700BF7A82FF1FEA81FF1FF081FF1F0882FF1F064B9B6843B1054B9A6810709A68044986
:4010C0000988518000229A60704700BFFC81FF1F7882FF1F08B5134B1A78D2B21A701B78DBB213F0800F02D00F4A137008BD0220FFF7DEFF0D4B1B7803F06003202B05D013
:40110000402B06D043B900F089FC06E001F024F803E000F02BFE00E0002010B90322024B1A7008BD28600040EA81FF1F0060004008B5084B1978084A13880B449BB21380D6
:401140000022064B1A700120FFF7B2FF0322044B1A7008BDEB81FF1F7882FF1F7A82FF1FEA81FF1F08B50B4B1B78DBB2042B06D0062B07D0022B0BD1FFF7DAFF08BDFFF7CF
:4011800041FF08BD0320FFF793FF0322024B1A7008BD00BF7A82FF1FEA81FF1F08B50022044B1A700120FFF783FF0322024B1A7008BD00BF7A82FF1FEA81FF1F08B50B4BD5
:4011C0001B7813F0FF0F07D0084A137843F0800307490B70002313700022064B1A700120FFF766FF0322044B1A7008BD7E82FF1F086000407A82FF1FEA81FF1F08B5094BBA
:401200001B78DBB2042B06D0062B07D0022B07D1FFF7F4FE08BDFFF7C1FF08BDFFF7CEFF08BD00BF7A82FF1F08B5284B1B78DBB213F0100F48D013F0800F0CD003F00F03F6
:40124000012B16D1FFF746FF214B1B7813F0800F11D1012312E013F0400F03D0FFF7CEFF01230BE013F0200F07D0FFF77BFF012304E0002302E0002300E0002323B3134BC0
:401280001B7813F0800F1FD1124B1B78124A12781343124A13701278D2B29A4214D10C4B1B78DBB2094A127812F0800F07D1084B1B78DBB2054A1370137803F00F03044A5F
:4012C0001278D2B29342EAD108BD00BF28600040EA81FF1FF081FF1F0882FF1F296000400022064B1A80064B9B682BB1044A916800230B7092685380704700BF7882FF1FFE
:40130000FC81FF1F08B50F4B1B889BB213B9FFF75BFE15E002220C4B1A7000220B4B1A70FFF7DEFF0A4AD179937943EA0123054A128892B29A4201D9024A1380FFF7FAFD77
:40134000012008BDFC81FF1F7A82FF1FF081FF1F0060004008B504220B4B1A7080220B4B1A70FFF7BDFF0A4AD179937943EA0123084A128892B29A4201D9064A13800B22BB
:40138000054B1A70012008BD7A82FF1FF081FF1F00600040FC81FF1FEA81FF1F0122094B1A700F3B9B7C084B1B7B03F00303934204D0054AD37B83F08003D3730122024BCA
:4013C0005A7370470B6000400C82FF1F02220A4B1A700F3B93F82230084B1B7E03F00303012B04D0054AD37E83F08003D3760122024B5A76704700BF0B6000400C82FF1F17
:4014000004220C4B1A700F3B93F832300A4B93F8243003F00303012B06D0074A92F8273083F0800382F827300122034B83F82520704700BF0B6000400C82FF1F704700BFD2
:4014400008B5FFF7E1FA08BD08B500F09BFC08BD70B588B0054603AC174E0FCE0FC43368237035B322232B7003236B7001A8FFF747F9002402231AE008AA224412F81C2C21
:4014800008A901EB121111F8141CE954581C00212954981C02F00F0208AE324412F8142C2A54DA1CA9540134E4B20433DBB2212BE2D908B070BD00BF9022000010B4012273
:4014C0003DE0114613010C242148C45402EB42039B00204803445B7913F0FF0F12D002EB42039B0003441B7913F0800F04D01001194B03449C700AE01001174B03440820CE
:40150000987004E01001144B0344802098704B000B449B000F480344DC88E4B208010C4901448C71D888C0F30720C871D888C0B20871DB88C3F307234B710132D2B2082A4D
:40154000BFD9FF22054B1A705DF8044B704700BF706000400C82FF1FFC5F00400A600040074B1B78074A02EBC30253681A7C824203D903EBC003586970470020704700BF25
:401580007B82FF1FA4220000F8B5404B1B7813F0FF0F79D03D4B18780138C0B2FFF7E0FF047AC2683A4B1878C0B200236AE01178814264D13749095CC9B25578A9425ED129
:4015C000917801F07F01D67806F00306DFF8C8E04D000D44AD000EEB05074FF0000C87F803C092F802C087F804C092F803C00EF805C095883D8192F90250002D0DDA012E26
:4016000001D1072700E00D274D000D44AD00224E35446F7101266E700CE0012E01D1052700E009274D000D44AD001B4E35446F7100266E70DFF868E00F010EEB07060125E8
:40164000B57001FA05F529448900134D29440D89C5F307250EF807500D89EDB27570CE88F6B20E4D3D44AE71CE88C6F30726EE71CE88F6B22E71C988C1F30721697108322A
:401680000133DBB2A34292D3F8BD00BFED81FF1FEE81FF1FF881FF1F0C82FF1F70600040FC5F0040034B1A78034B03EBC2035868704700BF7B82FF1FA422000008B5074B9D
:4016C00018780138C0B2FFF74BFF28B14268127900EBC203586908BD002008BDED81FF1F2DE9F84300220EE06F4E53009D18AD00741900217155A170E1702181A17261708B
:4017000061710132D2B2082AEED940B90AE000226649CA546649CA540133DBB200E00023012BF4D9634B1B7813F0FF0F00F0B980604B18780138C0B2FFF712FF80464368F2
:40174000DB7913F0400F05D05B4A137843F00103137004E0584A137803F0FE03137098F808704FF0000901266CE0D8F80C50002464E0AB7803F07F039E425CD1314606EB18
:4017800046039B00484803441B899BB2A888834205D206EB46039B00434A134418812B784248C35CDBB26878834244D195F802C03D484B000B449B0000EB030E8EF804C07D
:4017C00095F803E000F803E0EB7803F0030395F90200002811DA012B02D14FF0070C01E04FF00D0CDFF8C0E04B0058188000704480F805C00123437012E0012B02D14FF06B
:40180000050C01E04FF0090C27484FEA410E0EEB01039B00034483F805C0194600234B70AB790A2B01D0022B05D1284631464A46FFF758FB814608350134E4B2BC4298D3EC
:401840000136F6B2082E90D9D8F80C0000220CE0837803F07F0310F8084B03EB43039B0016490B449C700132D2B2BA42F0D3FFF725FF134B1860002301210EE00A4C4A0073
:40188000501880002044C380028913449BB203F0010213449BB20131C9B20829EED9FFF70DFEBDE8F88300BF0C82FF1FF881FF1FE881FF1FED81FF1FEF81FF1F1482FF1FB3
:4018C000F481FF1F08B5154B1A7902F07F02531EDBB2072B20D8530013449B0010490B44997841F0010199700021D970597841F0020159701B7913F0800F05D01201094B36
:4019000013448D229A7004E01201064B134489229A70FFF7B7FB08BD002008BD006000400C82FF1FFC5F0040264B1B7903F07F035A1ED2B2072A43D810B55A001A44920039
:4019400021490A44917801F0FE0191700021D17019017F241D484454517801F0FD015170127912F0800F14D003EB4302920016490A445278D2B2012A05D11B0102461A449D
:401980000C23937019E01B01104A1A440D23937013E003EB430292000B490A445278D2B2012A05D11B01094A1A440823937004E01B01064A1A4409239370FFF763FB10BD53
:4019C00000207047006000400C82FF1FFC5F004010B50E4B1C79E4B20D4B18780138C0B2FFF7BEFD43681B799C4201D9022C0AD8084A135DDBB208490B55044B9B78DBB2A6
:401A00001355012010BD002010BD00BF00600040ED81FF1FF881FF1FE881FF1F10B59B4B1B78DBB200219A4A118013F0800F00F0AD80964A5278D2B20A2A00F27281DFE83C
:401A400012F06900700170017001700170010B007001920070019A008C4BDB78DBB2012B09D1FFF71FFE4268894B5A6012221A80FFF748FC10BD854BDB78DBB2022B13D10F
:401A8000824B9878FFF76CFD002800F04C8142687F4B5A605A68D1785A68927842EA01221A80FFF72FFC10BD784BDB78DBB2032B05D02CE00A7811440133DBB201E00023DB
:401AC0007449724A9278D2B29A4203D90A7812F0FF0FEFD16D4B9B7813F0FF0F0BD06B4B9B78DBB26C4A127C934204D16B4C2046FFF7AEFC21460B7813F0FF0F00F015819C
:401B00000B78634A13805160FFF7FCFB10BD00F023FB10BD13F0030317D0022B40F007815B490B80594B1B7903F07F0303EB43039B005B4A13449A78D2B25A4B1A70002239
:401B40005A704B60FFF7DEFB10BD514902230B80554B1A78D2B2534B1A7000225A704B60FFF7D0FB10BD4A4B01221A804F4A5A60FFF7C8FB10BD464A01231380434B1B7973
:401B80004B490B445360FFF7BDFB10BD3F4A5278013A0A2A00F2CD80DFE812F04B00CB009600CB000B00CB00CB00CB001300CB003000364B9B78DBB23E4A1370FFF762FADB
:401BC00010BD324B9B7803F0FF041BB1601EC0B2FFF7C6FC04B110B9002C40F0AC80334B1B78DBB29C4206D0304B1C700120324B1870FFF775FDFFF745FA10BDFFF7E8FE53
:401C0000002800F09A80214A1379DBB21279D2B22A490A702A4AD25C2549C95CD3B28B4204D00122244B1A70FFF7AEFCFFF72AFA10BD03F00303012B17D04BB1022B7ED170
:401C4000124B9B7813F0FF0F7BD1FFF76DFE10BD0E4B9B78DBB2012B75D1134A137803F0FD031370FFF70EFA10BD084B1B79DBB2012B6AD8054B98781B79DBB21149CA5CF2
:401C800022EA0002CA54FFF7FDF910BD00600040FC81FF1F0C230000F02300008082FF1F0C82FF1FC481FF1FEF81FF1FED81FF1FF881FF1F7E82FF1FEC81FF1FEE81FF1FAC
:401CC000E881FF1F7C82FF1F03F00303012B17D04BB1022B3BD1224B9B7813F0FF0F38D1FFF7F0FD10BD1E4B9B78DBB2012B32D11C4A137843F002031370FFF7C3F910BD53
:401D0000174B1B79DBB2012B27D8154B98781B79DBB21549CA5C22EA0002CA54FFF7B2F910BD002010BD002010BD002010BD002010BD002010BD002010BD002010BD0020AB
:401D400010BD002010BD002010BD002010BD002010BD002010BD002010BD002010BD00BF00600040EF81FF1F7C82FF1F044B1B7813F0800F01D0024B5B780020704700BF17
:401D800000600040024B1878C0F38010704700BF8F45004010B50B4C237803F09F032370237803F0F00323702378184340F0100020700120FEF76EFC237803F0EF0323708D
:401DC00010BD00BF2051004038B505460E4C237843F020032370237803F0BF0323700020FEF758FC237803F0F003237023781D4345F0100525700120FEF74CFC237803F06A
:401E0000EF03237038BD00BF2051004070B5354B1A7802F08002D2B21A7033490A7802F0F00242F00F020A7001310A7802F0F0020A7001310A7802F0F0020A701A7802F0B8
:401E4000DF021A701A7842F040021A704FF4CA760020FEF71FFC234D2B7843F010032B700120FEF717FC214B1C78E4B22B7803F0EF032B700020FEF70DFC04F00804E4B22A
:401E80002B7843F010032B700120FEF703FC2B7803F0EF032B7014B90A20FEF7FBFB013E0CB1002ED4D10F4A137803F0BF031370137803F08003DBB213700232137803F0D6
:401EC000F00313700132137803F0F00343F00F0313700132137803F0F00343F00F03137070BD00BF20510040225100402151004010B50446FFF78AFF2009FFF765FF04F08D
:401F00000F00FFF761FF10BD38B505460078012404E0FFF7EDFF285D0134E4B20028F8D138BD00BF10B50446FFF770FF2009FFF731FF04F00F00FFF72DFF10BD08B5282025
:401F4000FEF792FB0320FFF725FF0520FEF78CFB0320FFF71FFF0F20FEF786FB0320FFF719FF0120FEF780FB0220FFF713FF0520FEF77AFB0620FFF7D5FF0E20FFF7D2FFC5
:401F80002C20FFF7CFFF0820FFF7CCFF0120FFF7C9FF0C20FFF7C6FF0320FFF7C3FF0520FEF762FB08BD00BF08B50C20FFF7BAFF0122014B1A7008BDC881FF1F08B5054BC2
:401FC0005B7823B9FFF7BAFF0122024B5A70FFF7EBFF08BDC881FF1F08B5032819D8DFE800F002070D1381F08000FFF79BFF08BDA1F14000C0B2FFF795FF08BDA1F16C00AD
:40200000C0B2FFF78FFF08BDA1F12C00C0B2FFF789FF08BD014B1870704700BF06640040014B1870704700BF46640040014B1870704700BF2664004008B5074A137843F06A
:4020400001031370FA20FFF7E5FFFA20FFF7E8FF7820FFF7EBFF08BD9664004008B5044B1B7823B9FFF7E8FF0122014B1A7008BDCA81FF1F044A137843F0200313703D22E7
:40208000024B1A70704700BF96650040766500400B4A13889BB243F4807343F00103138013889BB223F4807323F001039BB2138013889BB243F4007343F00203138070474F
:4020C0009665004008B5FFF7D5FFFFF7E1FF08BD0E4B1B7813F0010FFAD001220C4B1A800A4B1B7803F00303012BF9D14FF42A62074B1A80E03B1B780021064A117013F071
:40210000FF0F0CBF01200846704700BF6664004046650040CC81FF1F054A137843F0010313701032137843F001031370704700BFA2430040000000000230800803D000BF7F
:4021400001380046FCD17047EFF3108072B6704780F31088704700BF08B5124B1B7803F00303012B02D0022B04D00FE00D4B1B79DBB20CE00B4B1B7903F07F0303EB4303FE
:402180009B00094A13449B78DBB200E00023074A1268D35C022B02D1FEF740FD08BD002008BD00BF006000401482FF1FF481FF1F014B1868704700BF9C81FF1F0E4B70B5C0
:4021C0001E460E4C0025E41AA410A54204D056F8253098470135F8E700F016F9084B094C1E46E41AA4100025A54204D056F8253098470135F8E770BD142400001424000027
:40220000142400001C24000010B5431E0A44914204D011F8014B03F8014FF8E710BD03460244934202D003F8011BFAE7704700000000000054455354000000004D44494F71
:4022400020686F73740000000D0A48656C6C6F2066726F6D2043797072657373210D0A0040510040200000000140001000140140000800400140000A004C01400002005057
:4022800001402000605200406803004806000000303132333435363738394142434445460000000001000000AC22000001000000F02300000000000000000000010000008C
:4022C000C422000001000000AC23000003000000F02200000000000000000000000000000000000000000000EC220000020A000000008103080002000100820240000A009C
:402300000100030240000A0002030000040309042C0343007900700072006500730073002000530065006D00690063006F006E0064007500630074006F0072001003550035
:402340005300420055004100520054003803430044004300200043006F006D006D0075006E00690063006100740069006F006E00200049006E007400650072006600610028
:4023800063006500260343004400430020004400610074006100200049006E00740065007200660061006300650000000902430002010180320904000001020201030524D4
:4023C00000100104240202052406000105240100010705810308000A09040100020A0000040705820240000007050302400000001201000202000008B40432F20100010265
:402400008001000043000000F8B500BFF8BC08BC9E4670474D000000BD010000F8B500BFF8BC08BC9E46704729000000402400000881FF1F980000000801000000000000FA
:4024400000000000008000000000E02EC05D00001800000000366E0100C2010000000800C201000000080000A120000000000200000000000000000000000000000000009B
:4024800000000000000000000000000000000000000000000424000000000000000000000000000000000000000000000000000000000000000000000000000000000000F4
:4024C00000000000000000000000000000000000000000003C81FF1F0000000000000000000000000000000000000000000000000000000000000000000000000000000001
:40250000000000000000000000000000000000000000000000000000000000000000000000000000000000000000000000000000000000000000000000000000000000009B
:40254000000000000000000000000000000000000000000000000000000000000000000000000000000000000000000000000000000000000000000000000000000000005B
:40258000000000000000000000000000000000000000000000000000000000000000000000000000000000000000000000000000000000000000000000000000000000001B
:4025C00000000000000000000000000000000000000000000000000000000000000000000000000000000000000000000000000000000000000000000000000000000000DB
:020000040003F7
:0200000480007A
:400000000145004005520040016500400203014002050140670601403B07014001090140020D0140021501404E1601404517014001190140044001400A4101400942014011
:4000400004430140024401400445014003460140074701400448014004490140014C014004500140015101407E0200800180300831087C40863FE602EA048040860100402D
:40008000010302BF0501060108020C7F0E800F01103F130114801502170119011A101D021EBF1F012208262027012AC02B012E042F0132FF330235013F1440404105461298
:4000C000480C49FF4AFF4BFF4DA04F0450185407580459045A045B045D015F01604062C06440654066C068C06AC06CC06EC08205840188288A508B028C068F01900793034B
:400100009C309E48A203B006B260B301B401B618B702B820B902BE44C040C103C601C702C814C9FFCAFFCBFFCDA0CF04D018D804D904DA04DC10DD01DF01E040E2C0E44041
:40014000E540E6C0E8C0EAC0ECC0EEC00040010802080340060A0750080809890E440F21128013011408154016201701186019101A021D0821822208241426042E642F0AA6
:40018000310235043681371138803A103C803D423E0A410645024F8050405104561057405C145F4080108B4094409602C0FFC2F9C4F8CA70CCF1CEDCD083D210D670E00404
:4001C000E220E004E602EA0486809E8000840110027A04850510066A0B280D040F211110125014261508173619101D101E03211F2320271029202CDD2D102E023040323C97
:400200003480353C3603370338203E10403241054260440446CE480C49FF4AFF4BFF4C024D204E704F0450085602573A580459045A045B045F0162C064406501AE01B40128
:40024000C032C105C260C404C50BC801C9FFCAFFCBFFCC03CD20CE70CF04D008D804DA04DF01E2C0E440E50104020504080209030B800C020D800F201002140219201A0800
:400280001C021D861F102402257026802D802E282F40350437513DA03E054128428045284680480149284A024E06562057505E0863C067206E076F0B744275807608771016
:4002C0008348960497409D0C9E089F10A108A204A440A501A681A71AA914AB40C030C2B0C481CAF0CCF0CEF0D0E7D23CD640D840EA02EA02301033013710CC7053106608ED
:4003000084109C109F01AB10D420D880E640EA20538057048380871097209E089F01D460E6608A089E089F01A7045601D60487109E01A740AB4097209E01A7400B240F80B0
:40034000820197209E01A740C20EAB04AF01EA40EE2013048704C410E040AF0400030A0310011A01002A0000010300000200000000C1C100C1000000030000020300030053
:400380000003000000020001000000004000000000000000C0000000000B0B0000000000007F7F00000000000000000000000100000C0C0008000000000000000000000002
:4003C00000000000000000000000000000000000000000000000000000000000000000000000000000000000000000000000000000000000000000000000000000000000FD
:4004000000000000000000000000000000000000000000000000000000000000000000000000000000000000000000000000000000000000000000000000000000000000BC
:40044000000000000000000000000000000000000000000000000000000000000000000000000000000000000000000000000000000000000000000000000000000000007C
:40048000000000000000000000000000000000000000000000000000000000000000000000000000000000000000000000000000000000000000000000000000000000003C
:0200000490006A
:0400000000004005B7
:0200000490105A
:04000000BC90ACAF55
:0200000490303A
:020000007D0B76
:0200000490402A
:4000000000000000000000000000000000000000000000000000000000000000000000000000000000000000000000000000000000000000000000000000000000000000C0
:400040000000000000000000000000000000000000000000000000000000000000000000000000000000000000000000000000000000000000000000000000000000000080
:400080000000000000000000000000000000000000000000000000000000000000000000000000000000000000000000000000000000000000000000000000000000000040
:4000C0000000000000000000000000000000000000000000000000000000000000000000000000000000000000000000000000000000000000000000000000000000000000
:0200000490501A
:0C00000000012E12306900012E20AD74AA
:00000001FF