:400000000080002011000000950400009504000008B5044B1A6803F53F5302331A6000F041FA00BFFA46004010B5054C237833B9044B13B10448AFF300800123237010BD0A
:40004000D089FF1F0000000078340000084B10B51BB108480849AFF300800848036803B910BD074B002BFBD0BDE81040184700BF0000000078340000D489FF1F0881FF1F49
:40008000000000000122014B1A707047EC89FF1F0122014B5A707047EC89FF1F08B502F005FF014B588008BDEC89FF1F10B582B04DF6AD63ADF80630002410E084F400405A
:4000C0000DF10601012202F053FFBDF806302344ADF806300A2000F0BBFD0234A4B2B4F5FF7FEBD9002411E0A4F5F84080B20DF10601012202F03CFFBDF806302344ADF8BA
:4001000006300A2000F0A4FD0234A4B2FE2CEBD902B010BD30B583B004460378413B162B00F28980DFE803F02887600C8787871A878787878787878C874D878787873D0052
:40014000012003F011F9A2783F4B1A703F4801F001F9002003F008F9012072E0012003F003F9A278384B5A70394801F0F3F8002003F0FAF8012064E0012003F0F5F8627821
:40018000A37843EA0222304B5A805878197802F09BFA304801F0DEF8002003F0E5F801204FE04278837843EA02222B4B9A80264B5878197802F0A0FA284801F0CBF80120DE
:4001C0003FE0214B244C58781978A21D02F0AEFAE3881A0A8DF804208DF8053001A8022101F092F801202CE04578837843EA05250135ADB201241AE0134B58781978184A00
:4002000002F0C2FA94B1144BDB881A0A8DF804208DF8053001A8022101F076F8013DADB201F0F2F800240028FAD000E00124002DE2D1012005E00B4801F08CF8002000E016
:40024000012003B030BD00BF0C81FF1F7C3400008034000084340000EC89FF1F88340000F289FF1F8C34000070B590B062B602F087F900F0AFFB00F0E7FB62B600200121DA
:4002800000F08EFE02F01AFA00F050FD02F0DAFA00F03EFB00F07CFD02F0DCF902F0C4FA02F0F4FDFFF702FF6F4802F0FFFA6F4802F024FB6E4802F049FB012002F014F960
:4002C0006C4802F0FFF80120002102F067F96A4802F0F8F800252E46684C608880B204F10801012202F0E8FDA07208B1002222810120022102F052F9604C208902F07CF90D
:4003000000200B2102F04AF9638803F47E43B3F5004F05D0638803F47F43B3F5044F03D1574802F0CFF82EE0544B5B8803F47F43B3F5084F16D0514B5B889BB223F07F0373
:40034000B3F5204F0ED04D4B5B8803F47F43B3F5224F07D0494B5B889BB223F07F03B3F5244F0DD1454B5B889BB2B3F5204F03D1444802F0A7F806E0434802F0A3F802E06A
:40038000424802F09FF800F049FE20B100F040FE08B100F06DFF00F03BFEA8B301F028F8D0B1684601F03CF80446A8B101F02CF80028FBD02544ADB2022D03D96846FFF7D4
:4003C000A9FE0025402C07D101F01EF80028FBD00020014600F098FF01F03AF8A0B110F0020F11D001F050F810F0010F08D05EB9274800F0AFFF012002F032FA012603E011
:40040000002002F02DFA00261C4B1B7813F0FF0F15D01A4B00221A705B889BB2B3F5224F0DD1164C608880B204F10801012202F043FDA0724FF42040218902F0F5FD0F4BC9
:400440005B7813F0FF0F05D000220C4B5A70FA2000F0E8FB0020022102F0A0F8074B588880B202F0C9F837E7850000009D000000910000009C340000AC340000EC89FF1F9B
:40048000B4340000BC340000C4340000CC340000D434000008B502F0AFFF03680C2B00D1FEE7FEE708B5104E104D16E029686B68AC68002204E051F8040B43F8040B043206
:4004C000A242F8D1E868002203E0002143F8041B04328242F9D11035013E002EE6D102F091FFFFF7C1FEFEE701000000EC48000008B5134A134B1A60134A136843F400738D
:40050000136000230AE0032B03D8104A52F8231000E00F490F4A42F8231001332F2BF2D90D4B1A780D4B1A700A4A0D4B1A6000F0F1F800F097FA00220A4B1A6008BD00BF43
:400540000004FA050CED00E014ED00E000000000950400000080FF1FBC7600400481FF1F08ED00E00081FF1FFEE700BFF0B40022174611E050F82760F3B226F0FF0608E0CF
:4005800001EB420511F812406D78A5550132013BDBB2002BF4D10137262FEBD9F0BC7047104B1B78DBB203F007010F4A11701B090132137081220D4B1A70052290331A700B
:4005C000202203F6CB031A709023094A13704FF4817146321180123213706622054B1A70704700BFCF0100496E5800403D510040005B00407658004008B50A46002102F04C
:4006000032FF08BD38B50022374B1A80582202331A70022202331A801823344A137040F21F3102321180023213700622304B1A7043F21332EE3B1A80023B05221A701B7848
:4006400043F2C82404E04FF4F07002F099FE013C24B1284B1B7813F0800FF4D114B90120FFF782FF4FF40072234B1A804FF4E16203F21E231A8001224FF040231A7041F2E0
:40068000512203F508731A80002419250CE01B4B1B7803F0010343EA440404F003044FF4F07002F06DFE013D0DB1032CEFD141224FF040231A70702203F500731A700E4AB3
:4006C0000723137000230E490B7048200231087013700532137002220A4B1A700A4A137843F00703137038BD8040004086400040004300401042004004400040254200402B
:400700000640004001400040A243004008B502F09FFE08BD38B572B6564A137843F00403137000240CE0544963001A1952000A4423445B00C8589188FFF75EFF0134E4B283
:40074000052CF0D900240FE04B49A3001A1952000A4452F8240F23445B000B4451689A8DFFF7D4FF0134E4B2012CEDD94FF090404249FFF7FBFE42480421FFF73DFF41487A
:4007800041490422FFF7C2FF40480421FFF734FF3F480421FFF730FF3E483F490422FFF7B5FF3E483E490422FFF7B0FF3D483E490422FFF7ABFF3D480421FFF71DFF3C4863
:4007C0000421FFF719FF3B483B490422FFF79EFF3A4A137843F0020313701032137843F002031370364C237843F040032370A2F58632513A137843F010031370314832496C
:400800000822FFF783FF314831490A22FFF77EFF304831490522FFF779FF304830490A22FFF774FF2F4830490822FFF76FFF2F482F490822FFF76AFF2E482F490822FFF773
:4008400065FF2E482E490822FFF760FF2D4A137843F0080313702C4D01232B70FFF7D2FE81232B70FFF79CFE284821460E22FFF74DFF38BDE8460040E83400009C0000486C
:4008800000760040087600401C0F0048107600401876004020760040200F004828760040240F004830760040280F00483876004040760040487600402C0F004803500140B9
:4008C000A043004002510040D40E0048C0510040DC0E0048CB510040E80E0048F0510040F00E004812510040FC0E004822510040040F0048325100400C0F00486251004018
:40090000140F00482243004000480040B0430040054A137843F0010313701032137843F001031370704700BFA2430040054A137843F0080313701032137843F0080313700D
:40094000704700BFA8430040054B1A7802F0FD021A701A7800F0020010431870704700BF2C580040014B1870704700BF835B0040064B1B78C3F3810303F19243063393F8CD
:400980003831DBB2024A1370704700BF2C5800400B46004008B5064B1A7802F0F3021A701A7800F00C0010431870FFF7E1FF08BD2C58004010B50024054B1C7001331C7049
:4009C0000420FFF7E7FF2046FFF7BEFF10BD00BF2C58004008B5074B1B7823B9FFF7EAFF0122044B1A70FFF7A1FF4B20FFF7BAFF08BD00BFF889FF1F084A137843F06003EF
:400A00001370A2F5A652133A137843F0080313701032137843F008031370704777580040054B1A7802F0FC021A701A7800F0030010431870704700BF5E58004008B50320AF
:400A4000FFF7EEFF08BD00BF08B5054B1B7823B90122034B1A70FFF7F1FFFFF7CDFF08BDF989FF1F0B4A7F2313708021517007E0DA0002F1804202F5F042013BDBB21370C4
:400A8000002BF5D1DB0003F1804303F5F04300221A7070471081FF1F172815D831B103010A495A5C42F020025A5405E0030107495A5C02F0DF025A540001044A835C43F088
:400AC0000103835400207047012070471070004017280BD80001064A835C03F0F10301F0070143EA4101815400207047012070471070004041F6FF73994201D14FF40051DD
:400B000041F6FF739A4201D14FF40052172808D8C00000F1804000F5EC408180C280002070470120704700BF172805D8034B03EB00104172002070470120704710700040DD
:400B4000172809D8054B03EB0010037901F007011943017100207047012070471070004017281BD810B4C00000F1804404F5EC44D201D2B201F07F01114321709DF804205B
:400B80001201D2B203F00F03134363709DF8083003F00F03A3700020E07001E0012070475DF8044B704700BF10B502F0F1FB0A4B5B78182B0BD9084A1478013B5370E30096
:400BC00003F1804303F5F0431B78137000E0FF2402F0E2FB204610BD1081FF1F10F0800F0CD111F4704F0BD1C00000F1804000F5F04001808270C370002070470120704752
:400C00000120704710F0800F08D1C00000F1804000F5F0408180C280002070470120704701BE704710B5044605E0084B186802F0A7FBA4F50044B4F5004FF6D8034B58686A
:400C400000FB04F002F09CFB10BD00BF1881FF1F08B5034B1B7A03FB00F002F091FB08BD1881FF1F70B504460E46074B1D681F2802D90020FFF7D4FF04F01F04103455F8E4
:400C8000240045F8246070BD08ED00E038B504460D46072902D90020FFF7C2FF1F2C02D90020FFF7BDFF04F01F0000F1604000F564406D01EDB2057038BD00BF134B1B7885
:400CC000DBB20360124A127843EA02230360114A127843EA024303600F4A127843EA026303600E4B1B78DBB243600D4A127843EA022343600B4A127843EA024343600A4A9D
:400D0000127843EA02634360704700BF0301004904010049EC4600400201004901010049000100490501004906010049054A137843F0040313701032137843F004031370D0
:400D4000704700BFA2430040014B1870704700BF00640040014B1870704700BF40640040014B1870704700BF2064004008B5074A137843F001031370FF20FFF7E5FFFF2043
:400D8000FFF7E8FF7F20FFF7EBFF08BD9064004008B5044B1B7823B9FFF7E8FF0122014B1A7008BDFA89FF1FF8B502F0F1FA0546404A137843F0010313701032137843F083
:400DC0000103137001273C4B1F700226943B1E7002F5E2521B32137803F07F0313700020FFF736FF354C237803F0F9032370344A137803F0DF03137023783B43237038463A
:400E0000FFF726FF2820FFF723FF2E4B1A7802F07F021A701A7802F0BF021A702378334323703046FFF714FF237843F0040323700023254A137001321370284602F0ACFA04
:400E400017200721FFF722FF17202049FFF70AFF18200721FFF71AFF18201D49FFF702FF15200721FFF712FF15201A49FFF7FAFE04200721FFF70AFF04201749FFF7F2FEBA
:400E800005200721FFF702FF05201449FFF7EAFE06200721FFF7FAFE06201149FFF7E2FE0C200721FFF7F2FE0C200E49FFF7DAFEF8BD00BFA54300409D6000409443004081
:400EC00012600040F851004084600040FD190000E5170000F91900005919000089190000BD190000051A000008B5214B18700023204A1370204A1370204A1370204A1370DE
:400F0000204A1370204A1370204A1370204B4FF400021A604FF080721A604FF400121A6010221A6020221A6040221A6011B1012906D00BE0174A137803F0FE0313700AE008
:400F4000144A137843F00103137004E0114A137803F0FE03137003220F4B1A708022203B1A70012002F00CFA04220C4B1A7008BD3F8BFF1F3E8BFF1FB08AFF1FB18AFF1F98
:400F8000B28AFF1F428BFF1FB38AFF1FAF8AFF1F00E100E009600040286000401260004038B505460C46064B1B7823B9FFF7FCFE0122034B1A7028462146FFF795FF38BDCD
:400FC000FB89FF1F00230A4A13700A4A13700A4A13700A4A13700A4A13700A4A13700A4A13700322094B1A708022203B1A7070473E8BFF1FB08AFF1FB18AFF1FB28AFF1F18
:40100000428BFF1FB38AFF1FAF8AFF1F28600040014B1878704700BFB18AFF1F064B1B7813F0FF0F05D0044B1878C0B200221A7070470020704700BFB08AFF1F00EB400009
:401040008000024B18444078704700BFD08AFF1F431EDBB2072B0BD8064B00011A18185C00F00F00537843EA0020023880B2704700207047FC5F0040431EDBB2072B3BD8C7
:40108000F0B4074600EB40039B001C4C2344DB889BB2C3F500739A4207D900EB40039B002344DA88C2F5007292B200EB40039B00124C2344DB7843EA1223114D04012E1924
:4010C0002B55D3B2737039B909E0CE5C3D010D4C665501339BB200E000239342F5D3430003449B00054A134400225A705A79D2B20001054B1A54F0BC704700BFD08AFF1F29
:40110000FC5F004078600040FE5F0040431EDBB2072B0BD8430003449B00054A134400225A705A79D2B20001024B1A54704700BFD08AFF1FFE5F004070B5D9B105461446B3
:401140000E46C8B1082819D8FFF782FFA04203D22846FFF77DFF0446002305E02901094A525CF25401339BB2A342F7D32846FFF7CDFF04E0002402E0002400E000242046D8
:4011800070BD00BF786000400246002001E0013080B2135C002BFAD1704700BF10B4FF2400220EE00A4B9B5C03EB43039B0009490B449B78DBB2834201D114460222013209
:4011C000D2B2012AEED920465DF8044B704700BF9C8AFF1FD88AFF1F10B5204C2079FFF7DDFF237813F0800F0ED06378DBB2212B2FD11B4B07221A80C0EBC000194A10448F
:40120000586000F05DFB10BD144B5B78DBB2202B02D0222B10D01EE0114A07231380C0EBC00310490B4453600F4A135C43F00103135400F06DFB10BD084B9B780B4A22F899
:401240001030094A135C43F00203135400F0F8F910BD002010BD002010BD00BF00600040C08AFF1F2881FF1FA48AFF1FA88AFF1F10B500241F4B1C701F4B1C705C700AE090
:401280001E4B185DC0B2431EDBB2072B01D8FFF73DFF0134E4B2012CF2D9194B1B7813F0FF0F1AD0154B1B7813F0FF0F17D0154B1B7813F0FF0F14D0114B1B78DBB2082B7C
:4012C00011D80E4B1B78DBB2082B0ED80D4B1B78DBB2082B0BD8002010BD012010BD012010BD012010BD012010BD012010BD012010BD00BFFC89FF1FA48AFF1F988AFF1F76
:40130000948AFF1F9C8AFF1F70B506460D460E4B1B780E4AD45CE4B204EB44039B000C4A13441B899BB28B4208D204EB44039B0013441D89ADB20020FFF772FC20463146BB
:401340002A46FFF799FE70BDFC89FF1F948AFF1FD08AFF1F2DE9F8438046224B1B78224AD65CF6B2FFF710FF05460027344606EB46039B001D4A13441B899BB2AB4208D253
:4013800006EB46039B001344B3F808901FFA89F900E0A946304608EB07014A46FFF76CFEC9EB0505ADB245B906EB46039B000F4A13441B899BB2994510D14F44BFB204EBB0
:4013C00044039B00094A13445B7813F0FF0FF6D025B9304600210A46FFF74EFE002DC5D1BDE8F883FC89FF1F948AFF1FD08AFF1F08B5034B1B78034AD05CFFF71FFE08BD87
:40140000FC89FF1F988AFF1F08B5034B1B78034AD05CFFF713FE08BDFC89FF1F948AFF1F08B50146074B1B78074AD05CC0B200EB40039B00054A13441A8992B2FFF77CFE69
:4014400008BD00BFFC89FF1F988AFF1FD08AFF1F0A4B1B7813F0FF0F0CD1094B1B78094AD25C12F0FF0F07D0064AD05CC0B20021D154704700207047002070473E8BFF1FE8
:40148000FC89FF1FA48AFF1F034B1A78034B33F8120080B2704700BFFC89FF1FA88AFF1FC37803F0030390F9020000280FDA032B06D002F001030B48C15442F001020EE0E2
:4014C000C2F380030848C15442F0040207E0032B05D0C2F340030548C15442F002021046704700BF948AFF1F9C8AFF1F988AFF1F1C4B19781C4A13880B449BB213800023C6
:401500000EE01A4A51680978C9B21948C1545168013151600133DBB21188013989B21180124A128892B20AB1072BEAD90D4A1278D2B2082A00D05BB10E490A7882F0800208
:401540000A700F210C4A117002210C4A117004E0022209490A7009490A70094A1370014A13707047AF8AFF1F3C8BFF1FC08AFF1F00600040B48AFF1FAE8AFF1F3E8BFF1F18
:40158000CC8AFF1F0222074B1A708022064B1A700F22064B1A700023054A1370054A1370012070473E8BFF1FB48AFF1FAE8AFF1FAF8AFF1FCC8AFF1F08B5FFF799FF08BD1B
:4015C00010B4184B197801F00F010239C9B2164A13880B449BB21380002010E0134B5C68134A125CD2B222705A6801325A600130C0B20139C9B21A88013A92B21A800B4B27
:401600001B889BB20BB10029E8D10A4B19700A4A137883F0800313700B22084B1A705DF8044B7047296000403C8BFF1FC08AFF1F00600040CC8AFF1FB48AFF1FAE8AFF1FA5
:401640000623064A1370064A13708022054B1A700022054B1A700120704700BF3E8BFF1FAE8AFF1FB48AFF1FCC8AFF1F064B9B6843B1054B9A6810709A68044909885180B4
:4016800000229A60704700BFC08AFF1F3C8BFF1F08B5134B1A78D2B21A701B78DBB213F0800F02D00F4A137008BD0220FFF7DEFF0D4B1B7803F06003202B05D0402B06D0D4
:4016C00043B900F089FC06E001F06AFE03E000F02BFE00E0002010B90322024B1A7008BD28600040AE8AFF1F0060004008B5084B1978084A13880B449BB213800022064BC6
:401700001A700120FFF7B2FF0322044B1A7008BDAF8AFF1F3C8BFF1F3E8BFF1FAE8AFF1F08B50B4B1B78DBB2042B06D0062B07D0022B0BD1FFF7DAFF08BDFFF741FF08BD43
:401740000320FFF793FF0322024B1A7008BD00BF3E8BFF1FAE8AFF1F08B50022044B1A700120FFF783FF0322024B1A7008BD00BF3E8BFF1FAE8AFF1F08B50B4B1B7813F04A
:40178000FF0F07D0084A137843F0800307490B70002313700022064B1A700120FFF766FF0322044B1A7008BD428BFF1F086000403E8BFF1FAE8AFF1F08B5094B1B78DBB203
:4017C000042B06D0062B07D0022B07D1FFF7F4FE08BDFFF7C1FF08BDFFF7CEFF08BD00BF3E8BFF1F08B5284B1B78DBB213F0100F48D013F0800F0CD003F00F03012B16D171
:40180000FFF746FF214B1B7813F0800F11D1012312E013F0400F03D0FFF7CEFF01230BE013F0200F07D0FFF77BFF012304E0002302E0002300E0002323B3134B1B7813F077
:40184000800F1FD1124B1B78124A12781343124A13701278D2B29A4214D10C4B1B78DBB2094A127812F0800F07D1084B1B78DBB2054A1370137803F00F03044A1278D2B221
:401880009342EAD108BD00BF28600040AE8AFF1FB48AFF1FCC8AFF1F296000400022064B1A80064B9B682BB1044A916800230B7092685380704700BF3C8BFF1FC08AFF1FAB
:4018C00008B50F4B1B889BB213B9FFF75BFE15E002220C4B1A7000220B4B1A70FFF7DEFF0A4AD179937943EA0123054A128892B29A4201D9024A1380FFF7FAFD012008BD67
:40190000C08AFF1F3E8BFF1FB48AFF1F0060004008B504220B4B1A7080220B4B1A70FFF7BDFF0A4AD179937943EA0123084A128892B29A4201D9064A13800B22054B1A709A
:40194000012008BD3E8BFF1FB48AFF1F00600040C08AFF1FAE8AFF1F0122094B1A700F3B9B7C084B1B7B03F00303934204D0054AD37B83F08003D3730122024B5A73704726
:401980000B600040D08AFF1F02220A4B1A700F3B93F82230084B1B7E03F00303012B04D0054AD37E83F08003D3760122024B5A76704700BF0B600040D08AFF1F04220C4BC0
:4019C0001A700F3B93F832300A4B93F8243003F00303012B06D0074A92F8273083F0800382F827300122034B83F82520704700BF0B600040D08AFF1F704700BF08B5FFF70B
:401A0000E1FA08BD08B500F09BFC08BD70B588B0054603AC174E0FCE0FC43368237035B322232B7003236B7001A8FFF747F9002402231AE008AA224412F81C2C08A901EB71
:401A4000121111F8141CE954581C00212954981C02F00F0208AE324412F8142C2A54DA1CA9540134E4B20433DBB2212BE2D908B070BD00BF2035000010B401223DE0114633
:401A800013010C242148C45402EB42039B00204803445B7913F0FF0F12D002EB42039B0003441B7913F0800F04D01001194B03449C700AE01001174B03440820987004E090
:401AC0001001144B0344802098704B000B449B000F480344DC88E4B208010C4901448C71D888C0F30720C871D888C0B20871DB88C3F307234B710132D2B2082ABFD9FF22BB
:401B0000054B1A705DF8044B704700BF70600040D08AFF1FFC5F00400A600040074B1B78074A02EBC30253681A7C824203D903EBC003586970470020704700BF3F8BFF1F64
:401B400074470000F8B5404B1B7813F0FF0F79D03D4B18780138C0B2FFF7E0FF047AC2683A4B1878C0B200236AE01178814264D13749095CC9B25578A9425ED1917801F08F
:401B80007F01D67806F00306DFF8C8E04D000D44AD000EEB05074FF0000C87F803C092F802C087F804C092F803C00EF805C095883D8192F90250002D0DDA012E01D107275A
:401BC00000E00D274D000D44AD00224E35446F7101266E700CE0012E01D1052700E009274D000D44AD001B4E35446F7100266E70DFF868E00F010EEB07060125B57001FA03
:401C000005F529448900134D29440D89C5F307250EF807500D89EDB27570CE88F6B20E4D3D44AE71CE88C6F30726EE71CE88F6B22E71C988C1F30721697108320133DBB2C3
:401C4000A34292D3F8BD00BFB18AFF1FB28AFF1FBC8AFF1FD08AFF1F70600040FC5F0040034B1A78034B03EBC2035868704700BF3F8BFF1F7447000008B5074B18780138DA
:401C8000C0B2FFF74BFF28B14268127900EBC203586908BD002008BDB18AFF1F2DE9F84300220EE06F4E53009D18AD00741900217155A170E1702181A172617061710132BC
:401CC000D2B2082AEED940B90AE000226649CA546649CA540133DBB200E00023012BF4D9634B1B7813F0FF0F00F0B980604B18780138C0B2FFF712FF80464368DB7913F0DB
:401D0000400F05D05B4A137843F00103137004E0584A137803F0FE03137098F808704FF0000901266CE0D8F80C50002464E0AB7803F07F039E425CD1314606EB46039B00C5
:401D4000484803441B899BB2A888834205D206EB46039B00434A134418812B784248C35CDBB26878834244D195F802C03D484B000B449B0000EB030E8EF804C095F803E02B
:401D800000F803E0EB7803F0030395F90200002811DA012B02D14FF0070C01E04FF00D0CDFF8C0E04B0058188000704480F805C00123437012E0012B02D14FF0050C01E023
:401DC0004FF0090C27484FEA410E0EEB01039B00034483F805C0194600234B70AB790A2B01D0022B05D1284631464A46FFF758FB814608350134E4B2BC4298D30136F6B23A
:401E0000082E90D9D8F80C0000220CE0837803F07F0310F8084B03EB43039B0016490B449C700132D2B2BA42F0D3FFF725FF134B1860002301210EE00A4C4A0050188000A4
:401E40002044C380028913449BB203F0010213449BB20131C9B20829EED9FFF70DFEBDE8F88300BFD08AFF1FBC8AFF1FAC8AFF1FB18AFF1FB38AFF1FD88AFF1FB88AFF1FA9
:401E800008B5154B1A7902F07F02531EDBB2072B20D8530013449B0010490B44997841F0010199700021D970597841F0020159701B7913F0800F05D01201094B13448D22FD
:401EC0009A7004E01201064B134489229A70FFF7B7FB08BD002008BD00600040D08AFF1FFC5F0040264B1B7903F07F035A1ED2B2072A43D810B55A001A44920021490A44F6
:401F0000917801F0FE0191700021D17019017F241D484454517801F0FD015170127912F0800F14D003EB4302920016490A445278D2B2012A05D11B0102461A440C2393705D
:401F400019E01B01104A1A440D23937013E003EB430292000B490A445278D2B2012A05D11B01094A1A440823937004E01B01064A1A4409239370FFF763FB10BD00207047E8
:401F800000600040D08AFF1FFC5F004010B50E4B1C79E4B20D4B18780138C0B2FFF7BEFD43681B799C4201D9022C0AD8084A135DDBB208490B55044B9B78DBB21355012062
:401FC00010BD002010BD00BF00600040B18AFF1FBC8AFF1FAC8AFF1F10B59B4B1B78DBB200219A4A118013F0800F00F0AD80964A5278D2B20A2A00F27281DFE812F069002E
:40200000700170017001700170010B007001920070019A008C4BDB78DBB2012B09D1FFF71FFE4268894B5A6012221A80FFF748FC10BD854BDB78DBB2022B13D1824B9878D7
:40204000FFF76CFD002800F04C8142687F4B5A605A68D1785A68927842EA01221A80FFF72FFC10BD784BDB78DBB2032B05D02CE00A7811440133DBB201E000237449724A79
:402080009278D2B29A4203D90A7812F0FF0FEFD16D4B9B7813F0FF0F0BD06B4B9B78DBB26C4A127C934204D16B4C2046FFF7AEFC21460B7813F0FF0F00F015810B78634A1F
:4020C00013805160FFF7FCFB10BD01F069F910BD13F0030317D0022B40F007815B490B80594B1B7903F07F0303EB43039B005B4A13449A78D2B25A4B1A7000225A704B60EA
:40210000FFF7DEFB10BD514902230B80554B1A78D2B2534B1A7000225A704B60FFF7D0FB10BD4A4B01221A804F4A5A60FFF7C8FB10BD464A01231380434B1B794B490B443F
:402140005360FFF7BDFB10BD3F4A5278013A0A2A00F2CD80DFE812F04B00CB009600CB000B00CB00CB00CB001300CB003000364B9B78DBB23E4A1370FFF762FA10BD324BAE
:402180009B7803F0FF041BB1601EC0B2FFF7C6FC04B110B9002C40F0AC80334B1B78DBB29C4206D0304B1C700120324B1870FFF775FDFFF745FA10BDFFF7E8FE002800F0BF
:4021C0009A80214A1379DBB21279D2B22A490A702A4AD25C2549C95CD3B28B4204D00122244B1A70FFF7AEFCFFF72AFA10BD03F00303012B17D04BB1022B7ED1124B9B7853
:4022000013F0FF0F7BD1FFF76DFE10BD0E4B9B78DBB2012B75D1134A137803F0FD031370FFF70EFA10BD084B1B79DBB2012B6AD8054B98781B79DBB21149CA5C22EA00028E
:40224000CA54FFF7FDF910BD00600040C08AFF1FDC470000B04800004491FF1FD08AFF1F008AFF1FB38AFF1FB18AFF1FBC8AFF1F428BFF1FB08AFF1FB28AFF1FAC8AFF1F48
:40228000408BFF1F03F00303012B17D04BB1022B3BD1224B9B7813F0FF0F38D1FFF7F0FD10BD1E4B9B78DBB2012B32D11C4A137843F002031370FFF7C3F910BD174B1B7951
:4022C000DBB2012B27D8154B98781B79DBB21549CA5C22EA0002CA54FFF7B2F910BD002010BD002010BD002010BD002010BD002010BD002010BD002010BD002010BD0020EF
:4023000010BD002010BD002010BD002010BD002010BD002010BD002010BD00BF00600040B38AFF1F408BFF1F044B1B7813F0800F01D0024B5B780020704700BF0060004004
:40234000024B1878C0F38010704700BF8F45004010B50B4C237803F09F032370237803F0F00323702378184340F0100020700120FEF76EFC237803F0EF03237010BD00BFDB
:402380002051004038B505460E4C237843F020032370237803F0BF0323700020FEF758FC237803F0F003237023781D4345F0100525700120FEF74CFC237803F0EF032370AB
:4023C00038BD00BF2051004070B5354B1A7802F08002D2B21A7033490A7802F0F00242F00F020A7001310A7802F0F0020A7001310A7802F0F0020A701A7802F0DF021A700D
:402400001A7842F040021A704FF4CA760020FEF71FFC234D2B7843F010032B700120FEF717FC214B1C78E4B22B7803F0EF032B700020FEF70DFC04F00804E4B22B7843F0F9
:4024400010032B700120FEF703FC2B7803F0EF032B7014B90A20FEF7FBFB013E0CB1002ED4D10F4A137803F0BF031370137803F08003DBB213700232137803F0F003137070
:402480000132137803F0F00343F00F0313700132137803F0F00343F00F03137070BD00BF20510040225100402151004010B50446FFF78AFF2009FFF765FF04F00F00FFF738
:4024C00061FF10BD38B505460078012404E0FFF7EDFF285D0134E4B20028F8D138BD00BF08B5FFF7E3FF08BD10B50446FFF76CFF2009FFF72DFF04F00F00FFF729FF10BD1C
:4025000008B52820FEF78EFB0320FFF721FF0520FEF788FB0320FFF71BFF0F20FEF782FB0320FFF715FF0120FEF77CFB0220FFF70FFF0520FEF776FB0620FFF7D5FF0E20E5
:40254000FFF7D2FF2C20FFF7CFFF0820FFF7CCFF0120FFF7C9FF0C20FFF7C6FF0320FFF7C3FF0520FEF75EFB08BD00BF08B50C20FFF7BAFF0122014B1A7008BD048AFF1F01
:4025800008B5054B5B7823B9FFF7BAFF0122024B5A70FFF7EBFF08BD048AFF1F08B5032819D8DFE800F002070D1381F08000FFF79BFF08BDA1F14000C0B2FFF795FF08BD93
:4025C000A1F16C00C0B2FFF78FFF08BDA1F12C00C0B2FFF789FF08BD38B504460309054DE85CFFF77DFF04F00F04285DFFF778FF38BD00BF3435000010B50446000AFFF73F
:40260000EBFFE0B2FFF7E8FF10BD00BF014B1870704700BF0B640040014B1870704700BF4B640040014B1870704700BF2B64004008B5074A137843F001031370FA20FFF707
:40264000E5FFFA20FFF7E8FF7820FFF7EBFF08BD9B64004008B5044B1B7823B9FFF7E8FF0122014B1A7008BD068AFF1F044A137843F0200313703D22024B1A70704700BFE1
:4026800097640040776400400B4A13889BB243F4807343F00103138013889BB223F4807323F001039BB2138013889BB243F4007343F00203138070479665004008B5FFF7A8
:4026C000D5FFFFF7E1FF08BD10B40024094B1C70890001EBC010811C89B2CD3319801A8021331B7813F0FF0F0CBF012020465DF8044B70477964004010B400240A4B1C70C8
:40270000890001EBC01000F58050023080B2CD3318801A8021331B7813F0FF0F0CBF012020465DF8044B70477964004010B40124114B1C70890001EBC01000F5405002306A
:4027400080B2CD3318804FF6FF71198000210B4B19700A4B1B7813F0FF0FFAD0084B1B881380084B1B7813F0FF0F0CBF012000205DF8044B704700BF79640040088AFF1F0B
:40278000066500406765004010B40124114B1C70890001EBC01000F50050023080B2CD3318804FF6FF71198000210B4B19700A4B1B7813F0FF0FFAD0084B1B881380084B1E
:4027C0001B7813F0FF0F0CBF012000205DF8044B704700BF79640040088AFF1F0665004067650040024A137843F0010313707047088AFF1F014B1B68D864704708ED00E0FC
:402800004001C0B2014B1870704700BF03E400E00822014B1A60704700E100E00822014B1A60704780E100E008B5FFF7F7FF0448FFF7E0FF0720FFF7E3FFFFF7E9FF08BD18
:40284000E5270000054A137843F0020313701032137843F002031370704700BFA2430040044A137803F0FB03800000F0040018431070704760510040014B1B689864704751
:4028800008ED00E04001C0B2014B1870704700BF02E400E00422014B1A60704700E100E00422014B1A60704780E100E010B50446FFF7F6FF2046FFF7DFFF0720FFF7E2FF06
:4028C000FFF7E8FF10BD00BF014B1B681864704708ED00E04001C0B2014B1870704700BF00E400E00122014B1A60704700E100E00122014B1A60704780E100E010B5044686
:40290000FFF7F6FF2046FFF7DFFF0720FFF7E2FFFFF7E8FF10BD00BF014B1B685864704708ED00E04001C0B2014B1870704700BF01E400E00222014B1A60704700E100E0D0
:402940000222014B1A60704780E100E010B50446FFF7F6FF2046FFF7DFFF0720FFF7E2FFFFF7E8FF10BD00BF10B51E4C60782178FEF7DAF860792179FEF7D6F8607A217AC8
:40298000FEF7D2F8E07C217BFEF7CEF8607D217DFEF7CAF8607E217EFEF7C6F8607F217FFEF7C2F894F8220094F82010FEF7BCF894F8250094F82410FEF7B6F894F8290039
:4029C00094F82810FEF7B0F8002408E0054B234493F82C000121FEF75FF80134E4B2092CF4D910BD0C8AFF1F38B500232CE01846D54A52F82320D54901EB83018A63D44982
:402A00008A4206D992B2D14901EB830142F000528A635908CD4A02EB8000806B02EB81018866581CC84951F8201002EB80029163C74A914206D989B2C44A02EB800041F074
:402A4000005181630233DBB20B2BD0D90220012141F6FF724FF4804300F08CFBBB4C60700220012141F6FF724FF4804300F0A0FB6071637884F82C3084F82D00FEF794F815
:402A80002070FEF791F82071227810460C210123FEF7A4F8227910460C210123FEF79EF8AC4D2078A9B246F68402FEF7ABF805F10C01207989B246F6A402FEF7A3F8022027
:402AC000002141F6FF724FF4804300F033FB607284F82E00FEF768F80246207208210523FEF77CF8207A002146F68C02FEF78AF80220012100224FF4804300F097FB6075C5
:402B000084F82F00FEF750F80246207502218123FEF764F8207D002146F69422FEF772F8022001214FF4804241F6FF7300F05EFB607684F83000FEF737F8024620760221C7
:402B40008623FEF74BF8207E46F6B4210022FEF759F8042000210A4641F6FF7300F084FB60770120002141F6FF724FF4804300F09BFB84F82200637F84F8313084F8320058
:402B8000FEF712F82077FEF70FF884F82000FEF70BF884F82100227F104604210723FEF71DF894F82000022194F821202323FEF715F894F82100012194F820200023FEF76B
:402BC0000DF804F18005ADB2207F00212A46FEF719F894F82000294646F23A52FEF712F8A91C94F8210089B246F27842FEF70AF8022001214FF48042134600F07DFAE074F0
:402C000084F83300002406E0FDF7CEFF4F4B234418730134E4B2062CF6D94C4C207B0221627B2023FDF7DAFF607B0221A27B0423FDF7D4FFA07B0221E27B2023FDF7CEFFD7
:402C4000E07B0221227C0423FDF7C8FF207C0221627C0423FDF7C2FF607C0221A27C0423FDF7BCFFA07C0221227B0423FDF7B6FF227AD200207B46F60C0102F5F04204328D
:402C8000FDF7C0FF607B46F6040146F62C02FDF7B9FF227DD200A07B46F60C0102F5F0420432FDF7AFFF227ED200E07B46F60C0102F5F0420632FDF7A5FF627DD200207CFD
:402CC00046F60C0102F5EC420432FDF79BFF227FD200607C46F60C0102F5F0420432FDF791FF627FD200A07C46F60C0102F5EC420432FDF787FF0220002141F6FF721346F6
:402D000000F0F2FA84F82500FDF74EFF84F82400022000214FF4804241F6FF7300F004FB84F82900FDF740FF84F828000221FF228523FDF753FF94F8253084F8343094F85A
:402D4000293084F8353038BD443500000C8AFF1FFFFFFE1F4481FF1F38B50546FF2404E0013CE4B20120FDF773FF054B1B782B4201D1002CF4D10CB1002038BD102038BD56
:402D80006A640040024A137843F00203137070477865004008B500F0FBFA084A137843F02003137000F0F8FAFFF7DEFDFFF7EAFF034A137843F00103137008BD9A6500401F
:402DC00078650040054A92F8843040EA431343F4404303490B8082F8850070470C8AFF1F546A004000F01F00054A92F8853043EA401343F4404303490B8082F8840070474D
:402E00000C8AFF1F546A004008B50420FFF7EAFF08BD00BF08B50120FFF7D4FFFFF7F4FF00F0B6FA144A137843F0010313700132137843F00103137000F0AEFA1E220F4B1F
:402E40001A70082203F2E2231A800D4A02F138039BB20C490B803F210B4B197038210A33197092F886302BB9FFF7BEFD0122044B83F8862008BD00BF9A6500408A650040A0
:402E80000C8AFF1F4C6800407164004008B5064B93F887302BB9FFF7BDFF0122024B83F88720FFF777FF08BD0C8AFF1F014B188880B27047246800402DE9F84306468846EC
:402EC00017460024012046E02146264B33F81430B3423ED8234A02EB44029289B24238D33825E54015F0010501D17F00BFB2921B013297422DD8F31A9BB21DB15B009BB221
:402F00007F00BFB2DFF8649009EB81018D6E1D44022000212A0C41F6FF7300F0E5F989F8250099F824003946FF228723FDF756FE99F82400A9B21FFA88F2FDF763FE0A4BDA
:402F40001B7899F825000121FDF7FAFD0120FFF703FF0134E4B2052C01D80028B4D1BDE8F88300BF4481FF1F6A6400400C8AFF1F2DE9F8430646884617460024012046E0A9
:402F80002146264B33F81430B3423ED8234A02EB44029289B24238D33825E54015F0010501D17F00BFB2921B013297422DD8F31A9BB21DB15B009BB27F00BFB2DFF864906D
:402FC00009EB81018D6E1D440220002141F6FF722B0C00F089F989F8250099F824003946FF228723FDF7FAFD99F824001FFA88F1AAB2FDF707FE0A4B1B7899F8250001217F
:40300000FDF79EFD0120FFF7A7FE0134E4B2052C01D80028B4D1BDE8F88300BF4481FF1F6A6400400C8AFF1F2DE9F843064688460127002438464FE021462A4B33F8143090
:40304000B34247D8274A02EB44029289B24241D33825E54015F0010500D10227921B0132974237D8F31A9BB20DB15B009BB2DFF8849009EB81018D6E1D441B4BA3F8008028
:403080000220002141F6FF724FF4804300F02CF989F82500ADB299F82400294646F61202FDF7B0FD99F8280046F612012A46FDF7A9FD99F824000221FF228523FDF78EFDBE
:4030C0000A4B1B780A4A137883F0040313700220FFF742FE0134E4B2052C01D80028ABD1BDE8F8834481FF1F326800406A640040786500400C8AFF1FF0B583B086460F4686
:4031000016461D460A4C0023237000930193184671463A46FDF724FD207831462A46FDF7E9FC20780221FDF7D3FC207803B0F0BD5C89FF1FF0B583B086460F4616461D466A
:403140000B4C06232370002200920192184671463A46FDF705FD207831462A46FDF7CAFC20780221FDF7B4FC207803B0F0BD00BF5D89FF1FF0B583B086460F4616461D465F
:403180000A4C0820207000230093019371463A46FDF7E6FC207831462A46FDF7ABFC20780221FDF795FC207803B0F0BD5E89FF1FF0B583B086460F4616461D460A4C032022
:4031C000207000230093019371463A46FDF7C8FC207831462A46FDF78DFC20780221FDF777FC207803B0F0BD5F89FF1FF0B583B086460F4616461D460B4C092323700022FA
:4032000000920192184671463A46FDF7A9FC207831462A46FDF76EFC20780221FDF758FC207803B0F0BD00BF6089FF1FF0B583B086460F4616461D460A4C072020700023B5
:403240000093019371463A46FDF78AFC207831462A46FDF74FFC20780221FDF739FC207803B0F0BD6189FF1FF0B583B086460F4616461D460B4C01232370002200920192C7
:40328000184671463A46FDF76BFC207831462A46FDF730FC20780221FDF71AFC207803B0F0BD00BF6289FF1FF0B583B084468E4617461E460B4C0225257000230093019366
:4032C000284661467246FDF74BFC207839463246FDF710FC20782946FDF7FAFB207803B0F0BD00BF6389FF1FF0B583B086460F4616461D460B4C0423237000220092019276
:40330000184671463A46FDF72BFC207831462A46FDF7F0FB20780221FDF7DAFB207803B0F0BD00BF6489FF1FF0B583B086460F4616461D460B4C0523237000220092019228
:40334000184671463A46FDF70BFC207831462A46FDF7D0FB20780221FDF7BAFB207803B0F0BD00BF6589FF1F044A137803F0BF03800100F0400018431070704700510040F6
:403380000230800803D000BF01380046FCD17047EFF3108072B6704780F31088704700BF08B5124B1B7803F00303012B02D0022B04D00FE00D4B1B79DBB20CE00B4B1B7909
:4033C00003F07F0303EB43039B00094A13449B78DBB200E00023074A1268D35C022B02D1FDF7FAFE08BD002008BD00BF00600040D88AFF1FB88AFF1F014B1868704700BF2B
:40340000C889FF1F0E4B70B51E460E4C0025E41AA410A54204D056F8253098470135F8E701F052FA084B094C1E46E41AA4100025A54204D056F8253098470135F8E770BD19
:40344000D4480000D4480000D4480000DC48000010B5431E0A44914204D011F8014B03F8014FF8E710BD03460244934202D003F8011BFAE77047000000000000444F4B00AA
:40348000484F4B00414F4B00574F4B0052583A756E6B6E6F776E206461746100413A303030302020543A284E2F412900523A303030300000524F292000000000434F522955
:4034C00000000000522F5729000000004E2F41290000000048656C6C6F2066726F6D2043797072657373210040510040200000000140001000140140000800400140000AC8
:40350000004C0140000200500140200010510140C40E0048060060520040CC0E0048060030313233343536373839414243444546000000003031323334353637383941423D
:40354000434445465C87FF1F743F00004490FF1F743B0000448FFF1F74370000448BFF1F74350000448CFF1F5C83FF1F448EFF1F5C81FF1F00000800FF000200FF000200D2
:40358000FF000200FF000200FF000200FF000200FF000200FF000200FF000200FF000200FF000200FF000200FF000200FF000200FF000200FF000200FF000200FF000200FB
:4035C000FF000200FF000200FF000200FF000200FF000200FF000200FF000200FF000200FF000200FF000200FF000200FF000200FF000200FF000200FF000200FF000200BB
:40360000FF000200FF000200FF000200FF000200FF000200FF000200FF000200FF000200FF000200FF000200FF000200FF000200FF000200FF000200FF000200FF0002007A
:40364000FF000200FF000200FF000200FF000200FF000200FF000200FF000200FF000200FF000200FF000200FF000200FF000200FF000200FF000200FF000200FF0002003A
:40368000FF000200FF000200FF000200FF000200FF000200FF000200FF000200FF000200FF000200FF000200FF000200FF000200FF000200FF000200FF000200FF000200FA
:4036C000FF000200FF000200FF000200FF000200FF000200FF000200FF000200FF000200FF000200FF000200FF000200FF000200FF000200FF000200FF000200FF000200BA
:40370000FF000200FF000200FF000200FF000200FF000200FF000200FF000200FF000200FF000200FF000200FF000200FF000200FF000200FF000200FF000200FF00020079
:40374000FF000200FF000200FF000200FF000200FF000200FF000200FF000200FF000200FF000200FF000200FF000200FF000200FF000200FFFF0200FFFF0200FFFF02003C
:40378000FFFF0200FFFF0200FFFF0200FFFF0200FFFF0200FFFF0200FFFF0200FFFF0200FFFF0200FFFF0200FFFF0200FFFF0200FFFF0200FFFF0200FFFF0200FFFF020009
:4037C000FFFF0200FFFF0200FFFF0200FFFF0200FFFF0200FFFF0200FFFF0200FFFF0200FFFF0200FFFF0200FFFF0200FFFF0200FFFF0200FFFF0200FFFF0200FFFF0200C9
:40380000FFFF0200FFFF0200FFFF0200FFFF0200FFFF0200FFFF0200FFFF0200FFFF0200FFFF0200FFFF0200FFFF0200FFFF0200FFFF0200FFFF0200FFFF0200FFFF020088
:40384000FFFF0200FFFF0200FFFF0200FFFF0200FFFF0200FFFF0200FFFF0200FFFF0200FFFF0200FFFF0200FFFF0200FFFF0200FFFF0200FFFF0200FFFF0200FFFF020048
:40388000FFFF0200FFFF0200FFFF0200FFFF0200FFFF0200FFFF0200FFFF0200FFFF0200FFFF0200FFFF0200FFFF0200FFFF0200FFFF0200FFFF0200FFFF0200FFFF020008
:4038C000FFFF0200FFFF0200FFFF0200FFFF0200FFFF0200FFFF0200FFFF0200FFFF0200FFFF0200FFFF0200FFFF0200FFFF0200FFFF0200FFFF0200FFFF0200FFFF0200C8
:40390000FFFF0200FFFF0200FFFF0200FFFF0200FFFF0200FFFF0200FFFF0200FFFF0200FFFF0200FFFF0200FFFF0200FFFF0200FFFF0200FFFF0200FFFF0200FFFF020087
:40394000FFFF0200FFFF0200FFFF0200FFFF0200FFFF0200FFFF0200FFFF0200FFFF0200FFFF0200FFFF0200FFFF0200FFFF0200FFFF0200FFFF0200FFFF0200FFFF020047
:40398000FFFF0200FFFF0200FFFF0200FFFF0200FFFF0200FFFF0200FFFF0200FFFF0200FFFF0200FFFF0200FFFF0200FFFF0200FFFF0200FFFF0200FFFF0200FFFF020007
:4039C000FFFF0200FFFF0200FFFF0200FFFF0200FFFF0200FFFF0200FFFF0200FFFF0200FFFF0200FFFF0200FFFF0200FFFF0200FFFF0200FFFF0200FFFF0200FFFF0200C7
:403A0000FFFF0200FFFF0200FFFF0200FFFF0200FFFF0200FFFF0200FFFF0200FFFF0200FFFF0200FFFF0200FFFF0200FFFF0200FFFF0200FFFF0200FFFF0200FFFF020086
:403A4000FFFF0200FFFF0200FFFF0200FFFF0200FFFF0200FFFF0200FFFF0200FFFF0200FFFF0200FFFF0200FFFF0200FFFF0200FFFF0200FFFF0200FFFF0200FFFF020046
:403A8000FFFF0200FFFF0200FFFF0200FFFF0200FFFF0200FFFF0200FFFF0200FFFF0200FFFF0200FFFF0200FFFF0200FFFF0200FFFF0200FFFF0200FFFF0200FFFF020006
:403AC000FFFF0200FFFF0200FFFF0200FFFF0200FFFF0200FFFF0200FFFF0200FFFF0200FFFF0200FFFF0200FFFF0200FFFF0200FFFF0200FFFF0200FFFF0200FFFF0200C6
:403B0000FFFF0200FFFF0200FFFF0200FFFF0200FFFF0200FFFF0200FFFF0200FFFF0200FFFF0200FFFF0200FFFF0200FFFF0200FFFF0200FFFF0200FFFF0200FFFF020085
:403B4000FFFF0200FFFF0200FFFF0200FFFF0200FFFF0200FFFF0200FFFF0200FFFF0200FFFF0200FFFF0200FFFF0200FFFF020000FF020000000000000000000000000044
:403B80000000000000000000000000000000000000000000000000000000000000000000000000000000000000000000000000000000000000000000000000000000000005
:403BC00000000000000000000000000000000000000000000000000000000000000000000000000000000000000000000000000000000000000000000000000000000000C5
:403C00000000000000000000000000000000000000000000000000000000000000000000000000000000000000000000000000000000000000000000000000000000000084
:403C40000000000000000000000000000000000000000000000000000000000000000000000000000000000000000000000000000000000000000000000000000000000044
:4047400000000000000000000000000000000000000000000000000000000000000000000000000000000000000000000000000000000000010000007C4700000100000074
:40478000B048000000000000000000000100000094470000010000006C48000003000000C04700000000000000000000000000000000000000000000BC470000020A000057
:4047C00000008103080002000100820240000A000100030240000A0002030000040309041603460069006200650072005400720065006900640014034300460050005200B8
:40480000450041004400450052003803430044004300200043006F006D006D0075006E00690063006100740069006F006E00200049006E0074006500720066006100630050
:404840006500260343004400430020004400610074006100200049006E00740065007200660061006300650000000000090243000201018032090400000102020103052452
:4048800000100104240202052406000105240100010705810308000A09040100020A0000040705820240000007050302400000001201000202000008B40432F20100010280
:4048C0008001000043000000F8B500BFF8BC08BC9E4670474D000000F1040000F8B500BFF8BC08BC9E46704729000000004900000881FF1FC808000098070000000000002C
:4049000000000000010400807F800000FF0300000000E02EC05D00001800000000366E0100C2010000000800C201000000080000A1200000000002000000000000800084AC
:40494000008800A000A200A4FF81FF84FF887FA0FFA27FA4FFFF0200FFFF0200FFFF0200FFFF0200FFFF0200FFFF0200FFFF0200FFFF0200FFFF0200FFFF0200FFFF02005C
:40498000FFFF0200FFFF0200FFFF0200FFFF0200FFFF0200FFFF0200FFFF0200FFFF0200FFFF0200FFFF0200FFFF0200FFFF0200FFFF0200FFFF0200FFFF0200FFFF0200F7
:4049C000FFFF0200FFFF0200FFFF0200FFFF0200FFFF0200FFFF0200FFFF0200FFFF0200FFFF0200FFFF0200FFFF0200FFFF0200FFFF0200FFFF0200FFFF0200FFFF0200B7
:404A0000FFFF0200FFFF0200FFFF0200FFFF0200FFFF0200FFFF0200FFFF0200FFFF0200FFFF0200FFFF0200FFFF0200FFFF0200FFFF0200FFFF0200FFFF0200FFFF020076
:404A4000FFFF0200FFFF0200FFFF0200FFFF0200FFFF0200FFFF0200FFFF0200FFFF0200FFFF0200FFFF0200FFFF0200FFFF0200FFFF0200FFFF0200FFFF0200FFFF020036
:404A8000FFFF0200FFFF0200FFFF0200FFFF0200FFFF0200FFFF0200FFFF0200FFFF0200FFFF0200FFFF0200FFFF0200FFFF0200FFFF0200FFFF0200FFFF0200FFFF0200F6
:404AC000FFFF0200FFFF0200FFFF0200FFFF0200FFFF0200FFFF0200FFFF0200FFFF0200FFFF0200FFFF0200FFFF0200FFFF0200FFFF0200FFFF0200FFFF0200FFFF0200B6
:404B0000FFFF0200FFFF0200FFFF0200FFFF0200FFFF0200FFFF0200FFFF0200FFFF0200FFFF0200FFFF0200FFFF0200FFFF0200FFFF0200FFFF0200FFFF0200FFFF020075
:404B4000FFFF0200FFFF0200FFFF0200FFFF0200FFFF0200FFFF0200FFFF0200FFFF0200FFFF0200FFFF0200FFFF0200FFFF0200FFFF0200FFFF0200FFFF0200FFFF020035
:404B8000FFFF0200FFFF0200FFFF0200FFFF0200FFFF0200FFFF0200FFFF0200FFFF0200FFFF0200FFFF0200FFFF0200FFFF0200FFFF0200FFFF0200FFFF0200FFFF0200F5
:404BC000FFFF0200FFFF0200FFFF0200FFFF0200FFFF0200FFFF0200FFFF0200FFFF0200FFFF0200FFFF0200FFFF0200FFFF0200FFFF0200FFFF0200FFFF0200FFFF0200B5
:404C0000FFFF0200FFFF0200FFFF0200FFFF0200FFFF0200FFFF0200FFFF0200FFFF0200FFFF0200FFFF0200FFFF0200FFFF0200FFFF0200FFFF0200FFFF0200FFFF020074
:404C4000FFFF0200FFFF0200FFFF0200FFFF0200FFFF0200FFFF0200FFFF0200FFFF0200FFFF0200FFFF0200FFFF0200FFFF0200FFFF0200FFFF0200FFFF0200FFFF020034
:404C8000FFFF0200FFFF0200FFFF0200FFFF0200FFFF0200FFFF0200FFFF0200FFFF0200FFFF0200FFFF0200FFFF0200FFFF0200FFFF0200FFFF0200FFFF0200FFFF0200F4
:404CC000FFFF0200FFFF0200FFFF0200FFFF0200FFFF0200FFFF0200FFFF0200FFFF0200FFFF0200FFFF0200FFFF0200FFFF0200FFFF0200FFFF0200FFFF0200FFFF0200B4
:404D0000FFFF0200FFFF0200FFFF0200FFFF0200FFFF0200FFFF0200FFFF0200FFFF0200FFFF0200FFFF0200FFFF0200FFFF0200FFFF0200FFFF0200FFFF0200FFFF020073
:404D4000FFFF0200FFFF0200FFFF0200FFFF0200FFFF0200FFFF0200FFFF0200FFFF0200FFFF0200FFFF0200FFFF0200FFFF0200FFFF0200FFFF0200FFFF0200FFFF020033
:404D8000FFFF0200FFFF0200FFFF0200FFFF0200FFFF0200FFFF0200FFFF0200FFFF0200FFFF0200FFFF0200FFFF0200FFFF0200FFFF0200FFFF0200FFFF0200FFFF0200F3
:404DC000FFFF0200FFFF0200FFFF0200FFFF0200FFFF0200FFFF0200FFFF0200FFFF0200FFFF0200FFFF0200FFFF0200FFFF0200FFFF0200FFFF0200FFFF0200FFFF0200B3
:404E0000FFFF0200FFFF0200FFFF0200FFFF0200FFFF0200FFFF0200FFFF0200FFFF0200FFFF0200FFFF0200FFFF0200FFFF0200FFFF0200FFFF0200FFFF0200FFFF020072
:404E4000FFFF0200FFFF0200FFFF0200FFFF0200FFFF0200FFFF0200FFFF0200FFFF0200FFFF0200FFFF0200FFFF0200FFFF0200FFFF0200FFFF0200FFFF0200FFFF020032
:404E8000FFFF0200FFFF0200FFFF0200FFFF0200FFFF0200FFFF0200FFFF0200FFFF0200FFFF0200FFFF0200FFFF0200FFFF0200FFFF0200FFFF0200FFFF0200FFFF0200F2
:404EC000FFFF0200FFFF0200FFFF0200FFFF0200FFFF0200FFFF0200FFFF0200FFFF0200FFFF0200FFFF0200FFFF0200FFFF0200FFFF0200FFFF0200FFFF0200FFFF0200B2
:404F0000FFFF0200FFFF0200FFFF0200FFFF0200FFFF0200FFFF0200FFFF0200FFFF0200FFFF0200FFFF0200FFFF0200FFFF0200FFFF0200FFFF0200FFFF0200FFFF020071
:404F4000FFFF0200FFFF0200FFFF0200FFFF0200FFFF02000102030405060708090A0B0C0D0E0F10203040506070809010001001100210031004100510061007100810091C
:404F8000100A100B000000000000000000000000000000000000000000000000000000000000000000000000000000000000000000000000000000000000000000000000BC
:404FC00000000000000000000000000000000000000000000000000000000000000000000000000000000000000000000000000000000000000000000000000000000000B1
:405000000000000000000000000000000000000000000000000000000000000000000000000000000000000000000000000000000000000000000000000000000000000070
:405040000000000000000000000000000000000000000000000000000000000000000000000000000000000000000000000000000000000000000000000000000000000030
:4050800000000000000000000000000000000000000000000000000000000000000000000000000000000000000000000000000000000000000000000000000000000000F0
:4050C00000000000000000000000000000000000000000000000000000000000000000000000000000000000000000000000000000000000000000000000000000000000B0
:40510000000000000000000000000000000000000000000000000000000000000000000000000000000000000000000000000000000000000000000000000000000000006F
:405140000000000000000000000000000000FFFDFFFEFFFFFFFFFFFFFFFFFFFFFFFF0000000000000000000000000000000000000000000000000000000000000000000042
:40518000C4480000000000000000000000000000000000000000000000000000000000000000000000000000000000000000000000000000000000000000000000000000E3
:4051C0006889FF1F000000000000000000000000000000000000000000000000000000000000000000000000000000000000000000000000000000000000000000000000A0
:40520000000000000000000000000000000000000000000000000000000000000000000000000000000000000000000000000000000000000000000000000000000000006E
:40524000000000000000000000000000000000000000000000000000000000000000000000000000000000000000000000000000000000000000000000000000000000002E
:4052800000000000000000000000000000000000000000000000000000000000000000000000000000000000000000000000000000000000000000000000000000000000EE
:4052C00000000000000000000000000000000000000000000000000000000000000000000000000000000000000000000000000000000000000000000000000000000000AE
:020000040003F7
:0200000480007A
:40000000014500400252004001640040016500404A000140330101405F0201404C03014047040140600501405D060140550701404A080140530901404E0A01404A0B014057
:40004000120D0140020F01404E140140511501405D160140631701404418014054190140651A0140511B0140184001401F410140204201400E4301400344014004450140DC
:4000800002460140064701400C4801400E490140014C014007500140025101407E0201817C40873F8A1E02010304060207040B020D03130517021B0429032A032F043002CE
:4000C000310333043401406041024621480C49FF4AFF4BFF4DA04F045018580459045A045C025D025F01604062C06440654066C068C06AC06CC06EC0820185028602870114
:400100008B038E0890F0920F930494AA9655970399019A049B029E10A0CCA233A504A640A708AA20AE80AF08B303B4FFB70CBB08D2FFD804D904DB04DF0101080280061294
:4001400007400C210D080E02131014801540171419201A801F202205250C27012A402B042F12310432013320350436103701385039093C103D08412048044B10512052802B
:400180006D406E026F14742076127740C0BCC2F0C4F2CA5CCCE7CE6FD004D204E201E60103010404064008610A180C010E4E1012126518221A5C1E4026012E103440363F23
:4001C0003701405641034311440445F046E047CD483A49FF4AFF4BFF4C024D205004580459045A045C805F3162406301645065306642670168106E406F908208860C8A01C8
:400200008C0C960C9A0C9C049D019F02A003A402A803A901AB02AE0CB103B203B60CB888B920BF01C056C102C333C404C501C65BC704C81FC9FFCAFFCBFFCC03CD23CE03DB
:40024000D004D804D904DA04DC20DF01E240E301E450E530E640E701E810EE40EF900020014002400310054007280A220B080D120E02121813811504160119841A101C02CA
:400280001DC01F20208826402920304032403E024108428444104540468048184A024B014C0C4E824F80521853405420560857017C02844085808E80928294509509972043
:4002C00099209A219B219C819D0C9E40A404A610A706AA21AF20B108B205C0EFC2D7C4AFCA04CC08CE80D0D7D23CDE80E00AE240E608E801EC0C030404080504064009030E
:400300000A800C6E0D020E900F011642170418351AC21B041E20242026012703282529012ACA2B022CDB2D032E043304341F350336E43B20580459045F01819F82018401F5
:400340008501884E89528A218BA48C018D019045921A93209559960197A498019BC09C10A003A27CA402A805AA32AB02AC08ADA4AF4AB03FB180B440B57FD608D804D90443
:40038000DB04DF01000801800308044A07080A1A0E420F2811801204130415251740180219801A041B701D021E401F102210231025302602270829902A042B202C102E449A
:4003C0002F08300833103604372139103A013B883C423D213F0C4C044D104E0459105A205E8066807C407E01808082028341854C860887088A828D40921093809458956CB9
:4004000096249728984099209A289B219C939EC29F98A021A180A240A301A54AA611A746AD01AF20B004B108C0F7C2F7C4F7CA3ECCE6CEFFD610D810E080E204E602EA08E9
:40044000EC01EE800402060108040A08140116021C081E042E03300C32033E014043410149FF4AFF4BFF58045A045F01609061BC641065116660676C6840696C6AC06E4003
:400480006F20802982068404856089AB8A108B548C078E38900195189602980199C49B219C019F02A201A401A63EA9D4AA01AB2BAC1FAF03B107B220B380B41FB518B61F6A
:4004C000B760B988BF04C042C101C790C9FFCAFFCBFFCC03CD03D602D738D804D904DA04DB04DC10DD10DF01E090E1BCE410E511E660E76CE840E96CEAC0EE40EF200008BA
:400500000180038805240A540B010C400E240F0810901180120815031780181819041BC01E201F012004210123162A90328433203A043B2041A243404582470C53025A807D
:40054000631069546A0270407118728279207A048008810185088702890C8A408C108EA09210930194589528970A985099A09A289BA89C819E419F10A080A1A2A309A40C42
:40058000A540A61DA706AB01B390B422C06FC2AFC48FCA0CCC0ECE06D0DDD608D802E201E609E810EA05EE1001200202050806010733082009090AC40B340EFC0F20132068
:4005C0001490150E162418011B201C481E241F012201232024242527261827182A012B202D202E0230013101321C330E34E035103602372038803F50520E580459045B04DD
:400600005C105F018301850187068D068F0196029B029C07A201A602AA04B007B304B503BB20C025C9FFCAFFCBFFD201D804D904DA04DB04DD10DF01E240E3EC030C051AED
:4006400007010A020B200C400D200F201004130514021521170419011D101F6A20042310249A260827402D042E902F80302035203608374238043B423C603E0640044B4024
:4006800069406D116E0880108140872089208A808B408D408F109322940C950896229750980599409A689B099C029D0B9E01A022A124A282A540A604A702A909B002B22010
:4006C000B301B480C0F0C2E5C4FECAF0CCF4CEFBD004D208E030E240E420E680E810EC80EE20011F0320051F0720093F0D030F441304154417181B041F3F27042B092F1205
:400700003140353F3F01402549FF4AFF4BFF540359045A045B045F01664067EC80F0820F86028A048E108F0492809640970298AA9A559E089F01A201A620ACCCAE33B301D4
:40074000B4FFB502B704C030C106C510C620C80AC9FFCAFFCBFFCDA0CF04D018D2FFD608D804D904DA04DB04DD02DF01E040E2C0E440E540E6C0E8C0EAC0ECC0EEC00480C8
:400780000502061007040C800EA41402150416801C08211022022308252C2680270129082A202B0231083291358839283A413D80400444104B404F22571058405A105C8078
:4007C000658066406C406D046EA07480769077048180840488018E049214932294089710985499409A089F08A020A701AA08AF08B010B311C0F0C2F0C4B0CA0ECC5FCE1F63
:40080000D044D228D61CD810E240E420E820EA80EE80840492149322940898409940A020A820AA10AB01AC40B140B204B310E002E608E8A0EC208004E2010008011002353B
:40084000030C0408054C0652094C0A600C600D4C1003114C12041460157C1808190B1B041C601F022060212C24602501286029092B062C042D072E012F083170347F370FDF
:400880003E103F01580459045C105F018420852088C28A318B018D408F0590609106928F95069601980399069A3C9C849D7F9E40A380A508A710A808AA02AB10ACC1AD2905
:4008C000AE1EAF52B43FB580B6C0B77FBA80BBC0D804D904DF010161024003200620070809010A020B140D020E1A10441104120217601A081E0A218022022540266028404B
:400900002A5A2C102D822F08300431883201332035083650370239543B123C083E103F8041104208493082018310870489028B408E228F12917592129306960897489810B3
:4009400099989A329B6A9E019F10A004A10BA210A368A5C0A645A712A884AD14B510B701C06FC2FFC4CFCAFFCCFFCE7FE204E61CE802EA28EC01EE040C0110011C0126011E
:400980002801340140314105440649FF4AFF4BFF4C024D204E70500C58045A045D015F01610862C0630864406509670969086B086D086F0880208210840485018608890809
:4009C0008E03900393049504963C980299089A019C089E049F04A010A101A220A302A63CA703A908AD01AE03AF02B001B202B301B40CB506B630B708BAA0BF40C021C105D3
:400A0000C406C5F0C6CEC70BC81EC9FFCAFFCBFFCC03CD20CE70D00CD40FD804D904DA04DB04DD11DF01E108E2C0E308E440E509E70901080382058008800A100B480E8085
:400A40000F0212211302141015801608178018481A401B841C08202021202240281029802A102B40310233643B283C043D08400441804584480849014A024C084E024F2050
:400A800051505204580859215B8078017B808008820885208610872088108A808B828D208E4090049155921293249440950896C89708981099989AAA9B6C9C819E159F1012
:400AC000A10BA232A349A404A540A60DA724AA02AD10AE01B101B210B310B440B540C08DC29FC46DCA0FCC0FCE06D05CD23CD60FE206E69CEA03EC0A0040020C0411070307
:400B00000B010D0C14091692170818091A761B041F0C24E72501260827022B012C242D04321F330C34E8350137025207580459045B045C015F01800182028320853086024E
:400B400089048B088C098F10901F930394029540960897029A029E029F0FA004A103A304A50BA610A704A80BA903AC09AD01AF40B01FB130B30FB540BA03D804D904DF01E2
:400B800000080240030206100780080409040A8A0E24101212801318154418401A801C201E241F0421242220237024202648271428102A612C212D1030243290330236A822
:400BC00038043B523E5859085A08604062016D806E1880118604870489028B888F049006915495A896269745980199409A689B089C029D0A9E03A002A104A282A30AA4106D
:400C0000A540A840AF82B040B104B440B610C03DC26FC4AFCA7FCC7BCE7FE080E220E420E610E8E0EA02EC100203031F051C0602070309070B180D070E010F1810031401CE
:400C4000150217011B1B1D041E011F1B20012110230824012D092E012F12310432033303350337183BA8403441064250440149FF4AFF4BFF4CC24E704F0450085602573D73
:400C8000580459045A045B045F016240630164C066D0681069AC6A106BD46C406DAC6E406FA884038604941096089A029C089E14B018B401B606BE10C034C102C250C40154
:400CC000C50BC6F0C829C9FFCAF3CBFFCC43CE73CF04D008D804DA04DF01E240E301E4C0E6D0E810E9ACEA10EBD4EC40EDACEE40EFA80108028107100A500B010E0A0F2019
:400D000010201141182019081D101E021F812008215022152302288331203204334039543B01406243014421472949404B504F445601572059106202682069556A106B4010
:400D40007240730182408320860488808B828C108F109040931095A096629707980199409B389D08A120A286A404A802AB01AE10AF10B240B602C02DC2EDC40DCA09CC0EBE
:400D8000CE0FD0FBD21CD604D801E010E2A0E640E840EA20110213041504180419021E1030803202348037023A803B083C203D04420282808302C430C670CCF0CEF0D010BE
:400DC000E280E68017023320372039013C403F0142015A20620487208E0297089C809E02A101A490A602A804A902AA10AD02AF04C420CC30CEE0D010D480D840E610E8E034
:400E0000EC300320040845024A045120570881018210830186018B209440962197019C809E049F20A101A490A602AB02AF04B101C030D080D210D460E290E480E620EC806A
:400E4000EE108104870894409C809E049F20A490A606A708A920B404B502E6C0EA2051108210D40485108610952096109610A6100A100B040E209610A610C20E84108880CC
:400E80008E02944099049C809E04A490A606AF20E210EA401220710482248E0499049E04A604A840B080C410DC80E480E620EE20AF04000708050A030C0710031A031C03EA
:400EC00000FF012A6AAA090000000000010500000A00000000C1C100810000000F0000020F00070000000000000A000F0A0000004000000000000000C0000000000B0B0038
:400F000000000000007F7F00000000000000000000000100000C0C000800000000010000000400000005000000060000000900000000000000000000000000000000000079
:400F40000000000000000000000000000000000000000000000000000000000000000000000000000000000000000000000000000000000000000000000000000000000071
:400F80000000000000000000000000000000000000000000000000000000000000000000000000000000000000000000000000000000000000000000000000000000000031
:400FC00000000000000000000000000000000000000000000000000000000000000000000000000000000000000000000000000000000000000000000000000000000000F1
:4010000000000000000000000000000000000000000000000000000000000000000000000000000000000000000000000000000000000000000000000000000000000000B0
:0200000490006A
:0400000000004005B7
:0200000490105A
:04000000BC90ACAF55
:0200000490303A
:02000000B9F94C
:0200000490402A
:4000000000000000000000000000000000000000000000000000000000000000000000000000000000000000000000000000000000000000000000000000000000000000C0
:400040000000000000000000000000000000000000000000000000000000000000000000000000000000000000000000000000000000000000000000000000000000000080
:400080000000000000000000000000000000000000000000000000000000000000000000000000000000000000000000000000000000000000000000000000000000000040
:4000C0000000000000000000000000000000000000000000000000000000000000000000000000000000000000000000000000000000000000000000000000000000000000
:0200000490501A
:0C00000000012E12306900012E31EA626E
:00000001FF